{
  "address": "0xA2E059AF8F9a545C4ed3f89964Bf1FaC02eA51A6",
  "abi": [
    {
      "inputs": [],
      "stateMutability": "nonpayable",
      "type": "constructor"
    },
    {
      "inputs": [],
      "name": "AccessControlBadConfirmation",
      "type": "error"
    },
    {
      "inputs": [
        {
          "internalType": "address",
          "name": "account",
          "type": "address"
        },
        {
          "internalType": "bytes32",
          "name": "neededRole",
          "type": "bytes32"
        }
      ],
      "name": "AccessControlUnauthorizedAccount",
      "type": "error"
    },
    {
      "inputs": [
        {
          "internalType": "address",
          "name": "target",
          "type": "address"
        }
      ],
      "name": "AddressEmptyCode",
      "type": "error"
    },
    {
      "inputs": [
        {
          "internalType": "address",
          "name": "account",
          "type": "address"
        }
      ],
      "name": "AddressInsufficientBalance",
      "type": "error"
    },
    {
      "inputs": [
        {
          "internalType": "uint256",
          "name": "amountIn",
          "type": "uint256"
        },
        {
          "internalType": "uint256",
          "name": "used",
          "type": "uint256"
        },
        {
          "internalType": "uint256",
          "name": "spareVana",
          "type": "uint256"
        },
        {
          "internalType": "uint256",
          "name": "unusedVana",
          "type": "uint256"
        }
      ],
      "name": "DLPRewardSwap__AmountMismatch",
      "type": "error"
    },
    {
      "inputs": [
        {
          "internalType": "address",
          "name": "token",
          "type": "address"
        },
        {
          "internalType": "uint256",
          "name": "expected",
          "type": "uint256"
        },
        {
          "internalType": "uint256",
          "name": "actual",
          "type": "uint256"
        }
      ],
      "name": "DLPRewardSwap__InsufficientAmount",
      "type": "error"
    },
    {
      "inputs": [],
      "name": "DLPRewardSwap__InvalidLpTokenId",
      "type": "error"
    },
    {
      "inputs": [],
      "name": "DLPRewardSwap__InvalidRange",
      "type": "error"
    },
    {
      "inputs": [],
      "name": "DLPRewardSwap__InvalidRewardPercentage",
      "type": "error"
    },
    {
      "inputs": [],
      "name": "DLPRewardSwap__InvalidSlippagePercentage",
      "type": "error"
    },
    {
      "inputs": [],
      "name": "DLPRewardSwap__LPAmountMismatch",
      "type": "error"
    },
    {
      "inputs": [
        {
          "internalType": "uint128",
          "name": "expected",
          "type": "uint128"
        },
        {
          "internalType": "uint128",
          "name": "actual",
          "type": "uint128"
        }
      ],
      "name": "DLPRewardSwap__LiquidityMismatch",
      "type": "error"
    },
    {
      "inputs": [
        {
          "internalType": "address",
          "name": "token",
          "type": "address"
        },
        {
          "internalType": "uint256",
          "name": "expected",
          "type": "uint256"
        },
        {
          "internalType": "uint256",
          "name": "actual",
          "type": "uint256"
        }
      ],
      "name": "DLPRewardSwap__SpareAmountMismatch",
      "type": "error"
    },
    {
      "inputs": [
        {
          "internalType": "uint256",
          "name": "expected",
          "type": "uint256"
        },
        {
          "internalType": "uint256",
          "name": "actual",
          "type": "uint256"
        }
      ],
      "name": "DLPRewardSwap__VanaInMismatch",
      "type": "error"
    },
    {
      "inputs": [],
      "name": "DLPRewardSwap__ZeroAddress",
      "type": "error"
    },
    {
      "inputs": [],
      "name": "DLPRewardSwap__ZeroAmount",
      "type": "error"
    },
    {
      "inputs": [],
      "name": "DLPRewardSwap__ZeroAmountSwapIn",
      "type": "error"
    },
    {
      "inputs": [],
      "name": "DLPRewardSwap__ZeroLiquidity",
      "type": "error"
    },
    {
      "inputs": [
        {
          "internalType": "address",
          "name": "implementation",
          "type": "address"
        }
      ],
      "name": "ERC1967InvalidImplementation",
      "type": "error"
    },
    {
      "inputs": [],
      "name": "ERC1967NonPayable",
      "type": "error"
    },
    {
      "inputs": [],
      "name": "EnforcedPause",
      "type": "error"
    },
    {
      "inputs": [],
      "name": "ExpectedPause",
      "type": "error"
    },
    {
      "inputs": [],
      "name": "FailedInnerCall",
      "type": "error"
    },
    {
      "inputs": [],
      "name": "InvalidInitialization",
      "type": "error"
    },
    {
      "inputs": [],
      "name": "NotInitializing",
      "type": "error"
    },
    {
      "inputs": [],
      "name": "ReentrancyGuardReentrantCall",
      "type": "error"
    },
    {
      "inputs": [
        {
          "internalType": "address",
          "name": "token",
          "type": "address"
        }
      ],
      "name": "SafeERC20FailedOperation",
      "type": "error"
    },
    {
      "inputs": [],
      "name": "T",
      "type": "error"
    },
    {
      "inputs": [],
      "name": "UUPSUnauthorizedCallContext",
      "type": "error"
    },
    {
      "inputs": [
        {
          "internalType": "bytes32",
          "name": "slot",
          "type": "bytes32"
        }
      ],
      "name": "UUPSUnsupportedProxiableUUID",
      "type": "error"
    },
    {
      "anonymous": false,
      "inputs": [
        {
          "indexed": false,
          "internalType": "uint64",
          "name": "version",
          "type": "uint64"
        }
      ],
      "name": "Initialized",
      "type": "event"
    },
    {
      "anonymous": false,
      "inputs": [
        {
          "indexed": false,
          "internalType": "address",
          "name": "account",
          "type": "address"
        }
      ],
      "name": "Paused",
      "type": "event"
    },
    {
      "anonymous": false,
      "inputs": [
        {
          "indexed": true,
          "internalType": "address",
          "name": "sender",
          "type": "address"
        },
        {
          "indexed": true,
          "internalType": "address",
          "name": "recipient",
          "type": "address"
        },
        {
          "indexed": true,
          "internalType": "address",
          "name": "token",
          "type": "address"
        },
        {
          "indexed": false,
          "internalType": "uint256",
          "name": "usedVanaForReward",
          "type": "uint256"
        },
        {
          "indexed": false,
          "internalType": "uint256",
          "name": "tokenRewardAmount",
          "type": "uint256"
        },
        {
          "indexed": false,
          "internalType": "uint256",
          "name": "usedVanaForLp",
          "type": "uint256"
        },
        {
          "indexed": false,
          "internalType": "uint256",
          "name": "liquidityDelta",
          "type": "uint256"
        },
        {
          "indexed": false,
          "internalType": "uint256",
          "name": "spareVana",
          "type": "uint256"
        },
        {
          "indexed": false,
          "internalType": "uint256",
          "name": "spareToken",
          "type": "uint256"
        }
      ],
      "name": "Reward",
      "type": "event"
    },
    {
      "anonymous": false,
      "inputs": [
        {
          "indexed": true,
          "internalType": "bytes32",
          "name": "role",
          "type": "bytes32"
        },
        {
          "indexed": true,
          "internalType": "bytes32",
          "name": "previousAdminRole",
          "type": "bytes32"
        },
        {
          "indexed": true,
          "internalType": "bytes32",
          "name": "newAdminRole",
          "type": "bytes32"
        }
      ],
      "name": "RoleAdminChanged",
      "type": "event"
    },
    {
      "anonymous": false,
      "inputs": [
        {
          "indexed": true,
          "internalType": "bytes32",
          "name": "role",
          "type": "bytes32"
        },
        {
          "indexed": true,
          "internalType": "address",
          "name": "account",
          "type": "address"
        },
        {
          "indexed": true,
          "internalType": "address",
          "name": "sender",
          "type": "address"
        }
      ],
      "name": "RoleGranted",
      "type": "event"
    },
    {
      "anonymous": false,
      "inputs": [
        {
          "indexed": true,
          "internalType": "bytes32",
          "name": "role",
          "type": "bytes32"
        },
        {
          "indexed": true,
          "internalType": "address",
          "name": "account",
          "type": "address"
        },
        {
          "indexed": true,
          "internalType": "address",
          "name": "sender",
          "type": "address"
        }
      ],
      "name": "RoleRevoked",
      "type": "event"
    },
    {
      "anonymous": false,
      "inputs": [
        {
          "indexed": false,
          "internalType": "address",
          "name": "account",
          "type": "address"
        }
      ],
      "name": "Unpaused",
      "type": "event"
    },
    {
      "anonymous": false,
      "inputs": [
        {
          "indexed": true,
          "internalType": "address",
          "name": "implementation",
          "type": "address"
        }
      ],
      "name": "Upgraded",
      "type": "event"
    },
    {
      "inputs": [],
      "name": "DEFAULT_ADMIN_ROLE",
      "outputs": [
        {
          "internalType": "bytes32",
          "name": "",
          "type": "bytes32"
        }
      ],
      "stateMutability": "view",
      "type": "function"
    },
    {
      "inputs": [],
      "name": "MAINTAINER_ROLE",
      "outputs": [
        {
          "internalType": "bytes32",
          "name": "",
          "type": "bytes32"
        }
      ],
      "stateMutability": "view",
      "type": "function"
    },
    {
      "inputs": [],
      "name": "ONE_HUNDRED_PERCENT",
      "outputs": [
        {
          "internalType": "uint256",
          "name": "",
          "type": "uint256"
        }
      ],
      "stateMutability": "view",
      "type": "function"
    },
    {
      "inputs": [],
      "name": "UPGRADE_INTERFACE_VERSION",
      "outputs": [
        {
          "internalType": "string",
          "name": "",
          "type": "string"
        }
      ],
      "stateMutability": "view",
      "type": "function"
    },
    {
      "inputs": [],
      "name": "VANA",
      "outputs": [
        {
          "internalType": "address",
          "name": "",
          "type": "address"
        }
      ],
      "stateMutability": "view",
      "type": "function"
    },
    {
      "inputs": [
        {
          "internalType": "bytes32",
          "name": "role",
          "type": "bytes32"
        }
      ],
      "name": "getRoleAdmin",
      "outputs": [
        {
          "internalType": "bytes32",
          "name": "",
          "type": "bytes32"
        }
      ],
      "stateMutability": "view",
      "type": "function"
    },
    {
      "inputs": [
        {
          "internalType": "bytes32",
          "name": "role",
          "type": "bytes32"
        },
        {
          "internalType": "address",
          "name": "account",
          "type": "address"
        }
      ],
      "name": "grantRole",
      "outputs": [],
      "stateMutability": "nonpayable",
      "type": "function"
    },
    {
      "inputs": [
        {
          "internalType": "bytes32",
          "name": "role",
          "type": "bytes32"
        },
        {
          "internalType": "address",
          "name": "account",
          "type": "address"
        }
      ],
      "name": "hasRole",
      "outputs": [
        {
          "internalType": "bool",
          "name": "",
          "type": "bool"
        }
      ],
      "stateMutability": "view",
      "type": "function"
    },
    {
      "inputs": [
        {
          "internalType": "address",
          "name": "ownerAddress",
          "type": "address"
        },
        {
          "internalType": "contract ISwapHelper",
          "name": "initSwapHelper",
          "type": "address"
        },
        {
          "internalType": "contract INonfungiblePositionManager",
          "name": "initPositionManager",
          "type": "address"
        }
      ],
      "name": "initialize",
      "outputs": [],
      "stateMutability": "nonpayable",
      "type": "function"
    },
    {
      "inputs": [],
      "name": "pause",
      "outputs": [],
      "stateMutability": "nonpayable",
      "type": "function"
    },
    {
      "inputs": [],
      "name": "paused",
      "outputs": [
        {
          "internalType": "bool",
          "name": "",
          "type": "bool"
        }
      ],
      "stateMutability": "view",
      "type": "function"
    },
    {
      "inputs": [],
      "name": "positionManager",
      "outputs": [
        {
          "internalType": "contract INonfungiblePositionManager",
          "name": "",
          "type": "address"
        }
      ],
      "stateMutability": "view",
      "type": "function"
    },
    {
      "inputs": [],
      "name": "proxiableUUID",
      "outputs": [
        {
          "internalType": "bytes32",
          "name": "",
          "type": "bytes32"
        }
      ],
      "stateMutability": "view",
      "type": "function"
    },
    {
      "inputs": [
        {
          "components": [
            {
              "internalType": "uint256",
              "name": "amountIn",
              "type": "uint256"
            },
            {
              "internalType": "uint256",
              "name": "lpTokenId",
              "type": "uint256"
            },
            {
              "internalType": "uint256",
              "name": "rewardPercentage",
              "type": "uint256"
            },
            {
              "internalType": "uint256",
              "name": "maximumSlippagePercentage",
              "type": "uint256"
            }
          ],
          "internalType": "struct IDLPRewardSwap.QuoteSplitRewardSwapParams",
          "name": "params",
          "type": "tuple"
        }
      ],
      "name": "quoteSplitRewardSwap",
      "outputs": [
        {
          "internalType": "uint256",
          "name": "tokenRewardAmount",
          "type": "uint256"
        },
        {
          "internalType": "uint256",
          "name": "spareToken",
          "type": "uint256"
        },
        {
          "internalType": "uint256",
          "name": "spareVana",
          "type": "uint256"
        },
        {
          "internalType": "uint256",
          "name": "usedVanaAmount",
          "type": "uint256"
        }
      ],
      "stateMutability": "nonpayable",
      "type": "function"
    },
    {
      "inputs": [
        {
          "internalType": "bytes32",
          "name": "role",
          "type": "bytes32"
        },
        {
          "internalType": "address",
          "name": "callerConfirmation",
          "type": "address"
        }
      ],
      "name": "renounceRole",
      "outputs": [],
      "stateMutability": "nonpayable",
      "type": "function"
    },
    {
      "inputs": [
        {
          "internalType": "bytes32",
          "name": "role",
          "type": "bytes32"
        },
        {
          "internalType": "address",
          "name": "account",
          "type": "address"
        }
      ],
      "name": "revokeRole",
      "outputs": [],
      "stateMutability": "nonpayable",
      "type": "function"
    },
    {
      "inputs": [
        {
          "components": [
            {
              "internalType": "uint256",
              "name": "lpTokenId",
              "type": "uint256"
            },
            {
              "internalType": "uint256",
              "name": "rewardPercentage",
              "type": "uint256"
            },
            {
              "internalType": "uint256",
              "name": "maximumSlippagePercentage",
              "type": "uint256"
            },
            {
              "internalType": "address",
              "name": "rewardRecipient",
              "type": "address"
            },
            {
              "internalType": "address",
              "name": "spareRecipient",
              "type": "address"
            }
          ],
          "internalType": "struct IDLPRewardSwap.SplitRewardSwapParams",
          "name": "params",
          "type": "tuple"
        }
      ],
      "name": "splitRewardSwap",
      "outputs": [
        {
          "internalType": "uint256",
          "name": "tokenRewardAmount",
          "type": "uint256"
        },
        {
          "internalType": "uint256",
          "name": "spareToken",
          "type": "uint256"
        },
        {
          "internalType": "uint256",
          "name": "spareVana",
          "type": "uint256"
        },
        {
          "internalType": "uint256",
          "name": "usedVanaAmount",
          "type": "uint256"
        }
      ],
      "stateMutability": "payable",
      "type": "function"
    },
    {
      "inputs": [
        {
          "internalType": "bytes4",
          "name": "interfaceId",
          "type": "bytes4"
        }
      ],
      "name": "supportsInterface",
      "outputs": [
        {
          "internalType": "bool",
          "name": "",
          "type": "bool"
        }
      ],
      "stateMutability": "view",
      "type": "function"
    },
    {
      "inputs": [],
      "name": "swapHelper",
      "outputs": [
        {
          "internalType": "contract ISwapHelper",
          "name": "",
          "type": "address"
        }
      ],
      "stateMutability": "view",
      "type": "function"
    },
    {
      "inputs": [],
      "name": "unpause",
      "outputs": [],
      "stateMutability": "nonpayable",
      "type": "function"
    },
    {
      "inputs": [
        {
          "internalType": "contract INonfungiblePositionManager",
          "name": "newPositionManager",
          "type": "address"
        }
      ],
      "name": "updatePositionManager",
      "outputs": [],
      "stateMutability": "nonpayable",
      "type": "function"
    },
    {
      "inputs": [
        {
          "internalType": "contract ISwapHelper",
          "name": "newSwapHelper",
          "type": "address"
        }
      ],
      "name": "updateSwapHelper",
      "outputs": [],
      "stateMutability": "nonpayable",
      "type": "function"
    },
    {
      "inputs": [
        {
          "internalType": "address",
          "name": "newImplementation",
          "type": "address"
        },
        {
          "internalType": "bytes",
          "name": "data",
          "type": "bytes"
        }
      ],
      "name": "upgradeToAndCall",
      "outputs": [],
      "stateMutability": "payable",
      "type": "function"
    },
    {
      "inputs": [],
      "name": "version",
      "outputs": [
        {
          "internalType": "uint256",
          "name": "",
          "type": "uint256"
        }
      ],
      "stateMutability": "pure",
      "type": "function"
    },
    {
      "stateMutability": "payable",
      "type": "receive"
    }
  ],
  "transactionHash": "0xcccc99228a1f00267bdda33a67faad0e9245a6b007359f4879256cee7de2bcc0",
  "args": [],
  "numDeployments": 1,
  "solcInputHash": "b7c44af213c9be70c92f403058a0e2f3",
  "bytecode": "0x60a080604052346100ea57306080527ff0c57e16840df040f15088dc2f81fe391c3923bec73e23a9662efc9c229c6a005460ff8160401c166100d9576002600160401b03196001600160401b03821601610073575b6040516138f890816100f08239608051818181610b0b0152610bdb0152f35b6001600160401b0319166001600160401b039081177ff0c57e16840df040f15088dc2f81fe391c3923bec73e23a9662efc9c229c6a005581527fc7f505b2f371ae2175ee4913f4499e1f2633a7b5936321eed1cdaeb6115181d290602090a13880610054565b63f92ee8a960e01b60005260046000fd5b600080fdfe61016080604052600436101561001e575b50361561001c57600080fd5b005b600090813560e01c90816301ffc9a714611e12575080630fc6a11c14611deb578063248a9ca314611dc457806325656a6314610f005780632f2ff15d14610ece57806336568abe14610e895780633f2b972314610e465780633f4ba83a14610dc457806344fd3939146109325780634f1ef28614610b6057806352d1902d14610af857806354fd4d5014610adc5780635c975abb14610aac5780636881d8cb14610a55578063791b98bc14610a2c5780638456cb59146109a757806391d148541461094e578063a217fddf14610932578063ad3cb1cc146108b8578063aeb4ad551461043e578063c0c53b8b146101b9578063d547741f1461017e578063dd0081c71461015a5763f874225403610010573461015757806003193601126101575760206040516000805160206138a38339815191528152f35b80fd5b5034610157578060031936011261015757602060405168056bc75e2d631000008152f35b5034610157576040366003190112610157576101b560043561019e611e83565b906101b06101ab82611f54565b61242a565b61260d565b5080f35b5034610157576060366003190112610157576101d3611e99565b906101dc611e83565b6044356001600160a01b038116939084900361043a576000805160206138838339815191525493604085901c60ff1615926001600160401b03861680159081610432575b6001149081610428575b15908161041f575b50610410576001600160401b03198616600117600080516020613883833981519152559394929361038a93856103e7575b5061026c6135bc565b6102746135bc565b61027c6135bc565b6102846135bc565b60ff196000805160206138438339815191525416600080516020613843833981519152556102b06135bc565b6102b86135bc565b60016000805160206138638339815191525560018060a01b031660018060a01b031986541617855560018060a01b031960015416176001556000805160206138a383398151915284526000805160206138238339815191526020528360016040822001546000805160206138a383398151915282526000805160206138238339815191526020528160016040822001556000805160206138a38339815191527fbd79b86ffe0ab8e8776151514217cd7cacd52c909f66475c3af44e129f0b00ff8380a461038481612474565b506124f0565b506103925780f35b60ff60401b196000805160206138838339815191525416600080516020613883833981519152557fc7f505b2f371ae2175ee4913f4499e1f2633a7b5936321eed1cdaeb6115181d2602060405160018152a180f35b6001600160481b0319166001600160401b01176000805160206138838339815191525538610263565b63f92ee8a960e01b8552600485fd5b90501538610232565b303b15915061022a565b859150610220565b8280fd5b5034610157576080366003190112610157576004359081156108a95760443568056bc75e2d63100000811161089a576064359268056bc75e2d63100000841161088b5760015460405163133f757160e31b8152602480356004830152909161018091839182906001600160a01b03165afa94851561088057849385869387908899610831575b506104d16104d7916126ad565b986126ad565b87546040516377bd66b560e01b815291979190602090829060049082906001600160a01b03165afa908115610792578991610812575b506001600160a01b03828116911690811490819081156107ff575b50156107f0579161054e9168056bc75e2d63100000936000146107e85750925b866120a1565b049384156107d95790610564856105b7936120ca565b9562ffffff6040519261057684611ee0565b888452602084018a90526001600160a01b039081166040850181905296909116606084018190526080840186905299811660a08401521660c0820152612a32565b9560018060a01b038654169360405190630b4c774160e11b8252876004830152846024830152826044830152602082606481895afa9182156107ce57889261079d575b506080890151604051630d34328160e11b81526001600160a01b0391821693909160209183916004918391165afa908115610792578991610754575b5060608a01516001600160801b039182169082160193908411610740579260c095926106b195928a98956040519561066d87611ee0565b8a8752602087015260408601526060850152608084015260018060801b031660a083015284820152604051948580948193636240e8c760e01b8352600483016121d2565b03925af192831561073457926106ff575b506106fb906106ee60608401519360406106e560208289015198015180956120ca565b91015190612141565b9060405194859485611e67565b0390f35b6106fb9192506107269060c03d60c01161072d575b61071e8183611f16565b810190612174565b91906106c2565b503d610714565b604051903d90823e3d90fd5b634e487b7160e01b89526011600452602489fd5b90506020813d60201161078a575b8161076f60209383611f16565b810103126107865761078090611fc3565b38610636565b8880fd5b3d9150610762565b6040513d8b823e3d90fd5b6107c091925060203d6020116107c7575b6107b88183611f16565b810190612082565b90386105fa565b503d6107ae565b6040513d8a823e3d90fd5b630cdbe5ed60e11b8752600487fd5b905092610548565b630b9b5c2560e21b8952600489fd5b6001600160a01b03851614905038610528565b61082b915060203d6020116107c7576107b88183611f16565b3861050d565b9150506108619197506104d195506104d793506101803d8111610879575b6108598183611f16565b810190611fd7565b50505050509b955096929093509790929591506104c4565b503d61084f565b6040513d86823e3d90fd5b63fc46777360e01b8352600483fd5b633de9f84960e01b8252600482fd5b630cdbe5ed60e11b8152600490fd5b503461015757806003193601126101575760408051916108d88284611f16565b60058352640352e302e360dc1b6020840152815192839160208352815191826020850152815b83811061091b575050828201840152601f01601f19168101030190f35b6020828201810151888301880152879550016108fe565b5034610157578060031936011261015757602090604051908152f35b503461015757604036600319011261015757604061096a611e83565b916004358152600080516020613823833981519152602052209060018060a01b0316600052602052602060ff604060002054166040519015158152f35b50346101575780600319360112610157576109c06123dc565b6000805160206138438339815191525460ff8116610a1d5760019060ff191617600080516020613843833981519152557f62e78cea01bee320cd4e420270b5ea74000d11b0c9f74754ebdbfc544b05a2586020604051338152a180f35b63d93c066560e01b8252600482fd5b50346101575780600319360112610157576001546040516001600160a01b039091168152602090f35b503461015757602036600319011261015757610a6f611e99565b610a776123dc565b6001600160a01b03168015610a9d57600180546001600160a01b03191691909117905580f35b6343b70e1d60e11b8252600482fd5b5034610157578060031936011261015757602060ff60008051602061384383398151915254166040519015158152f35b5034610157578060031936011261015757602060405160018152f35b50346101575780600319360112610157577f00000000000000000000000000000000000000000000000000000000000000006001600160a01b03163003610b515760206040516000805160206138038339815191528152f35b63703e46dd60e11b8152600490fd5b50604036600319011261015757610b75611e99565b602435906001600160401b03821161043a573660238301121561043a5781600401359083610ba283611f39565b93610bb06040519586611f16565b8385526020850193366024828401011161043a57806024602093018637850101526001600160a01b037f000000000000000000000000000000000000000000000000000000000000000016308114908115610da1575b50610d925783805260008051602061382383398151915260209081526040808620336000908152925290205460ff1615610d7a576040516352d1902d60e01b81526001600160a01b0382169390602081600481885afa869181610d42575b50610c7d57634c9c8ce360e01b86526004859052602486fd5b9384600080516020613803833981519152879603610d305750823b15610d1e5760008051602061380383398151915280546001600160a01b031916821790558491907fbc7cd75a20ee27fd9adebab32041f755214dbc6bffa90cc0225b39da2e5c2d3b8380a2805115610d03576101b59382915190845af4610cfd61235b565b91613752565b5050505034610d0f5780f35b63b398979f60e01b8152600490fd5b634c9c8ce360e01b8552600452602484fd5b632a87526960e21b8652600452602485fd5b9091506020813d602011610d72575b81610d5e60209383611f16565b81010312610d6e57519038610c64565b8680fd5b3d9150610d51565b63e2517d3f60e01b8452336004526024849052604484fd5b63703e46dd60e11b8452600484fd5b600080516020613803833981519152546001600160a01b03161415905038610c06565b5034610157578060031936011261015757610ddd6123dc565b6000805160206138438339815191525460ff811615610e375760ff1916600080516020613843833981519152557f5db9ee0a495bf2e6ff9c91a7834c1ba4fdd244a5e8aa4e537bd38aeae4b073aa6020604051338152a180f35b638dfc202b60e01b8252600482fd5b503461015757602036600319011261015757610e60611e99565b610e686123dc565b6001600160a01b03168015610a9d5781546001600160a01b03191617815580f35b503461015757604036600319011261015757610ea3611e83565b336001600160a01b03821603610ebf576101b59060043561260d565b63334bd91960e11b8252600482fd5b5034610157576040366003190112610157576101b5600435610eee611e83565b90610efb6101ab82611f54565b612576565b5060a03660031901126101575760026000805160206138638339815191525414611db55760026000805160206138638339815191525534156108a9576024359068056bc75e2d631000008211611da65768056bc75e2d6310000060443511611d97576001600160a01b03610f72611f75565b1615611d88576001600160a01b03610f88611f8b565b1615611d885760018060a01b0360015416906004356040519163133f757160e31b835281600484015261018083602481875afa9283156117d5578182918395611d56575b5082546040516377bd66b560e01b815290602090829060049082906001600160a01b03165afa908115610880578491611d37575b506001600160a01b0382811691169081149081908115611d24575b5015611d1557916110419168056bc75e2d6310000093600014611d0d5750965b346120a1565b046101005261010051156108a95761105c61010051346120ca565b6040519461106986611eaf565b81865282602087015260018060a01b038716604087015262ffffff851660608701526080860193604435855260a08701528115611cfe5760208601516001600160a01b031615611cd4575b61018060a087015160246040518094819363133f757160e31b835260048301525afa90811561191b5783908492611c9e575b506110f36110f9916126ad565b916126ad565b90611166875160018060a01b0360208a01511660018060a01b0360408b01511662ffffff60608c015116908951926040519461113486611ee0565b855260208501526040840152606083015260808201526001600160a01b0383811660a0830152841660c0820152612a32565b610120819052606001516001600160801b031615611c8f578391849561012051519081611bcf575b505061012051518303611bc05784546040516377bd66b560e01b8152929190602090849060049082906001600160a01b03165afa928315611bb5578693611b94575b5060208901516001600160a01b031680611b8e57506001600160a01b038316965b60408a01516001600160a01b031680611b8457506001600160a01b0384169461121c905b8b516120ca565b60208b01519091906001600160a01b031615611b36575b6001600160a01b03868116908a161015611b2f5788905b6001600160a01b03878116908b161015611b285786925b6101408a90526001600160a01b03888116908c161015611b1e5780610140525b60c08a90526001600160a01b03888116908c161015611b15575060c0525b6040516370a0823160e01b81523060048201526020816024816001600160a01b0386165afa908115610792578991611ae3575b506040516370a0823160e01b8152306004820152906020826024816001600160a01b0388165afa918215611ad857908a9392918492611a98575b50916113396113699261132c602095610140518561014051831015612239565b60c0518781831015612239565b60015460405163095ea7b360e01b815261014051909586948593919284926001600160a01b031660048401612272565b03926001600160a01b03165af180156107ce5790889291611a50575b5060015460405163095ea7b360e01b815260c05190936020938593909284929183916113bd916001600160a01b031660048401612272565b03926001600160a01b03165af180156119ef57611a19575b50855460608a0151604051630b4c774160e11b81529160209183916001600160a01b031690829081906114129062ffffff168b8f6004850161214e565b03915afa9081156119ef576004929160e09189916119fa575b50604051633850c7bd831b815293849182906001600160a01b03165afa9182156119ef579161148c939161146f9389926119b8575b5060c05192610140519261339a565b61012051606001516001600160801b039081169082168114612301565b60018060a01b0360015416606060a060c4818b0151604051906114ae82611eaf565b815261014051602082015260c05160408201528884820152886080820152428382015288604051958694859363219f5d1760e01b855280516004860152602081015160248601526040810151604486015287810151606486015260808101516084860152015160a48401525af19081156119ad578560a0528560e0528591611959575b506001600160a01b0383811690871610156119455761155560e051610140516120ca565b9586935b6001600160a01b039081169116101561192f576115789060c0516120ca565b965b610120516060015160a05161159e916001600160801b039081169082168114612301565b6115bf83602061012051015160018060a01b0360208501511681831461232f565b6115e088604061012051015160018060a01b0360408501511681831461232f565b602001516001600160a01b03161580611926575b6118b9575b50611603916120ca565b928261189a575b846117e2575b8154611689949392916040916001600160a01b031661162d611f75565b62ffffff84519361163d85611eaf565b8685526001600160a01b038c8116602087015291168585015216606083015261010051608083015260443560a08301528251635ad08fe560e11b815296879283918291600483016120ed565b039161010051905af19384156117d55781946117a1575b506116ae81610100516120ca565b9283611792575b6116bf8282612141565b936116d3816116ce8688612141565b612141565b340361176e5750949593946106fb946001600160a01b036116f2611f75565b1691604051938452876020850152604084015260018060801b0360a0511660608401528360808401528760a084015260018060a01b0316917f3c5d8e2b4dedd285c347941d3f9f922359ba9821c0db27bbd73c8d2090191e4e60c03392a460016000805160206138638339815191525560405194859485611e67565b6040516318a91f2160e01b815290819061178e9086883460048601611e67565b0390fd5b61179c843361238b565b6116b5565b90506117c691935060403d6040116117ce575b6117be8183611f16565b8101906120d7565b9290386116a0565b503d6117b4565b50604051903d90823e3d90fd5b61184782806117ef611f8b565b604051611820816118128c602083019563a9059cbb60e01b875260248401612272565b03601f198101835282611f16565b5190826001600160a01b038c165af161183761235b565b906001600160a01b038916613752565b8051908115159182611877575b50501561161057635274afe760e01b82526001600160a01b038616600452602482fd5b819250906020918101031261043a5760206118929101612265565b153880611854565b6118b4836001600160a01b036118ae611f8b565b1661238b565b61160a565b6001600160a01b03169050803b1561043a57828091602460405180948193632e1a7d4d60e01b83528960048401525af1801561191b57849184916118fe575b506115f9565b8192509061190b91611f16565b611917578282386118f8565b5080fd5b6040513d85823e3d90fd5b508115156115f4565b5061193f60e051610140516120ca565b9661157a565b6119518160c0516120ca565b958693611559565b90506060813d6060116119a5575b8161197460609383611f16565b810103126119a15761198581611fc3565b6040602083015192015160805260a05260e05260805138611531565b8480fd5b3d9150611967565b6040513d87823e3d90fd5b6119db91925060e03d60e0116119e8575b6119d38183611f16565b81019061229c565b5050505050509038611460565b503d6119c9565b6040513d89823e3d90fd5b611a13915060203d6020116107c7576107b88183611f16565b3861142b565b6020813d602011611a48575b81611a3260209383611f16565b81010312610d6e57611a4390612265565b6113d5565b3d9150611a25565b9091506020813d602011611a90575b81611a6c60209383611f16565b81010312611a8c576113bd8892611a84602093612265565b509150611385565b8780fd5b3d9150611a5f565b92935090506020823d602011611ad0575b81611ab660209383611f16565b81010312611acb57905189929161133961130c565b600080fd5b3d9150611aa9565b6040513d8c823e3d90fd5b90506020813d602011611b0d575b81611afe60209383611f16565b81010312611acb5751386112d2565b3d9150611af1565b60c0525061129f565b8161014052611281565b8992611261565b859061124a565b6001600160a01b038516803b1561078657888391600460405180948193630d0e30db60e41b83525af1801561079257611b70575b50611233565b88611b7d91999299611f16565b9638611b6a565b61121c9095611215565b966111f1565b611bae91935060203d6020116107c7576107b88183611f16565b91386111d0565b6040513d88823e3d90fd5b630be69f0160e41b8552600485fd5b865460208b01516040808d015160608e015194518251969c509698509095611c4d956001600160a01b03948516959094919362ffffff9091169282169116611c1685611eaf565b845260208401528583015230606083015289608083015260a08201528351988980948193635ad08fe560e11b8352600483016120ed565b03925af180156108805784958591611c6a575b509491388061118e565b9050611c8691955060403d6040116117ce576117be8183611f16565b94909438611c60565b63439f137760e11b8452600484fd5b6110f392506110f99150611cc0906101803d8111610879576108598183611f16565b5050505050979550935050505091506110e6565b8551803410611ce357506110b4565b6349c05bd360e11b8452600484905260245234604452606483fd5b630cdbe5ed60e11b8352600483fd5b90509661103b565b630b9b5c2560e21b8452600484fd5b6001600160a01b0385161490503861101b565b611d50915060203d6020116107c7576107b88183611f16565b38611000565b915050611d739193506101803d8111610879576108598183611f16565b50505050505050925094925093909338610fcc565b6343b70e1d60e11b8152600490fd5b63fc46777360e01b8152600490fd5b633de9f84960e01b8152600490fd5b633ee5aeb560e01b8152600490fd5b5034610157576020366003190112610157576020611de3600435611f54565b604051908152f35b5034610157578060031936011261015757546040516001600160a01b039091168152602090f35b9050346119175760203660031901126119175760043563ffffffff60e01b811680910361043a5760209250637965db0b60e01b8114908115611e56575b5015158152f35b6301ffc9a760e01b14905038611e4f565b9094939260609260808301968352602083015260408201520152565b602435906001600160a01b0382168203611acb57565b600435906001600160a01b0382168203611acb57565b60c081019081106001600160401b03821117611eca57604052565b634e487b7160e01b600052604160045260246000fd5b60e081019081106001600160401b03821117611eca57604052565b60a081019081106001600160401b03821117611eca57604052565b601f909101601f19168101906001600160401b03821190821017611eca57604052565b6001600160401b038111611eca57601f01601f191660200190565b60005260008051602061382383398151915260205260016040600020015490565b6064356001600160a01b0381168103611acb5790565b6084356001600160a01b0381168103611acb5790565b51906001600160a01b0382168203611acb57565b51908160020b8203611acb57565b51906001600160801b0382168203611acb57565b919082610180910312611acb5781516001600160601b0381168103611acb579161200360208201611fa1565b9161201060408301611fa1565b9161201d60608201611fa1565b91608082015162ffffff81168103611acb579161203c60a08201611fb5565b9161204960c08301611fb5565b9161205660e08201611fc3565b91610100820151916101208101519161207f6101606120786101408501611fc3565b9301611fc3565b90565b90816020910312611acb57516001600160a01b0381168103611acb5790565b818102929181159184041417156120b457565b634e487b7160e01b600052601160045260246000fd5b919082039182116120b457565b9190826040910312611acb576020825192015190565b81516001600160a01b03908116825260208084015182169083015260408084015162ffffff1690830152606080840151909116908201526080808301519082015260a0918201519181019190915260c00190565b919082018092116120b457565b6001600160a01b0391821681529116602082015262ffffff909116604082015260600190565b908160c0910312611acb576121ca60a06040519261219184611eaf565b805184526020810151602085015260408101516040850152606081015160608501526121bf60808201611fa1565b608085015201611fa1565b60a082015290565b81516001600160a01b03908116825260208084015182169083015260408084015162ffffff1690830152606080840151908301526080808401519091169082015260a0808301516001600160801b03169082015260c0918201519181019190915260e00190565b1561224357505050565b6349c05bd360e11b60005260018060a01b031660045260245260445260646000fd5b51908115158203611acb57565b6001600160a01b039091168152602081019190915260400190565b519061ffff82168203611acb57565b908160e0910312611acb576122b081611fa1565b916122bd60208301611fb5565b916122ca6040820161228d565b916122d76060830161228d565b916122e46080820161228d565b9160a082015160ff81168103611acb5760c061207f919301612265565b1561230a575050565b63cecb194b60e01b60009081526001600160801b039182166004529116602452604490fd5b1561233957505050565b633bd9e3a560e11b60005260018060a01b031660045260245260445260646000fd5b3d15612386573d9061236c82611f39565b9161237a6040519384611f16565b82523d6000602084013e565b606090565b8147106123c7576000918291829182916001600160a01b03165af16123ae61235b565b50156123b657565b630a12f52160e11b60005260046000fd5b63cd78605960e01b6000523060045260246000fd5b3360009081526000805160206137c3833981519152602052604090205460ff161561240357565b63e2517d3f60e01b600052336004526000805160206138a383398151915260245260446000fd5b60008181526000805160206138238339815191526020908152604080832033845290915290205460ff161561245c5750565b63e2517d3f60e01b6000523360045260245260446000fd5b6001600160a01b03811660009081526000805160206137e3833981519152602052604090205460ff166124ea576001600160a01b031660008181526000805160206137e383398151915260205260408120805460ff191660011790553391906000805160206137a38339815191528180a4600190565b50600090565b6001600160a01b03811660009081526000805160206137c3833981519152602052604090205460ff166124ea576001600160a01b031660008181526000805160206137c383398151915260205260408120805460ff191660011790553391906000805160206138a3833981519152906000805160206137a38339815191529080a4600190565b6000818152600080516020613823833981519152602090815260408083206001600160a01b038616845290915290205460ff16612606576000818152600080516020613823833981519152602090815260408083206001600160a01b0395909516808452949091528120805460ff19166001179055339291906000805160206137a38339815191529080a4600190565b5050600090565b6000818152600080516020613823833981519152602090815260408083206001600160a01b038616845290915290205460ff1615612606576000818152600080516020613823833981519152602090815260408083206001600160a01b0395909516808452949091528120805460ff19169055339291907ff6391f5c32d9c69d2a47ea670b442974b53935d1edc7fd64eb21e047a839171b9080a4600190565b60020b6000811215612a2c5780600003905b620d89e88211612a1b576001821615612a11576ffffcb933bd6fad37aa2d162d1a5940015b6001600160881b031691600281166129f5575b600481166129d9575b600881166129bd575b601081166129a1575b60208116612985575b60408116612969575b6080811661294d575b6101008116612931575b6102008116612915575b61040081166128f9575b61080081166128dd575b61100081166128c1575b61200081166128a5575b6140008116612889575b618000811661286d575b620100008116612851575b620200008116612836575b62040000811661281b575b6208000016612802575b6000126127dd575b63ffffffff81166127d5576000905b60201c60ff91909116016001600160a01b031690565b6001906127bf565b80156127ec57600019046127b0565b634e487b7160e01b600052601260045260246000fd5b6b048a170391f7dc42444e8fa290910260801c906127a8565b6d2216e584f5fa1ea926041bedfe9890920260801c9161279e565b916e5d6af8dedb81196699c329225ee6040260801c91612793565b916f09aa508b5b7a84e1c677de54f3e99bc90260801c91612788565b916f31be135f97d08fd981231505542fcfa60260801c9161277d565b916f70d869a156d2a1b890bb3df62baf32f70260801c91612773565b916fa9f746462d870fdf8a65dc1f90e061e50260801c91612769565b916fd097f3bdfd2022b8845ad8f792aa58250260801c9161275f565b916fe7159475a2c29b7443b29c7fa6e889d90260801c91612755565b916ff3392b0822b70005940c7a398e4b70f30260801c9161274b565b916ff987a7253ac413176f2b074cf7815e540260801c91612741565b916ffcbe86c7900a88aedcffc83b479aa3a40260801c91612737565b916ffe5dee046a99a2a811c461f1969c30530260801c9161272d565b916fff2ea16466c96a3843ec78b326b528610260801c91612724565b916fff973b41fa98c081472e6896dfb254c00260801c9161271b565b916fffcb9843d60f6159c9db58835c9266440260801c91612712565b916fffe5caca7e10e4e61c3624eaa0941cd00260801c91612709565b916ffff2e50f5f656932ef12357cf3c7fdcc0260801c91612700565b916ffff97272373d413259a46990580e213a0260801c916126f7565b600160801b6126e4565b6315e4079d60e11b60005260046000fd5b806126bf565b90604051612a3f81611efb565b600081526000602082015260006040820152600060608201526000608082015291805115613389576040810180519091906001600160a01b0316156133785760a08101805160c0830180519293909290916001600160a01b03908116911610613367576000546040516377bd66b560e01b81526001600160a01b039091169390602081600481885afa908115612e6c57600091613348575b5060208301516001600160a01b03168061334257506001600160a01b038116955b516001600160a01b03168061333a57506001600160a01b0316915b612b446020606083019662ffffff88511690868a60405195869485938493630b4c774160e11b85526004850161214e565b03915afa908115612e6c5760009161331b575b50604051633850c7bd60e01b8152936001600160a01b0391909116919060e085600481865afa928315612e6c576004956000946132f1575b5060209060405196878092630d34328160e11b82525afa948515612e6c576000956132b5575b5083516001600160a01b0391821698821689811096909560009590939192908216911680821115806132ae575b61327c575087516001600160a01b03168082101580613274575b613209575060018451998697879c889c5b808510612e78575b8414612d25575b50509351985160009a8b9a6001600160a01b0392831696509091169350915050828211612d16576001600160a01b03811697828911612cd7575050612c62918491613489565b9485925b6001600160801b031660608b015260808a0152828952858415612cc25750612c9792612c9291516120ca565b6120ca565b602087015215612cb25750612cab916120ca565b6040830152565b9050612cbd916120ca565b612cab565b9150612cd292612c9291516120ca565b612c97565b859950838994929996939610600014612d08575090612cfa81612d02938a613489565b97889561355a565b96612c66565b975090612d0291889561355a565b631e3fc6ff60e11b8952600489fd5b60009560c095612d969562ffffff60018060a01b038a541696511660808c01519460405196612d5388611ee0565b8752602087015260408601526060850152608084015260018060801b031660a083015284820152604051948580948193636240e8c760e01b8352600483016121d2565b03925af1908115612e6c57600091612e4d575b508515612e4257612dc083516040830151906120ca565b905b8615612e2a57612df260608201515b608083015185518b516001600160a01b03928316969290811691168661339a565b6001600160801b0386811690821611612e0e575b808080612c1c565b60408201516060909201519a5091985094509250388080612e06565b612df2612e3d85516040840151906120ca565b612dd1565b606081015190612dc2565b612e66915060c03d60c01161072d5761071e8183611f16565b38612da9565b6040513d6000823e3d90fd5b6000612e90612e8787846120ca565b60011c87612141565b60c0612f0160018060a01b038454168d608062ffffff8b511691015160405191612eb983611ee0565b8a835289602084015260408301528560608301528c60808301528d60018060801b031660a083015284820152604051958680948193636240e8c760e01b8352600483016121d2565b03925af1908115612e6c578f938f948c946000946131e9575b5085156131de578d612f3281516040870151906120ca565b905b87156131c957506060850151915b60808601805188519198916001600160a01b03918216911680821161303c575050519051612f7d93506001600160a01b03908116911661342e565b9415612fca5750925b6001600160801b038d811690821611612fa2575b505050612c0d565b939b509b509e509c5097606060408b01519a01519d60018060a01b039051169c388080612f9a565b835160a0840151959991956001600160a01b0391821691168114612ffb575050600181018091116120b45796612f86565b909890935090506001600160801b038d81169082161161301e575b505050612c15565b939b509b509e509c5097606060408b01519a01519d9c388080613016565b8351949592949293926001600160a01b0316908183101561317f575050885191516001600160a01b039283169561308c949387935061307c92168361342e565b93516001600160a01b0316613529565b6001600160801b0382811693919081168085101561310c5750505080966000146130b95750505092612f86565b855160a0860151979b93976001600160a01b0391821693911683146130ed5750505050600181018091116120b45796612f86565b929a5090945091506001600160801b038e161061301e57505050612c15565b989c949891939092908281111561315d575050819b6000146131515760a08601516001600160a01b031683146130ed5750505050600181018091116120b45796612f86565b50505097935092612f86565b949c5092965091935050506001600160801b038e161061301e57505050612c15565b919550915061319293509c94989c613529565b99156131bf5760a08401516001600160a01b03168114612ffb575050600181018091116120b45796612f86565b5097935092612f86565b5160408601516131d8916120ca565b91612f42565b60608401518e612f34565b61320291945060c03d811161072d5761071e8183611f16565b9238612f1a565b9850985050919798509250613243935061323c915060018060a01b0390511661323483518683613529565b94859161355a565b90516120ca565b926040519361325185611efb565b818552602085015260408401526001600160801b03166060830152608082015290565b508715612bfc565b98509850505092509596505061323c6132439260018060a01b03905116936132a68351868361342e565b948591613489565b5087612be2565b9094506020813d6020116132e9575b816132d160209383611f16565b81010312611acb576132e290611fc3565b9338612bb5565b3d91506132c4565b602091945061330e9060e03d60e0116119e8576119d38183611f16565b5050505050509390612b8f565b613334915060203d6020116107c7576107b88183611f16565b38612b57565b905091612b13565b95612af8565b613361915060203d6020116107c7576107b88183611f16565b38612ad7565b631e3fc6ff60e11b60005260046000fd5b6343b70e1d60e11b60005260046000fd5b630cdbe5ed60e11b60005260046000fd5b936001600160a01b0383811690831611613426575b6001600160a01b038581169590831686116133d057505061207f935061342e565b919490939192906001600160a01b038216111561341a5782916133f7916133fd959461342e565b93613529565b6001600160801b038181169083161015613415575090565b905090565b91505061207f92613529565b9091906133af565b61346f92916001600160a01b0380821690831611613483575b61345d6001600160a01b038281169084166135ea565b9190036001600160a01b0316916136ca565b6001600160801b038116908103611acb5790565b90613447565b91906001600160a01b0380821690841611613523575b6001600160a01b038316928315611acb5760609290921b600160601b600160e01b0316916000916001600160a01b0380821692909103166134e18282866136ca565b93821561350f57096134fb575b5090808206151591040190565b6000198210156101575750600101386134ee565b634e487b7160e01b84526012600452602484fd5b9161349f565b61346f9291906001600160a01b0380831690821611613554575b90036001600160a01b031690613639565b90613543565b906001600160a01b03808216908316116135b6575b036001600160a01b0316906000906001600160801b0316613595600160601b84836136ca565b92600160601b91096135a5575090565b600019821015610157575060010190565b9061356f565b60ff6000805160206138838339815191525460401c16156135d957565b631afcd79f60e31b60005260046000fd5b60009190600019828209918082029384808510940393808503941461362f57600160601b8410156101575750600160601b910990828211900360a01b910360601c1790565b5050505060601c90565b600019600160601b8209918160601b918280851094039380850394146136bd5783821115611acb578190600160601b9009818060000316809204600281600302188082026002030280820260020302808202600203028082026002030280820260020302809102600203029360018380600003040190848311900302920304170290565b5080925015611acb570490565b9160001982840992828102928380861095039480860395146137445784831115611acb57829109818060000316809204600281600302188082026002030280820260020302808202600203028082026002030280820260020302809102600203029360018380600003040190848311900302920304170290565b505080925015611acb570490565b9061376757508051156123b657805190602001fd5b81511580613799575b613778575090565b639996b31560e01b60009081526001600160a01b0391909116600452602490fd5b50803b1561377056fe2f8788117e7eff1d82e926ec794901d17c78024a50270940304540a733656f0daddc3d4c084f57c5cf32364b1ec8bfe37ef7025c438343cdee471594955c845cb7db2dd08fcb62d0c9e08c51941cae53c267786a0b75803fb7960902fc8ef97d360894a13ba1a3210667c828492db98dca3e2076cc3735a920a3ca505d382bbc02dd7bc7dec4dceedda775e58dd541e08a116c6c53815c0bd028192f7b626800cd5ed15c6e187e77e9aee88184c21f4f2182ab5827cb3b7e07fbedcd63f033009b779b17422d0df92223018b32b4d1fa46e071723d6817e2486d003becc55f00f0c57e16840df040f15088dc2f81fe391c3923bec73e23a9662efc9c229c6a00339759585899103d2ace64958e37e18ccb0504652c81d4a1b8aa80fe2126ab95a2646970667358221220a48d06246361356dc48665a27610faca48afe789d4f7e5eaf26bc14274dbfaa964736f6c634300081a0033",
  "devdoc": {
    "errors": {
      "AccessControlBadConfirmation()": [
        {
          "details": "The caller of a function is not the expected one. NOTE: Don't confuse with {AccessControlUnauthorizedAccount}."
        }
      ],
      "AccessControlUnauthorizedAccount(address,bytes32)": [
        {
          "details": "The `account` is missing a role."
        }
      ],
      "AddressEmptyCode(address)": [
        {
          "details": "There's no code at `target` (it is not a contract)."
        }
      ],
      "AddressInsufficientBalance(address)": [
        {
          "details": "The ETH balance of the account is not enough to perform the operation."
        }
      ],
      "ERC1967InvalidImplementation(address)": [
        {
          "details": "The `implementation` of the proxy is invalid."
        }
      ],
      "ERC1967NonPayable()": [
        {
          "details": "An upgrade function sees `msg.value > 0` that may be lost."
        }
      ],
      "EnforcedPause()": [
        {
          "details": "The operation failed because the contract is paused."
        }
      ],
      "ExpectedPause()": [
        {
          "details": "The operation failed because the contract is not paused."
        }
      ],
      "FailedInnerCall()": [
        {
          "details": "A call to an address target failed. The target may have reverted."
        }
      ],
      "InvalidInitialization()": [
        {
          "details": "The contract is already initialized."
        }
      ],
      "NotInitializing()": [
        {
          "details": "The contract is not initializing."
        }
      ],
      "ReentrancyGuardReentrantCall()": [
        {
          "details": "Unauthorized reentrant call."
        }
      ],
      "SafeERC20FailedOperation(address)": [
        {
          "details": "An operation with an ERC20 token failed."
        }
      ],
      "UUPSUnauthorizedCallContext()": [
        {
          "details": "The call is from an unauthorized context."
        }
      ],
      "UUPSUnsupportedProxiableUUID(bytes32)": [
        {
          "details": "The storage `slot` is unsupported as a UUID."
        }
      ]
    },
    "events": {
      "Initialized(uint64)": {
        "details": "Triggered when the contract has been initialized or reinitialized."
      },
      "Paused(address)": {
        "details": "Emitted when the pause is triggered by `account`."
      },
      "RoleAdminChanged(bytes32,bytes32,bytes32)": {
        "details": "Emitted when `newAdminRole` is set as ``role``'s admin role, replacing `previousAdminRole` `DEFAULT_ADMIN_ROLE` is the starting admin for all roles, despite {RoleAdminChanged} not being emitted signaling this."
      },
      "RoleGranted(bytes32,address,address)": {
        "details": "Emitted when `account` is granted `role`. `sender` is the account that originated the contract call, an admin role bearer except when using {AccessControl-_setupRole}."
      },
      "RoleRevoked(bytes32,address,address)": {
        "details": "Emitted when `account` is revoked `role`. `sender` is the account that originated the contract call:   - if using `revokeRole`, it is the admin role bearer   - if using `renounceRole`, it is the role bearer (i.e. `account`)"
      },
      "Unpaused(address)": {
        "details": "Emitted when the pause is lifted by `account`."
      },
      "Upgraded(address)": {
        "details": "Emitted when the implementation is upgraded."
      }
    },
    "kind": "dev",
    "methods": {
      "constructor": {
        "custom:oz-upgrades-unsafe-allow": "constructor"
      },
      "getRoleAdmin(bytes32)": {
        "details": "Returns the admin role that controls `role`. See {grantRole} and {revokeRole}. To change a role's admin, use {_setRoleAdmin}."
      },
      "grantRole(bytes32,address)": {
        "details": "Grants `role` to `account`. If `account` had not been already granted `role`, emits a {RoleGranted} event. Requirements: - the caller must have ``role``'s admin role. May emit a {RoleGranted} event."
      },
      "hasRole(bytes32,address)": {
        "details": "Returns `true` if `account` has been granted `role`."
      },
      "paused()": {
        "details": "Returns true if the contract is paused, and false otherwise."
      },
      "proxiableUUID()": {
        "details": "Implementation of the ERC1822 {proxiableUUID} function. This returns the storage slot used by the implementation. It is used to validate the implementation's compatibility when performing an upgrade. IMPORTANT: A proxy pointing at a proxiable contract should not be considered proxiable itself, because this risks bricking a proxy that upgrades to it, by delegating to itself until out of gas. Thus it is critical that this function revert if invoked through a proxy. This is guaranteed by the `notDelegated` modifier."
      },
      "renounceRole(bytes32,address)": {
        "details": "Revokes `role` from the calling account. Roles are often managed via {grantRole} and {revokeRole}: this function's purpose is to provide a mechanism for accounts to lose their privileges if they are compromised (such as when a trusted device is misplaced). If the calling account had been revoked `role`, emits a {RoleRevoked} event. Requirements: - the caller must be `callerConfirmation`. May emit a {RoleRevoked} event."
      },
      "revokeRole(bytes32,address)": {
        "details": "Revokes `role` from `account`. If `account` had been granted `role`, emits a {RoleRevoked} event. Requirements: - the caller must have ``role``'s admin role. May emit a {RoleRevoked} event."
      },
      "supportsInterface(bytes4)": {
        "details": "See {IERC165-supportsInterface}."
      },
      "updatePositionManager(address)": {
        "params": {
          "newPositionManager": "The address of the new Uniswap position manager contract"
        }
      },
      "updateSwapHelper(address)": {
        "params": {
          "newSwapHelper": "The address of the new swap helper contract"
        }
      },
      "upgradeToAndCall(address,bytes)": {
        "custom:oz-upgrades-unsafe-allow-reachable": "delegatecall",
        "details": "Upgrade the implementation of the proxy to `newImplementation`, and subsequently execute the function call encoded in `data`. Calls {_authorizeUpgrade}. Emits an {Upgraded} event."
      },
      "version()": {
        "returns": {
          "_0": "The version of the contract"
        }
      }
    },
    "version": 1
  },
  "userdoc": {
    "kind": "user",
    "methods": {
      "initialize(address,address,address)": {
        "notice": "Initializes the contract"
      },
      "pause()": {
        "notice": "Pauses the contract"
      },
      "positionManager()": {
        "notice": "Returns the address of the Uniswap position manager contract"
      },
      "swapHelper()": {
        "notice": "Returns the address of the swap helper contract"
      },
      "unpause()": {
        "notice": "Unpauses the contract"
      },
      "updatePositionManager(address)": {
        "notice": "Updates the address of the Uniswap position manager contract"
      },
      "updateSwapHelper(address)": {
        "notice": "Updates the address of the swap helper contract"
      },
      "version()": {
        "notice": "Returns the current version of the contract"
      }
    },
    "version": 1
  },
  "storageLayout": {
    "storage": [
      {
        "astId": 8654,
        "contract": "contracts/dlpRewardSwap/DLPRewardSwapImplementation.sol:DLPRewardSwapImplementation",
        "label": "swapHelper",
        "offset": 0,
        "slot": "0",
        "type": "t_contract(ISwapHelper)10772"
      },
      {
        "astId": 8658,
        "contract": "contracts/dlpRewardSwap/DLPRewardSwapImplementation.sol:DLPRewardSwapImplementation",
        "label": "positionManager",
        "offset": 0,
        "slot": "1",
        "type": "t_contract(INonfungiblePositionManager)9067"
      }
    ],
    "types": {
      "t_contract(INonfungiblePositionManager)9067": {
        "encoding": "inplace",
        "label": "contract INonfungiblePositionManager",
        "numberOfBytes": "20"
      },
      "t_contract(ISwapHelper)10772": {
        "encoding": "inplace",
        "label": "contract ISwapHelper",
        "numberOfBytes": "20"
      }
    }
  }
}