{
  "address": "0xF656712CEb81FDD1Db2f81D967C1d7CA1eD1417c",
  "abi": [
    {
      "inputs": [],
      "stateMutability": "nonpayable",
      "type": "constructor"
    },
    {
      "inputs": [],
      "name": "AccessControlBadConfirmation",
      "type": "error"
    },
    {
      "inputs": [
        {
          "internalType": "address",
          "name": "account",
          "type": "address"
        },
        {
          "internalType": "bytes32",
          "name": "neededRole",
          "type": "bytes32"
        }
      ],
      "name": "AccessControlUnauthorizedAccount",
      "type": "error"
    },
    {
      "inputs": [
        {
          "internalType": "address",
          "name": "target",
          "type": "address"
        }
      ],
      "name": "AddressEmptyCode",
      "type": "error"
    },
    {
      "inputs": [],
      "name": "DlpAddressCannotBeChanged",
      "type": "error"
    },
    {
      "inputs": [],
      "name": "DlpAlreadyVerified",
      "type": "error"
    },
    {
      "inputs": [],
      "name": "DlpTokenNotSet",
      "type": "error"
    },
    {
      "inputs": [
        {
          "internalType": "address",
          "name": "implementation",
          "type": "address"
        }
      ],
      "name": "ERC1967InvalidImplementation",
      "type": "error"
    },
    {
      "inputs": [],
      "name": "ERC1967NonPayable",
      "type": "error"
    },
    {
      "inputs": [],
      "name": "EnforcedPause",
      "type": "error"
    },
    {
      "inputs": [],
      "name": "EpochDlpScoreAlreadySaved",
      "type": "error"
    },
    {
      "inputs": [],
      "name": "EpochNotEnded",
      "type": "error"
    },
    {
      "inputs": [],
      "name": "EpochRewardsAlreadyDistributed",
      "type": "error"
    },
    {
      "inputs": [],
      "name": "ExpectedPause",
      "type": "error"
    },
    {
      "inputs": [],
      "name": "FailedInnerCall",
      "type": "error"
    },
    {
      "inputs": [],
      "name": "InvalidAddress",
      "type": "error"
    },
    {
      "inputs": [],
      "name": "InvalidDepositAmount",
      "type": "error"
    },
    {
      "inputs": [],
      "name": "InvalidDlpId",
      "type": "error"
    },
    {
      "inputs": [],
      "name": "InvalidDlpStatus",
      "type": "error"
    },
    {
      "inputs": [],
      "name": "InvalidInitialization",
      "type": "error"
    },
    {
      "inputs": [],
      "name": "InvalidName",
      "type": "error"
    },
    {
      "inputs": [],
      "name": "InvalidParam",
      "type": "error"
    },
    {
      "inputs": [],
      "name": "LastEpochMustBeFinalized",
      "type": "error"
    },
    {
      "inputs": [],
      "name": "NotDlpOwner",
      "type": "error"
    },
    {
      "inputs": [],
      "name": "NotInitializing",
      "type": "error"
    },
    {
      "inputs": [],
      "name": "ReentrancyGuardReentrantCall",
      "type": "error"
    },
    {
      "inputs": [],
      "name": "TransferFailed",
      "type": "error"
    },
    {
      "inputs": [],
      "name": "UUPSUnauthorizedCallContext",
      "type": "error"
    },
    {
      "inputs": [
        {
          "internalType": "bytes32",
          "name": "slot",
          "type": "bytes32"
        }
      ],
      "name": "UUPSUnsupportedProxiableUUID",
      "type": "error"
    },
    {
      "anonymous": false,
      "inputs": [
        {
          "indexed": true,
          "internalType": "uint256",
          "name": "dlpId",
          "type": "uint256"
        },
        {
          "indexed": true,
          "internalType": "address",
          "name": "dlpAddress",
          "type": "address"
        },
        {
          "indexed": false,
          "internalType": "address",
          "name": "ownerAddress",
          "type": "address"
        },
        {
          "indexed": false,
          "internalType": "address",
          "name": "treasuryAddress",
          "type": "address"
        },
        {
          "indexed": false,
          "internalType": "string",
          "name": "name",
          "type": "string"
        },
        {
          "indexed": false,
          "internalType": "string",
          "name": "iconUrl",
          "type": "string"
        },
        {
          "indexed": false,
          "internalType": "string",
          "name": "website",
          "type": "string"
        },
        {
          "indexed": false,
          "internalType": "string",
          "name": "metadata",
          "type": "string"
        }
      ],
      "name": "DlpRegistered",
      "type": "event"
    },
    {
      "anonymous": false,
      "inputs": [
        {
          "indexed": false,
          "internalType": "uint256",
          "name": "newDlpRegistrationDepositAmount",
          "type": "uint256"
        }
      ],
      "name": "DlpRegistrationDepositAmountUpdated",
      "type": "event"
    },
    {
      "anonymous": false,
      "inputs": [
        {
          "indexed": true,
          "internalType": "uint256",
          "name": "dlpId",
          "type": "uint256"
        },
        {
          "indexed": false,
          "internalType": "enum IDLPRegistry.DlpStatus",
          "name": "newStatus",
          "type": "uint8"
        }
      ],
      "name": "DlpStatusUpdated",
      "type": "event"
    },
    {
      "anonymous": false,
      "inputs": [
        {
          "indexed": false,
          "internalType": "uint256",
          "name": "newDlpSubEligibilityThreshold",
          "type": "uint256"
        }
      ],
      "name": "DlpSubEligibilityThresholdUpdated",
      "type": "event"
    },
    {
      "anonymous": false,
      "inputs": [
        {
          "indexed": true,
          "internalType": "uint256",
          "name": "dlpId",
          "type": "uint256"
        },
        {
          "indexed": false,
          "internalType": "address",
          "name": "tokenAddress",
          "type": "address"
        }
      ],
      "name": "DlpTokenUpdated",
      "type": "event"
    },
    {
      "anonymous": false,
      "inputs": [
        {
          "indexed": true,
          "internalType": "uint256",
          "name": "dlpId",
          "type": "uint256"
        },
        {
          "indexed": true,
          "internalType": "address",
          "name": "dlpAddress",
          "type": "address"
        },
        {
          "indexed": false,
          "internalType": "address",
          "name": "ownerAddress",
          "type": "address"
        },
        {
          "indexed": false,
          "internalType": "address",
          "name": "treasuryAddress",
          "type": "address"
        },
        {
          "indexed": false,
          "internalType": "string",
          "name": "name",
          "type": "string"
        },
        {
          "indexed": false,
          "internalType": "string",
          "name": "iconUrl",
          "type": "string"
        },
        {
          "indexed": false,
          "internalType": "string",
          "name": "website",
          "type": "string"
        },
        {
          "indexed": false,
          "internalType": "string",
          "name": "metadata",
          "type": "string"
        }
      ],
      "name": "DlpUpdated",
      "type": "event"
    },
    {
      "anonymous": false,
      "inputs": [
        {
          "indexed": true,
          "internalType": "uint256",
          "name": "dlpId",
          "type": "uint256"
        },
        {
          "indexed": false,
          "internalType": "bool",
          "name": "verified",
          "type": "bool"
        }
      ],
      "name": "DlpVerificationUpdated",
      "type": "event"
    },
    {
      "anonymous": false,
      "inputs": [
        {
          "indexed": false,
          "internalType": "uint64",
          "name": "version",
          "type": "uint64"
        }
      ],
      "name": "Initialized",
      "type": "event"
    },
    {
      "anonymous": false,
      "inputs": [
        {
          "indexed": false,
          "internalType": "address",
          "name": "account",
          "type": "address"
        }
      ],
      "name": "Paused",
      "type": "event"
    },
    {
      "anonymous": false,
      "inputs": [
        {
          "indexed": true,
          "internalType": "bytes32",
          "name": "role",
          "type": "bytes32"
        },
        {
          "indexed": true,
          "internalType": "bytes32",
          "name": "previousAdminRole",
          "type": "bytes32"
        },
        {
          "indexed": true,
          "internalType": "bytes32",
          "name": "newAdminRole",
          "type": "bytes32"
        }
      ],
      "name": "RoleAdminChanged",
      "type": "event"
    },
    {
      "anonymous": false,
      "inputs": [
        {
          "indexed": true,
          "internalType": "bytes32",
          "name": "role",
          "type": "bytes32"
        },
        {
          "indexed": true,
          "internalType": "address",
          "name": "account",
          "type": "address"
        },
        {
          "indexed": true,
          "internalType": "address",
          "name": "sender",
          "type": "address"
        }
      ],
      "name": "RoleGranted",
      "type": "event"
    },
    {
      "anonymous": false,
      "inputs": [
        {
          "indexed": true,
          "internalType": "bytes32",
          "name": "role",
          "type": "bytes32"
        },
        {
          "indexed": true,
          "internalType": "address",
          "name": "account",
          "type": "address"
        },
        {
          "indexed": true,
          "internalType": "address",
          "name": "sender",
          "type": "address"
        }
      ],
      "name": "RoleRevoked",
      "type": "event"
    },
    {
      "anonymous": false,
      "inputs": [
        {
          "indexed": false,
          "internalType": "address",
          "name": "account",
          "type": "address"
        }
      ],
      "name": "Unpaused",
      "type": "event"
    },
    {
      "anonymous": false,
      "inputs": [
        {
          "indexed": true,
          "internalType": "address",
          "name": "implementation",
          "type": "address"
        }
      ],
      "name": "Upgraded",
      "type": "event"
    },
    {
      "inputs": [],
      "name": "DEFAULT_ADMIN_ROLE",
      "outputs": [
        {
          "internalType": "bytes32",
          "name": "",
          "type": "bytes32"
        }
      ],
      "stateMutability": "view",
      "type": "function"
    },
    {
      "inputs": [],
      "name": "MAINTAINER_ROLE",
      "outputs": [
        {
          "internalType": "bytes32",
          "name": "",
          "type": "bytes32"
        }
      ],
      "stateMutability": "view",
      "type": "function"
    },
    {
      "inputs": [],
      "name": "UPGRADE_INTERFACE_VERSION",
      "outputs": [
        {
          "internalType": "string",
          "name": "",
          "type": "string"
        }
      ],
      "stateMutability": "view",
      "type": "function"
    },
    {
      "inputs": [
        {
          "internalType": "uint256",
          "name": "dlpId",
          "type": "uint256"
        }
      ],
      "name": "deregisterDlp",
      "outputs": [],
      "stateMutability": "nonpayable",
      "type": "function"
    },
    {
      "inputs": [
        {
          "internalType": "address",
          "name": "dlpAddress",
          "type": "address"
        }
      ],
      "name": "dlpIds",
      "outputs": [
        {
          "internalType": "uint256",
          "name": "dlpId",
          "type": "uint256"
        }
      ],
      "stateMutability": "view",
      "type": "function"
    },
    {
      "inputs": [
        {
          "internalType": "string",
          "name": "dlpName",
          "type": "string"
        }
      ],
      "name": "dlpNameToId",
      "outputs": [
        {
          "internalType": "uint256",
          "name": "dlpId",
          "type": "uint256"
        }
      ],
      "stateMutability": "view",
      "type": "function"
    },
    {
      "inputs": [],
      "name": "dlpRegistrationDepositAmount",
      "outputs": [
        {
          "internalType": "uint256",
          "name": "",
          "type": "uint256"
        }
      ],
      "stateMutability": "view",
      "type": "function"
    },
    {
      "inputs": [
        {
          "internalType": "uint256",
          "name": "dlpId",
          "type": "uint256"
        }
      ],
      "name": "dlps",
      "outputs": [
        {
          "components": [
            {
              "internalType": "uint256",
              "name": "id",
              "type": "uint256"
            },
            {
              "internalType": "address",
              "name": "dlpAddress",
              "type": "address"
            },
            {
              "internalType": "address",
              "name": "ownerAddress",
              "type": "address"
            },
            {
              "internalType": "address",
              "name": "tokenAddress",
              "type": "address"
            },
            {
              "internalType": "address",
              "name": "treasuryAddress",
              "type": "address"
            },
            {
              "internalType": "string",
              "name": "name",
              "type": "string"
            },
            {
              "internalType": "string",
              "name": "iconUrl",
              "type": "string"
            },
            {
              "internalType": "string",
              "name": "website",
              "type": "string"
            },
            {
              "internalType": "string",
              "name": "metadata",
              "type": "string"
            },
            {
              "internalType": "uint256",
              "name": "registrationBlockNumber",
              "type": "uint256"
            },
            {
              "internalType": "uint256",
              "name": "depositAmount",
              "type": "uint256"
            },
            {
              "internalType": "enum IDLPRegistry.DlpStatus",
              "name": "status",
              "type": "uint8"
            },
            {
              "internalType": "bool",
              "name": "isVerified",
              "type": "bool"
            }
          ],
          "internalType": "struct IDLPRegistry.DlpInfo",
          "name": "",
          "type": "tuple"
        }
      ],
      "stateMutability": "view",
      "type": "function"
    },
    {
      "inputs": [
        {
          "internalType": "address",
          "name": "dlpAddress",
          "type": "address"
        }
      ],
      "name": "dlpsByAddress",
      "outputs": [
        {
          "components": [
            {
              "internalType": "uint256",
              "name": "id",
              "type": "uint256"
            },
            {
              "internalType": "address",
              "name": "dlpAddress",
              "type": "address"
            },
            {
              "internalType": "address",
              "name": "ownerAddress",
              "type": "address"
            },
            {
              "internalType": "address",
              "name": "tokenAddress",
              "type": "address"
            },
            {
              "internalType": "address",
              "name": "treasuryAddress",
              "type": "address"
            },
            {
              "internalType": "string",
              "name": "name",
              "type": "string"
            },
            {
              "internalType": "string",
              "name": "iconUrl",
              "type": "string"
            },
            {
              "internalType": "string",
              "name": "website",
              "type": "string"
            },
            {
              "internalType": "string",
              "name": "metadata",
              "type": "string"
            },
            {
              "internalType": "uint256",
              "name": "registrationBlockNumber",
              "type": "uint256"
            },
            {
              "internalType": "uint256",
              "name": "depositAmount",
              "type": "uint256"
            },
            {
              "internalType": "enum IDLPRegistry.DlpStatus",
              "name": "status",
              "type": "uint8"
            },
            {
              "internalType": "bool",
              "name": "isVerified",
              "type": "bool"
            }
          ],
          "internalType": "struct IDLPRegistry.DlpInfo",
          "name": "",
          "type": "tuple"
        }
      ],
      "stateMutability": "view",
      "type": "function"
    },
    {
      "inputs": [
        {
          "internalType": "string",
          "name": "dlpName",
          "type": "string"
        }
      ],
      "name": "dlpsByName",
      "outputs": [
        {
          "components": [
            {
              "internalType": "uint256",
              "name": "id",
              "type": "uint256"
            },
            {
              "internalType": "address",
              "name": "dlpAddress",
              "type": "address"
            },
            {
              "internalType": "address",
              "name": "ownerAddress",
              "type": "address"
            },
            {
              "internalType": "address",
              "name": "tokenAddress",
              "type": "address"
            },
            {
              "internalType": "address",
              "name": "treasuryAddress",
              "type": "address"
            },
            {
              "internalType": "string",
              "name": "name",
              "type": "string"
            },
            {
              "internalType": "string",
              "name": "iconUrl",
              "type": "string"
            },
            {
              "internalType": "string",
              "name": "website",
              "type": "string"
            },
            {
              "internalType": "string",
              "name": "metadata",
              "type": "string"
            },
            {
              "internalType": "uint256",
              "name": "registrationBlockNumber",
              "type": "uint256"
            },
            {
              "internalType": "uint256",
              "name": "depositAmount",
              "type": "uint256"
            },
            {
              "internalType": "enum IDLPRegistry.DlpStatus",
              "name": "status",
              "type": "uint8"
            },
            {
              "internalType": "bool",
              "name": "isVerified",
              "type": "bool"
            }
          ],
          "internalType": "struct IDLPRegistry.DlpInfo",
          "name": "",
          "type": "tuple"
        }
      ],
      "stateMutability": "view",
      "type": "function"
    },
    {
      "inputs": [],
      "name": "dlpsCount",
      "outputs": [
        {
          "internalType": "uint256",
          "name": "",
          "type": "uint256"
        }
      ],
      "stateMutability": "view",
      "type": "function"
    },
    {
      "inputs": [],
      "name": "eligibleDlpsLimit",
      "outputs": [
        {
          "internalType": "uint256",
          "name": "",
          "type": "uint256"
        }
      ],
      "stateMutability": "view",
      "type": "function"
    },
    {
      "inputs": [
        {
          "internalType": "uint256",
          "name": "index",
          "type": "uint256"
        }
      ],
      "name": "eligibleDlpsListAt",
      "outputs": [
        {
          "internalType": "uint256",
          "name": "",
          "type": "uint256"
        }
      ],
      "stateMutability": "view",
      "type": "function"
    },
    {
      "inputs": [],
      "name": "eligibleDlpsListCount",
      "outputs": [
        {
          "internalType": "uint256",
          "name": "",
          "type": "uint256"
        }
      ],
      "stateMutability": "view",
      "type": "function"
    },
    {
      "inputs": [],
      "name": "eligibleDlpsListValues",
      "outputs": [
        {
          "internalType": "uint256[]",
          "name": "",
          "type": "uint256[]"
        }
      ],
      "stateMutability": "view",
      "type": "function"
    },
    {
      "inputs": [
        {
          "internalType": "bytes32",
          "name": "role",
          "type": "bytes32"
        }
      ],
      "name": "getRoleAdmin",
      "outputs": [
        {
          "internalType": "bytes32",
          "name": "",
          "type": "bytes32"
        }
      ],
      "stateMutability": "view",
      "type": "function"
    },
    {
      "inputs": [
        {
          "internalType": "bytes32",
          "name": "role",
          "type": "bytes32"
        },
        {
          "internalType": "address",
          "name": "account",
          "type": "address"
        }
      ],
      "name": "grantRole",
      "outputs": [],
      "stateMutability": "nonpayable",
      "type": "function"
    },
    {
      "inputs": [
        {
          "internalType": "bytes32",
          "name": "role",
          "type": "bytes32"
        },
        {
          "internalType": "address",
          "name": "account",
          "type": "address"
        }
      ],
      "name": "hasRole",
      "outputs": [
        {
          "internalType": "bool",
          "name": "",
          "type": "bool"
        }
      ],
      "stateMutability": "view",
      "type": "function"
    },
    {
      "inputs": [
        {
          "internalType": "address",
          "name": "ownerAddress",
          "type": "address"
        }
      ],
      "name": "initialize",
      "outputs": [],
      "stateMutability": "nonpayable",
      "type": "function"
    },
    {
      "inputs": [],
      "name": "pause",
      "outputs": [],
      "stateMutability": "nonpayable",
      "type": "function"
    },
    {
      "inputs": [],
      "name": "paused",
      "outputs": [
        {
          "internalType": "bool",
          "name": "",
          "type": "bool"
        }
      ],
      "stateMutability": "view",
      "type": "function"
    },
    {
      "inputs": [],
      "name": "proxiableUUID",
      "outputs": [
        {
          "internalType": "bytes32",
          "name": "",
          "type": "bytes32"
        }
      ],
      "stateMutability": "view",
      "type": "function"
    },
    {
      "inputs": [
        {
          "components": [
            {
              "internalType": "address",
              "name": "dlpAddress",
              "type": "address"
            },
            {
              "internalType": "address",
              "name": "ownerAddress",
              "type": "address"
            },
            {
              "internalType": "address payable",
              "name": "treasuryAddress",
              "type": "address"
            },
            {
              "internalType": "string",
              "name": "name",
              "type": "string"
            },
            {
              "internalType": "string",
              "name": "iconUrl",
              "type": "string"
            },
            {
              "internalType": "string",
              "name": "website",
              "type": "string"
            },
            {
              "internalType": "string",
              "name": "metadata",
              "type": "string"
            }
          ],
          "internalType": "struct IDLPRegistry.DlpRegistration",
          "name": "registrationInfo",
          "type": "tuple"
        }
      ],
      "name": "registerDlp",
      "outputs": [],
      "stateMutability": "payable",
      "type": "function"
    },
    {
      "inputs": [
        {
          "internalType": "bytes32",
          "name": "role",
          "type": "bytes32"
        },
        {
          "internalType": "address",
          "name": "callerConfirmation",
          "type": "address"
        }
      ],
      "name": "renounceRole",
      "outputs": [],
      "stateMutability": "nonpayable",
      "type": "function"
    },
    {
      "inputs": [
        {
          "internalType": "bytes32",
          "name": "role",
          "type": "bytes32"
        },
        {
          "internalType": "address",
          "name": "account",
          "type": "address"
        }
      ],
      "name": "revokeRole",
      "outputs": [],
      "stateMutability": "nonpayable",
      "type": "function"
    },
    {
      "inputs": [
        {
          "internalType": "bytes4",
          "name": "interfaceId",
          "type": "bytes4"
        }
      ],
      "name": "supportsInterface",
      "outputs": [
        {
          "internalType": "bool",
          "name": "",
          "type": "bool"
        }
      ],
      "stateMutability": "view",
      "type": "function"
    },
    {
      "inputs": [],
      "name": "treasury",
      "outputs": [
        {
          "internalType": "contract ITreasury",
          "name": "",
          "type": "address"
        }
      ],
      "stateMutability": "view",
      "type": "function"
    },
    {
      "inputs": [],
      "name": "unpause",
      "outputs": [],
      "stateMutability": "nonpayable",
      "type": "function"
    },
    {
      "inputs": [
        {
          "internalType": "uint256",
          "name": "dlpId",
          "type": "uint256"
        },
        {
          "components": [
            {
              "internalType": "address",
              "name": "dlpAddress",
              "type": "address"
            },
            {
              "internalType": "address",
              "name": "ownerAddress",
              "type": "address"
            },
            {
              "internalType": "address payable",
              "name": "treasuryAddress",
              "type": "address"
            },
            {
              "internalType": "string",
              "name": "name",
              "type": "string"
            },
            {
              "internalType": "string",
              "name": "iconUrl",
              "type": "string"
            },
            {
              "internalType": "string",
              "name": "website",
              "type": "string"
            },
            {
              "internalType": "string",
              "name": "metadata",
              "type": "string"
            }
          ],
          "internalType": "struct IDLPRegistry.DlpRegistration",
          "name": "dlpUpdateInfo",
          "type": "tuple"
        }
      ],
      "name": "updateDlp",
      "outputs": [],
      "stateMutability": "nonpayable",
      "type": "function"
    },
    {
      "inputs": [
        {
          "internalType": "uint256",
          "name": "newDlpRegistrationDepositAmount",
          "type": "uint256"
        }
      ],
      "name": "updateDlpRegistrationDepositAmount",
      "outputs": [],
      "stateMutability": "nonpayable",
      "type": "function"
    },
    {
      "inputs": [
        {
          "internalType": "uint256",
          "name": "dlpId",
          "type": "uint256"
        },
        {
          "internalType": "address",
          "name": "tokenAddress",
          "type": "address"
        }
      ],
      "name": "updateDlpToken",
      "outputs": [],
      "stateMutability": "nonpayable",
      "type": "function"
    },
    {
      "inputs": [
        {
          "internalType": "uint256",
          "name": "dlpId",
          "type": "uint256"
        },
        {
          "internalType": "bool",
          "name": "isVerified",
          "type": "bool"
        }
      ],
      "name": "updateDlpVerification",
      "outputs": [],
      "stateMutability": "nonpayable",
      "type": "function"
    },
    {
      "inputs": [
        {
          "internalType": "address",
          "name": "treasuryAddress",
          "type": "address"
        }
      ],
      "name": "updateTreasury",
      "outputs": [],
      "stateMutability": "nonpayable",
      "type": "function"
    },
    {
      "inputs": [
        {
          "internalType": "address",
          "name": "vanaEpochAddress",
          "type": "address"
        }
      ],
      "name": "updateVanaEpoch",
      "outputs": [],
      "stateMutability": "nonpayable",
      "type": "function"
    },
    {
      "inputs": [
        {
          "internalType": "address",
          "name": "newImplementation",
          "type": "address"
        },
        {
          "internalType": "bytes",
          "name": "data",
          "type": "bytes"
        }
      ],
      "name": "upgradeToAndCall",
      "outputs": [],
      "stateMutability": "payable",
      "type": "function"
    },
    {
      "inputs": [],
      "name": "vanaEpoch",
      "outputs": [
        {
          "internalType": "contract IVanaEpoch",
          "name": "",
          "type": "address"
        }
      ],
      "stateMutability": "view",
      "type": "function"
    },
    {
      "inputs": [],
      "name": "version",
      "outputs": [
        {
          "internalType": "uint256",
          "name": "",
          "type": "uint256"
        }
      ],
      "stateMutability": "pure",
      "type": "function"
    }
  ],
  "transactionHash": "0xddf374e0b8186445121ba8a634737172453258ab20a0182a855846fafb01b680",
  "args": [],
  "numDeployments": 3,
  "solcInputHash": "bb5eb38dca2030f3b239a3c830a69969",
  "bytecode": "0x60a0604052306080523480156200001557600080fd5b506200002062000026565b620000da565b7ff0c57e16840df040f15088dc2f81fe391c3923bec73e23a9662efc9c229c6a00805468010000000000000000900460ff1615620000775760405163f92ee8a960e01b815260040160405180910390fd5b80546001600160401b0390811614620000d75780546001600160401b0319166001600160401b0390811782556040519081527fc7f505b2f371ae2175ee4913f4499e1f2633a7b5936321eed1cdaeb6115181d29060200160405180910390a15b50565b60805161318562000104600039600081816118c5015281816118ee0152611a3401526131856000f3fe6080604052600436106101aa5760003560e01c806301610230146101af57806301ffc9a7146101e557806303a229f6146102155780632393526f14610237578063248a9ca3146102655780632963d5c5146102855780632f2ff15d1461029b57806336568abe146102bd5780633f4ba83a146102dd578063439b3756146102f2578063467bb5451461031f5780634f1ef2861461033f57806352d1902d1461035257806354fd4d50146103675780635c975abb1461037b57806361d027b31461039057806368ed41ed146103b05780636d352711146103c657806373801a88146103db578063776ddebc146103fb5780637f51bb1f146104335780638456cb5914610453578063858d9d541461046857806391d14854146104885780639d4def70146104a85780639dc6fe5a146104bb5780639e8e6717146104db578063a217fddf146104f1578063ad3cb1cc14610506578063b4fcea1d14610544578063b89ac73b14610564578063c06020b014610584578063c40e30b2146105b1578063c4d66de8146105d1578063d547741f146105f1578063ea83e47b14610611578063f874225414610631575b600080fd5b3480156101bb57600080fd5b506000546101cf906001600160a01b031681565b6040516101dc91906127f2565b60405180910390f35b3480156101f157600080fd5b50610205610200366004612806565b610653565b60405190151581526020016101dc565b34801561022157600080fd5b5061022a61068a565b6040516101dc9190612830565b34801561024357600080fd5b50610257610252366004612874565b61069b565b6040519081526020016101dc565b34801561027157600080fd5b50610257610280366004612874565b6106a8565b34801561029157600080fd5b5061025760025481565b3480156102a757600080fd5b506102bb6102b63660046128a2565b6106c8565b005b3480156102c957600080fd5b506102bb6102d83660046128a2565b6106ea565b3480156102e957600080fd5b506102bb610722565b3480156102fe57600080fd5b5061031261030d3660046128d2565b610745565b6040516101dc9190612984565b34801561032b57600080fd5b506102bb61033a3660046128d2565b61076f565b6102bb61034d366004612b26565b6107aa565b34801561035e57600080fd5b506102576107c9565b34801561037357600080fd5b506001610257565b34801561038757600080fd5b506102056107e6565b34801561039c57600080fd5b506001546101cf906001600160a01b031681565b3480156103bc57600080fd5b5061025760035481565b3480156103d257600080fd5b506102576107fb565b3480156103e757600080fd5b506102bb6103f6366004612b97565b610807565b34801561040757600080fd5b50610257610416366004612bbc565b805160208183018101805160068252928201919093012091525481565b34801561043f57600080fd5b506102bb61044e3660046128d2565b61095c565b34801561045f57600080fd5b506102bb610997565b34801561047457600080fd5b506102bb6104833660046128a2565b6109b7565b34801561049457600080fd5b506102056104a33660046128a2565b610a3b565b6102bb6104b6366004612c24565b610a71565b3480156104c757600080fd5b506103126104d6366004612c58565b610aeb565b3480156104e757600080fd5b5061025760075481565b3480156104fd57600080fd5b50610257600081565b34801561051257600080fd5b50610537604051806040016040528060058152602001640352e302e360dc1b81525081565b6040516101dc9190612cc9565b34801561055057600080fd5b506102bb61055f366004612874565b610b23565b34801561057057600080fd5b506102bb61057f366004612874565b610da3565b34801561059057600080fd5b5061025761059f3660046128d2565b60056020526000908152604090205481565b3480156105bd57600080fd5b506102bb6105cc366004612cdc565b610df7565b3480156105dd57600080fd5b506102bb6105ec3660046128d2565b61123e565b3480156105fd57600080fd5b506102bb61060c3660046128a2565b611373565b34801561061d57600080fd5b5061031261062c366004612874565b61138f565b34801561063d57600080fd5b5061025760008051602061313083398151915281565b60006001600160e01b03198216637965db0b60e01b148061068457506301ffc9a760e01b6001600160e01b03198316145b92915050565b60606106966008611703565b905090565b6000610684600883611710565b6000806106b361171c565b60009384526020525050604090206001015490565b6106d1826106a8565b6106da81611740565b6106e4838361174a565b50505050565b6001600160a01b03811633146107135760405163334bd91960e11b815260040160405180910390fd5b61071d82826117eb565b505050565b60008051602061313083398151915261073a81611740565b610742611863565b50565b61074d612755565b6001600160a01b0382166000908152600560205260409020546106849061138f565b60008051602061313083398151915261078781611740565b50600080546001600160a01b0319166001600160a01b0392909216919091179055565b6107b26118ba565b6107bb82611961565b6107c5828261196c565b5050565b60006107d3611a29565b506000805160206130f083398151915290565b6000806107f1611a72565b5460ff1692915050565b60006106966008611a96565b60008051602061313083398151915261081f81611740565b600083815260046020526040812090600b82015460ff1660038111156108475761084761294c565b0361086557604051636e1ed6c560e11b815260040160405180910390fd5b6003600b82015460ff1660038111156108805761088061294c565b0361089e57604051636e1ed6c560e11b815260040160405180910390fd5b82151581600b0160019054906101000a900460ff161515036108d357604051630a24f34360e41b815260040160405180910390fd5b60038101546001600160a01b03166108fe576040516336c7e4e760e21b815260040160405180910390fd5b600b810180548415156101000261ff001990911617905560405184907fe11c4b38855d86735092f8c7e790a86765bacd0fe47618b41eb0c5142aea69c89061094b90861515815260200190565b60405180910390a26106e481611aa0565b60008051602061313083398151915261097481611740565b50600180546001600160a01b0319166001600160a01b0392909216919091179055565b6000805160206131308339815191526109af81611740565b610742611ce1565b6000805160206131308339815191526109cf81611740565b600083815260046020526040908190206003810180546001600160a01b0319166001600160a01b038616179055905184907f3f2c2e74f8183acb3a3ecca3d7993216d3026a732399784c4143f5f4b631e56a90610a2d9086906127f2565b60405180910390a250505050565b600080610a4661171c565b6000948552602090815260408086206001600160a01b03959095168652939052505090205460ff1690565b610a79611d28565b610a81611d4e565b60008054604080516376bc986960e01b815290516001600160a01b03909216926376bc98699260048084019382900301818387803b158015610ac257600080fd5b505af1158015610ad6573d6000803e3d6000fd5b50505050610ae381611d84565b61074261221d565b610af3612755565b610b1c60068484604051610b08929190612d18565b90815260200160405180910390205461138f565b9392505050565b610b2b611d28565b610b33611d4e565b60008181526004602052604090206002015481906001600160a01b03163314610b6f57604051633387d70760e01b815260040160405180910390fd5b60008054604080516376bc986960e01b815290516001600160a01b03909216926376bc98699260048084019382900301818387803b158015610bb057600080fd5b505af1158015610bc4573d6000803e3d6000fd5b5050505060008060009054906101000a90046001600160a01b03166001600160a01b031663916e1c576040518163ffffffff1660e01b8152600401602060405180830381865afa158015610c1c573d6000803e3d6000fd5b505050506040513d601f19601f82011682018060405250810190610c409190612d28565b9050600181118015610cce57506000546001600160a01b031663c6b61e4c610c69600184612d57565b6040518263ffffffff1660e01b8152600401610c8791815260200190565b608060405180830381865afa158015610ca4573d6000803e3d6000fd5b505050506040513d601f19601f82011682018060405250810190610cc89190612d6a565b60600151155b15610cec576040516319f9228360e01b815260040160405180910390fd5b600083815260046020526040812090600b82015460ff166003811115610d1457610d1461294c565b1480610d3857506003600b82015460ff166003811115610d3657610d3661294c565b145b15610d5657604051636e1ed6c560e11b815260040160405180910390fd5b600b8101805460ff19166003179055610d7060088561222e565b50836000805160206131108339815191526003604051610d909190612dd5565b60405180910390a250505061074261221d565b600080516020613130833981519152610dbb81611740565b60028290556040518281527fe082917d1df24c089c98cea7cf69a4e75e16c9832994eae12359ac6dc8f050cd9060200160405180910390a15050565b610dff611d28565b610e07611d4e565b60008281526004602052604090206002015482906001600160a01b03163314610e4357604051633387d70760e01b815260040160405180910390fd5b60008054604080516376bc986960e01b815290516001600160a01b03909216926376bc98699260048084019382900301818387803b158015610e8457600080fd5b505af1158015610e98573d6000803e3d6000fd5b5060009250610eb091505060408401602085016128d2565b6001600160a01b03161480610edd57506000610ed260608401604085016128d2565b6001600160a01b0316145b15610efb5760405163e6c4247b60e01b815260040160405180910390fd5b600083815260046020908152604090912090610f19908401846128d2565b60018201546001600160a01b03908116911614610f4957604051630cd0dd4360e11b815260040160405180910390fd5b610f5960408401602085016128d2565b6002820180546001600160a01b0319166001600160a01b0392909216919091179055610f8b60608401604085016128d2565b6004820180546001600160a01b0319166001600160a01b0392909216919091179055604051610fbe906005830190612e8a565b604051908190039020610fd46060850185612e96565b604051610fe2929190612d18565b6040518091039020146110e3576006610ffe6060850185612e96565b60405161100c929190612d18565b9081526020016040518091039020546000141580611071575061106f6110356060850185612e96565b8080601f01602080910402602001604051908101604052809392919081815260200183838082843760009201919091525061223a92505050565b155b1561108f5760405163430f13b360e01b815260040160405180910390fd5b60006006826005016040516110a49190612e8a565b908152604051908190036020019020558360066110c46060860186612e96565b6040516110d2929190612d18565b908152604051908190036020019020555b6110f06060840184612e96565b6005830191611100919083612f2b565b5061110e6080840184612e96565b600683019161111e919083612f2b565b5061112c60a0840184612e96565b600783019161113c919083612f2b565b5061114a60c0840184612e96565b600883019161115a919083612f2b565b50836005600061116d60208701876128d2565b6001600160a01b0316815260208082019290925260400160002091909155611197908401846128d2565b6001600160a01b0316847f722508f612f32b765b27ca15934c5c89806cdecd1ecd4b83631a9d12d15ddac36111d260408701602088016128d2565b6111e260608801604089016128d2565b6111ef6060890189612e96565b6111fc60808b018b612e96565b61120960a08d018d612e96565b61121660c08f018f612e96565b60405161122c9a99989796959493929190613013565b60405180910390a350506107c561221d565b6000611248612296565b805490915060ff600160401b82041615906001600160401b031660008115801561126f5750825b90506000826001600160401b0316600114801561128b5750303b155b905081158015611299575080155b156112b75760405163f92ee8a960e01b815260040160405180910390fd5b84546001600160401b031916600117855583156112e057845460ff60401b1916600160401b1785555b6112e86122ba565b6112f06122ba565b6112f86122c2565b6113006122d2565b61130b60008761174a565b506113246000805160206131308339815191528761174a565b50831561136b57845460ff60401b19168555604051600181527fc7f505b2f371ae2175ee4913f4499e1f2633a7b5936321eed1cdaeb6115181d29060200160405180910390a15b505050505050565b61137c826106a8565b61138581611740565b6106e483836117eb565b611397612755565b60008281526004602081815260408084208454825163916e1c5760e01b815292519195946001600160a01b039091169363916e1c5793808301939192908290030181865afa1580156113ed573d6000803e3d6000fd5b505050506040513d601f19601f820116820180604052508101906114119190612d28565b604080516101a0810182528454815260018501546001600160a01b039081166020830152600286015481169282019290925260038501548216606082015260048501549091166080820152600584018054929350909160a08301919061147690612de3565b80601f01602080910402602001604051908101604052809291908181526020018280546114a290612de3565b80156114ef5780601f106114c4576101008083540402835291602001916114ef565b820191906000526020600020905b8154815290600101906020018083116114d257829003601f168201915b5050505050815260200183600601805461150890612de3565b80601f016020809104026020016040519081016040528092919081815260200182805461153490612de3565b80156115815780601f1061155657610100808354040283529160200191611581565b820191906000526020600020905b81548152906001019060200180831161156457829003601f168201915b5050505050815260200183600701805461159a90612de3565b80601f01602080910402602001604051908101604052809291908181526020018280546115c690612de3565b80156116135780601f106115e857610100808354040283529160200191611613565b820191906000526020600020905b8154815290600101906020018083116115f657829003601f168201915b5050505050815260200183600801805461162c90612de3565b80601f016020809104026020016040519081016040528092919081815260200182805461165890612de3565b80156116a55780601f1061167a576101008083540402835291602001916116a5565b820191906000526020600020905b81548152906001019060200180831161168857829003601f168201915b505050918352505060098401546020820152600a8401546040820152600b84015460609091019060ff1660038111156116e0576116e061294c565b8152600b9093015460ff6101009091041615156020909301929092525092915050565b60606000610b1c836122e2565b6000610b1c838361233e565b7f02dd7bc7dec4dceedda775e58dd541e08a116c6c53815c0bd028192f7b62680090565b6107428133612368565b60008061175561171c565b90506117618484610a3b565b6117e1576000848152602082815260408083206001600160a01b03871684529091529020805460ff191660011790556117973390565b6001600160a01b0316836001600160a01b0316857f2f8788117e7eff1d82e926ec794901d17c78024a50270940304540a733656f0d60405160405180910390a46001915050610684565b6000915050610684565b6000806117f661171c565b90506118028484610a3b565b156117e1576000848152602082815260408083206001600160a01b0387168085529252808320805460ff1916905551339287917ff6391f5c32d9c69d2a47ea670b442974b53935d1edc7fd64eb21e047a839171b9190a46001915050610684565b61186b6123a1565b6000611875611a72565b805460ff1916815590507f5db9ee0a495bf2e6ff9c91a7834c1ba4fdd244a5e8aa4e537bd38aeae4b073aa335b6040516118af91906127f2565b60405180910390a150565b306001600160a01b037f000000000000000000000000000000000000000000000000000000000000000016148061194157507f00000000000000000000000000000000000000000000000000000000000000006001600160a01b03166119356000805160206130f0833981519152546001600160a01b031690565b6001600160a01b031614155b1561195f5760405163703e46dd60e11b815260040160405180910390fd5b565b60006107c581611740565b816001600160a01b03166352d1902d6040518163ffffffff1660e01b8152600401602060405180830381865afa9250505080156119c6575060408051601f3d908101601f191682019092526119c391810190612d28565b60015b6119ee5781604051634c9c8ce360e01b81526004016119e591906127f2565b60405180910390fd5b6000805160206130f08339815191528114611a1f57604051632a87526960e21b8152600481018290526024016119e5565b61071d83836123c6565b306001600160a01b037f0000000000000000000000000000000000000000000000000000000000000000161461195f5760405163703e46dd60e11b815260040160405180910390fd5b7fcd5ed15c6e187e77e9aee88184c21f4f2182ab5827cb3b7e07fbedcd63f0330090565b6000610684825490565b60008060009054906101000a90046001600160a01b03166001600160a01b031663916e1c576040518163ffffffff1660e01b8152600401602060405180830381865afa158015611af4573d6000803e3d6000fd5b505050506040513d601f19601f82011682018060405250810190611b189190612d28565b9050600181118015611ba657506000546001600160a01b031663c6b61e4c611b41600184612d57565b6040518263ffffffff1660e01b8152600401611b5f91815260200190565b608060405180830381865afa158015611b7c573d6000803e3d6000fd5b505050506040513d601f19601f82011682018060405250810190611ba09190612d6a565b60600151155b15611bc4576040516319f9228360e01b815260040160405180910390fd5b6001600b83015460ff166003811115611bdf57611bdf61294c565b03611c5957600b820154610100900460ff168015611c09575060038201546001600160a01b031615155b156107c557600b8201805460ff191660021790558154611c2b9060089061241c565b50815460405160008051602061311083398151915290611c4d90600290612dd5565b60405180910390a25050565b6002600b83015460ff166003811115611c7457611c7461294c565b036107c557600b820154610100900460ff161580611c9d575060038201546001600160a01b0316155b156107c557600b8201805460ff191660011790558154611cbf9060089061222e565b50815460405160008051602061311083398151915290611c4d90600190612dd5565b611ce9611d28565b6000611cf3611a72565b805460ff1916600117815590507f62e78cea01bee320cd4e420270b5ea74000d11b0c9f74754ebdbfc544b05a2586118a23390565b611d306107e6565b1561195f5760405163d93c066560e01b815260040160405180910390fd5b6000611d58612428565b805490915060011901611d7e57604051633ee5aeb560e01b815260040160405180910390fd5b60029055565b6000611d9660408301602084016128d2565b6001600160a01b03161480611dc357506000611db860608301604084016128d2565b6001600160a01b0316145b15611de15760405163e6c4247b60e01b815260040160405180910390fd5b60056000611df260208401846128d2565b6001600160a01b0316815260208101919091526040016000205415611e2a57604051636e1ed6c560e11b815260040160405180910390fd5b6006611e396060830183612e96565b604051611e47929190612d18565b9081526020016040518091039020546000141580611e725750611e706110356060830183612e96565b155b15611e905760405163430f13b360e01b815260040160405180910390fd5b600254341015611eb35760405163fe9ba5cd60e01b815260040160405180910390fd5b6000600360008154611ec49061308e565b918290555060008181526004602081815260408084208454825163916e1c5760e01b8152925196975090956001600160a01b039091169363916e1c579383820193909291908290030181865afa158015611f22573d6000803e3d6000fd5b505050506040513d601f19601f82011682018060405250810190611f469190612d28565b8383559050611f5860208501856128d2565b6001830180546001600160a01b0319166001600160a01b0392909216919091179055611f8a60408501602086016128d2565b6002830180546001600160a01b0319166001600160a01b0392909216919091179055611fbc60608501604086016128d2565b6004830180546001600160a01b0319166001600160a01b0392909216919091179055611feb6060850185612e96565b6005840191611ffb919083612f2b565b506120096080850185612e96565b6006840191612019919083612f2b565b5061202760a0850185612e96565b6007840191612037919083612f2b565b5061204560c0850185612e96565b6008840191612055919083612f2b565b5043600983015534600a830155600b8201805460ff19166001179055826005600061208360208801886128d2565b6001600160a01b031681526020810191909152604001600020558260066120ad6060870187612e96565b6040516120bb929190612d18565b90815260405160209181900382019020919091556120db908501856128d2565b6001600160a01b0316837f81fcb2f447f377b0f52d7c0ba6265f7369561e352e3279ac76480983f81f319c61211660408801602089016128d2565b6121266060890160408a016128d2565b61213360608a018a612e96565b61214060808c018c612e96565b61214d60a08e018e612e96565b8e8060c0019061215d9190612e96565b6040516121739a99989796959493929190613013565b60405180910390a382600080516020613110833981519152600160405161219a9190612dd5565b60405180910390a26001546040516000916001600160a01b03169034908381818185875af1925050503d80600081146121ef576040519150601f19603f3d011682016040523d82523d6000602084013e6121f4565b606091505b5050905080612216576040516312171d8360e31b815260040160405180910390fd5b5050505050565b6000612227612428565b6001905550565b6000610b1c838361244c565b60008181805b825181101561228b5782818151811061225b5761225b6130a7565b6020910101516001600160f81b031916600160fd1b14612283578161227f8161308e565b9250505b600101612240565b506003109392505050565b7ff0c57e16840df040f15088dc2f81fe391c3923bec73e23a9662efc9c229c6a0090565b61195f612535565b6122ca612535565b61195f61255a565b6122da612535565b61195f612562565b60608160000180548060200260200160405190810160405280929190818152602001828054801561233257602002820191906000526020600020905b81548152602001906001019080831161231e575b50505050509050919050565b6000826000018281548110612355576123556130a7565b9060005260206000200154905092915050565b6123728282610a3b565b6107c55760405163e2517d3f60e01b81526001600160a01b0382166004820152602481018390526044016119e5565b6123a96107e6565b61195f57604051638dfc202b60e01b815260040160405180910390fd5b6123cf8261257f565b6040516001600160a01b038316907fbc7cd75a20ee27fd9adebab32041f755214dbc6bffa90cc0225b39da2e5c2d3b90600090a28051156124145761071d82826125db565b6107c5612651565b6000610b1c8383612670565b7f9b779b17422d0df92223018b32b4d1fa46e071723d6817e2486d003becc55f0090565b600081815260018301602052604081205480156117e1576000612470600183612d57565b855490915060009061248490600190612d57565b90508082146124e95760008660000182815481106124a4576124a46130a7565b90600052602060002001549050808760000184815481106124c7576124c76130a7565b6000918252602080832090910192909255918252600188019052604090208390555b85548690806124fa576124fa6130bd565b600190038181906000526020600020016000905590558560010160008681526020019081526020016000206000905560019350505050610684565b61253d6126bf565b61195f57604051631afcd79f60e31b815260040160405180910390fd5b61221d612535565b61256a612535565b6000612574611a72565b805460ff1916905550565b806001600160a01b03163b6000036125ac5780604051634c9c8ce360e01b81526004016119e591906127f2565b6000805160206130f083398151915280546001600160a01b0319166001600160a01b0392909216919091179055565b6060600080846001600160a01b0316846040516125f891906130d3565b600060405180830381855af49150503d8060008114612633576040519150601f19603f3d011682016040523d82523d6000602084013e612638565b606091505b50915091506126488583836126d9565b95945050505050565b341561195f5760405163b398979f60e01b815260040160405180910390fd5b60008181526001830160205260408120546126b757508154600181810184556000848152602080822090930184905584548482528286019093526040902091909155610684565b506000610684565b60006126c9612296565b54600160401b900460ff16919050565b6060826126ee576126e98261272c565b610b1c565b815115801561270557506001600160a01b0384163b155b156127255783604051639996b31560e01b81526004016119e591906127f2565b5092915050565b80511561273c5780518082602001fd5b604051630a12f52160e11b815260040160405180910390fd5b604051806101a001604052806000815260200160006001600160a01b0316815260200160006001600160a01b0316815260200160006001600160a01b0316815260200160006001600160a01b03168152602001606081526020016060815260200160608152602001606081526020016000815260200160008152602001600060038111156127e5576127e561294c565b8152600060209091015290565b6001600160a01b0391909116815260200190565b60006020828403121561281857600080fd5b81356001600160e01b031981168114610b1c57600080fd5b6020808252825182820181905260009190848201906040850190845b818110156128685783518352928401929184019160010161284c565b50909695505050505050565b60006020828403121561288657600080fd5b5035919050565b6001600160a01b038116811461074257600080fd5b600080604083850312156128b557600080fd5b8235915060208301356128c78161288d565b809150509250929050565b6000602082840312156128e457600080fd5b8135610b1c8161288d565b6001600160a01b03169052565b60005b838110156129175781810151838201526020016128ff565b50506000910152565b600081518084526129388160208601602086016128fc565b601f01601f19169290920160200192915050565b634e487b7160e01b600052602160045260246000fd5b6004811061298057634e487b7160e01b600052602160045260246000fd5b9052565b6020815281516020820152600060208301516129a360408401826128ef565b5060408301516129b660608401826128ef565b5060608301516129c960808401826128ef565b5060808301516129dc60a08401826128ef565b5060a08301516101a08060c08501526129f96101c0850183612920565b915060c0850151601f19808685030160e0870152612a178483612920565b935060e08701519150610100818786030181880152612a368584612920565b945080880151925050610120818786030181880152612a558584612920565b90880151610140888101919091528801516101608089019190915288015190945091506101809050612a8981870183612962565b90950151151593019290925250919050565b634e487b7160e01b600052604160045260246000fd5b60006001600160401b0380841115612acb57612acb612a9b565b604051601f8501601f19908116603f01168101908282118183101715612af357612af3612a9b565b81604052809350858152868686011115612b0c57600080fd5b858560208301376000602087830101525050509392505050565b60008060408385031215612b3957600080fd5b8235612b448161288d565b915060208301356001600160401b03811115612b5f57600080fd5b8301601f81018513612b7057600080fd5b612b7f85823560208401612ab1565b9150509250929050565b801515811461074257600080fd5b60008060408385031215612baa57600080fd5b8235915060208301356128c781612b89565b600060208284031215612bce57600080fd5b81356001600160401b03811115612be457600080fd5b8201601f81018413612bf557600080fd5b612c0484823560208401612ab1565b949350505050565b600060e08284031215612c1e57600080fd5b50919050565b600060208284031215612c3657600080fd5b81356001600160401b03811115612c4c57600080fd5b612c0484828501612c0c565b60008060208385031215612c6b57600080fd5b82356001600160401b0380821115612c8257600080fd5b818501915085601f830112612c9657600080fd5b813581811115612ca557600080fd5b866020828501011115612cb757600080fd5b60209290920196919550909350505050565b602081526000610b1c6020830184612920565b60008060408385031215612cef57600080fd5b8235915060208301356001600160401b03811115612d0c57600080fd5b612b7f85828601612c0c565b8183823760009101908152919050565b600060208284031215612d3a57600080fd5b5051919050565b634e487b7160e01b600052601160045260246000fd5b8181038181111561068457610684612d41565b600060808284031215612d7c57600080fd5b604051608081016001600160401b0381118282101715612d9e57612d9e612a9b565b80604052508251815260208301516020820152604083015160408201526060830151612dc981612b89565b60608201529392505050565b602081016106848284612962565b600181811c90821680612df757607f821691505b602082108103612c1e57634e487b7160e01b600052602260045260246000fd5b60008154612e2481612de3565b60018281168015612e3c5760018114612e5157612e80565b60ff1984168752821515830287019450612e80565b8560005260208060002060005b85811015612e775781548a820152908401908201612e5e565b50505082870194505b5050505092915050565b6000610b1c8284612e17565b6000808335601e19843603018112612ead57600080fd5b8301803591506001600160401b03821115612ec757600080fd5b602001915036819003821315612edc57600080fd5b9250929050565b601f82111561071d576000816000526020600020601f850160051c81016020861015612f0c5750805b601f850160051c820191505b8181101561136b57828155600101612f18565b6001600160401b03831115612f4257612f42612a9b565b612f5683612f508354612de3565b83612ee3565b6000601f841160018114612f8a5760008515612f725750838201355b600019600387901b1c1916600186901b178355612216565b600083815260209020601f19861690835b82811015612fbb5786850135825560209485019460019092019101612f9b565b5086821015612fd85760001960f88860031b161c19848701351681555b505060018560011b0183555050505050565b81835281816020850137506000828201602090810191909152601f909101601f19169091010190565b6001600160a01b038b811682528a16602082015260c0604082018190526000906130409083018a8c612fea565b828103606084015261305381898b612fea565b90508281036080840152613068818789612fea565b905082810360a084015261307d818587612fea565b9d9c50505050505050505050505050565b6000600182016130a0576130a0612d41565b5060010190565b634e487b7160e01b600052603260045260246000fd5b634e487b7160e01b600052603160045260246000fd5b600082516130e58184602087016128fc565b919091019291505056fe360894a13ba1a3210667c828492db98dca3e2076cc3735a920a3ca505d382bbc77c6570970c38bcbef0f4075021f00b93c11bf5ecdb11f0a03db50dcbf584ad8339759585899103d2ace64958e37e18ccb0504652c81d4a1b8aa80fe2126ab95a2646970667358221220118a4a507833ccf6d9ea7c2c9071fe19deb7d1671c1641d70638fdec10766c2b64736f6c63430008180033",
  "devdoc": {
    "errors": {
      "AccessControlBadConfirmation()": [
        {
          "details": "The caller of a function is not the expected one. NOTE: Don't confuse with {AccessControlUnauthorizedAccount}."
        }
      ],
      "AccessControlUnauthorizedAccount(address,bytes32)": [
        {
          "details": "The `account` is missing a role."
        }
      ],
      "AddressEmptyCode(address)": [
        {
          "details": "There's no code at `target` (it is not a contract)."
        }
      ],
      "ERC1967InvalidImplementation(address)": [
        {
          "details": "The `implementation` of the proxy is invalid."
        }
      ],
      "ERC1967NonPayable()": [
        {
          "details": "An upgrade function sees `msg.value > 0` that may be lost."
        }
      ],
      "EnforcedPause()": [
        {
          "details": "The operation failed because the contract is paused."
        }
      ],
      "ExpectedPause()": [
        {
          "details": "The operation failed because the contract is not paused."
        }
      ],
      "FailedInnerCall()": [
        {
          "details": "A call to an address target failed. The target may have reverted."
        }
      ],
      "InvalidInitialization()": [
        {
          "details": "The contract is already initialized."
        }
      ],
      "NotInitializing()": [
        {
          "details": "The contract is not initializing."
        }
      ],
      "ReentrancyGuardReentrantCall()": [
        {
          "details": "Unauthorized reentrant call."
        }
      ],
      "UUPSUnauthorizedCallContext()": [
        {
          "details": "The call is from an unauthorized context."
        }
      ],
      "UUPSUnsupportedProxiableUUID(bytes32)": [
        {
          "details": "The storage `slot` is unsupported as a UUID."
        }
      ]
    },
    "events": {
      "Initialized(uint64)": {
        "details": "Triggered when the contract has been initialized or reinitialized."
      },
      "Paused(address)": {
        "details": "Emitted when the pause is triggered by `account`."
      },
      "RoleAdminChanged(bytes32,bytes32,bytes32)": {
        "details": "Emitted when `newAdminRole` is set as ``role``'s admin role, replacing `previousAdminRole` `DEFAULT_ADMIN_ROLE` is the starting admin for all roles, despite {RoleAdminChanged} not being emitted signaling this."
      },
      "RoleGranted(bytes32,address,address)": {
        "details": "Emitted when `account` is granted `role`. `sender` is the account that originated the contract call, an admin role bearer except when using {AccessControl-_setupRole}."
      },
      "RoleRevoked(bytes32,address,address)": {
        "details": "Emitted when `account` is revoked `role`. `sender` is the account that originated the contract call:   - if using `revokeRole`, it is the admin role bearer   - if using `renounceRole`, it is the role bearer (i.e. `account`)"
      },
      "Unpaused(address)": {
        "details": "Emitted when the pause is lifted by `account`."
      },
      "Upgraded(address)": {
        "details": "Emitted when the implementation is upgraded."
      }
    },
    "kind": "dev",
    "methods": {
      "constructor": {
        "custom:oz-upgrades-unsafe-allow": "constructor"
      },
      "getRoleAdmin(bytes32)": {
        "details": "Returns the admin role that controls `role`. See {grantRole} and {revokeRole}. To change a role's admin, use {_setRoleAdmin}."
      },
      "grantRole(bytes32,address)": {
        "details": "Grants `role` to `account`. If `account` had not been already granted `role`, emits a {RoleGranted} event. Requirements: - the caller must have ``role``'s admin role. May emit a {RoleGranted} event."
      },
      "hasRole(bytes32,address)": {
        "details": "Returns `true` if `account` has been granted `role`."
      },
      "paused()": {
        "details": "Returns true if the contract is paused, and false otherwise."
      },
      "proxiableUUID()": {
        "details": "Implementation of the ERC1822 {proxiableUUID} function. This returns the storage slot used by the implementation. It is used to validate the implementation's compatibility when performing an upgrade. IMPORTANT: A proxy pointing at a proxiable contract should not be considered proxiable itself, because this risks bricking a proxy that upgrades to it, by delegating to itself until out of gas. Thus it is critical that this function revert if invoked through a proxy. This is guaranteed by the `notDelegated` modifier."
      },
      "renounceRole(bytes32,address)": {
        "details": "Revokes `role` from the calling account. Roles are often managed via {grantRole} and {revokeRole}: this function's purpose is to provide a mechanism for accounts to lose their privileges if they are compromised (such as when a trusted device is misplaced). If the calling account had been revoked `role`, emits a {RoleRevoked} event. Requirements: - the caller must be `callerConfirmation`. May emit a {RoleRevoked} event."
      },
      "revokeRole(bytes32,address)": {
        "details": "Revokes `role` from `account`. If `account` had been granted `role`, emits a {RoleRevoked} event. Requirements: - the caller must have ``role``'s admin role. May emit a {RoleRevoked} event."
      },
      "supportsInterface(bytes4)": {
        "details": "See {IERC165-supportsInterface}."
      },
      "updateDlp(uint256,(address,address,address,string,string,string,string))": {
        "details": "Only DLP owner can update"
      },
      "upgradeToAndCall(address,bytes)": {
        "custom:oz-upgrades-unsafe-allow-reachable": "delegatecall",
        "details": "Upgrade the implementation of the proxy to `newImplementation`, and subsequently execute the function call encoded in `data`. Calls {_authorizeUpgrade}. Emits an {Upgraded} event."
      }
    },
    "version": 1
  },
  "userdoc": {
    "kind": "user",
    "methods": {
      "updateDlp(uint256,(address,address,address,string,string,string,string))": {
        "notice": "Updates DLP information"
      }
    },
    "version": 1
  },
  "storageLayout": {
    "storage": [
      {
        "astId": 6877,
        "contract": "contracts/dlpRegistry/DLPRegistryImplementation.sol:DLPRegistryImplementation",
        "label": "vanaEpoch",
        "offset": 0,
        "slot": "0",
        "type": "t_contract(IVanaEpoch)8126"
      },
      {
        "astId": 6881,
        "contract": "contracts/dlpRegistry/DLPRegistryImplementation.sol:DLPRegistryImplementation",
        "label": "treasury",
        "offset": 0,
        "slot": "1",
        "type": "t_contract(ITreasury)7167"
      },
      {
        "astId": 6884,
        "contract": "contracts/dlpRegistry/DLPRegistryImplementation.sol:DLPRegistryImplementation",
        "label": "dlpRegistrationDepositAmount",
        "offset": 0,
        "slot": "2",
        "type": "t_uint256"
      },
      {
        "astId": 6887,
        "contract": "contracts/dlpRegistry/DLPRegistryImplementation.sol:DLPRegistryImplementation",
        "label": "dlpsCount",
        "offset": 0,
        "slot": "3",
        "type": "t_uint256"
      },
      {
        "astId": 6892,
        "contract": "contracts/dlpRegistry/DLPRegistryImplementation.sol:DLPRegistryImplementation",
        "label": "_dlps",
        "offset": 0,
        "slot": "4",
        "type": "t_mapping(t_uint256,t_struct(Dlp)6950_storage)"
      },
      {
        "astId": 6897,
        "contract": "contracts/dlpRegistry/DLPRegistryImplementation.sol:DLPRegistryImplementation",
        "label": "dlpIds",
        "offset": 0,
        "slot": "5",
        "type": "t_mapping(t_address,t_uint256)"
      },
      {
        "astId": 6902,
        "contract": "contracts/dlpRegistry/DLPRegistryImplementation.sol:DLPRegistryImplementation",
        "label": "dlpNameToId",
        "offset": 0,
        "slot": "6",
        "type": "t_mapping(t_string_memory_ptr,t_uint256)"
      },
      {
        "astId": 6905,
        "contract": "contracts/dlpRegistry/DLPRegistryImplementation.sol:DLPRegistryImplementation",
        "label": "eligibleDlpsLimit",
        "offset": 0,
        "slot": "7",
        "type": "t_uint256"
      },
      {
        "astId": 6908,
        "contract": "contracts/dlpRegistry/DLPRegistryImplementation.sol:DLPRegistryImplementation",
        "label": "_eligibleDlpsList",
        "offset": 0,
        "slot": "8",
        "type": "t_struct(UintSet)5079_storage"
      }
    ],
    "types": {
      "t_address": {
        "encoding": "inplace",
        "label": "address",
        "numberOfBytes": "20"
      },
      "t_address_payable": {
        "encoding": "inplace",
        "label": "address payable",
        "numberOfBytes": "20"
      },
      "t_array(t_bytes32)dyn_storage": {
        "base": "t_bytes32",
        "encoding": "dynamic_array",
        "label": "bytes32[]",
        "numberOfBytes": "32"
      },
      "t_bool": {
        "encoding": "inplace",
        "label": "bool",
        "numberOfBytes": "1"
      },
      "t_bytes32": {
        "encoding": "inplace",
        "label": "bytes32",
        "numberOfBytes": "32"
      },
      "t_contract(ITreasury)7167": {
        "encoding": "inplace",
        "label": "contract ITreasury",
        "numberOfBytes": "20"
      },
      "t_contract(IVanaEpoch)8126": {
        "encoding": "inplace",
        "label": "contract IVanaEpoch",
        "numberOfBytes": "20"
      },
      "t_enum(DlpStatus)6922": {
        "encoding": "inplace",
        "label": "enum IDLPRegistry.DlpStatus",
        "numberOfBytes": "1"
      },
      "t_mapping(t_address,t_uint256)": {
        "encoding": "mapping",
        "key": "t_address",
        "label": "mapping(address => uint256)",
        "numberOfBytes": "32",
        "value": "t_uint256"
      },
      "t_mapping(t_bytes32,t_uint256)": {
        "encoding": "mapping",
        "key": "t_bytes32",
        "label": "mapping(bytes32 => uint256)",
        "numberOfBytes": "32",
        "value": "t_uint256"
      },
      "t_mapping(t_string_memory_ptr,t_uint256)": {
        "encoding": "mapping",
        "key": "t_string_memory_ptr",
        "label": "mapping(string => uint256)",
        "numberOfBytes": "32",
        "value": "t_uint256"
      },
      "t_mapping(t_uint256,t_struct(Dlp)6950_storage)": {
        "encoding": "mapping",
        "key": "t_uint256",
        "label": "mapping(uint256 => struct IDLPRegistry.Dlp)",
        "numberOfBytes": "32",
        "value": "t_struct(Dlp)6950_storage"
      },
      "t_string_memory_ptr": {
        "encoding": "bytes",
        "label": "string",
        "numberOfBytes": "32"
      },
      "t_string_storage": {
        "encoding": "bytes",
        "label": "string",
        "numberOfBytes": "32"
      },
      "t_struct(Dlp)6950_storage": {
        "encoding": "inplace",
        "label": "struct IDLPRegistry.Dlp",
        "members": [
          {
            "astId": 6924,
            "contract": "contracts/dlpRegistry/DLPRegistryImplementation.sol:DLPRegistryImplementation",
            "label": "id",
            "offset": 0,
            "slot": "0",
            "type": "t_uint256"
          },
          {
            "astId": 6926,
            "contract": "contracts/dlpRegistry/DLPRegistryImplementation.sol:DLPRegistryImplementation",
            "label": "dlpAddress",
            "offset": 0,
            "slot": "1",
            "type": "t_address"
          },
          {
            "astId": 6928,
            "contract": "contracts/dlpRegistry/DLPRegistryImplementation.sol:DLPRegistryImplementation",
            "label": "ownerAddress",
            "offset": 0,
            "slot": "2",
            "type": "t_address"
          },
          {
            "astId": 6930,
            "contract": "contracts/dlpRegistry/DLPRegistryImplementation.sol:DLPRegistryImplementation",
            "label": "tokenAddress",
            "offset": 0,
            "slot": "3",
            "type": "t_address"
          },
          {
            "astId": 6932,
            "contract": "contracts/dlpRegistry/DLPRegistryImplementation.sol:DLPRegistryImplementation",
            "label": "treasuryAddress",
            "offset": 0,
            "slot": "4",
            "type": "t_address_payable"
          },
          {
            "astId": 6934,
            "contract": "contracts/dlpRegistry/DLPRegistryImplementation.sol:DLPRegistryImplementation",
            "label": "name",
            "offset": 0,
            "slot": "5",
            "type": "t_string_storage"
          },
          {
            "astId": 6936,
            "contract": "contracts/dlpRegistry/DLPRegistryImplementation.sol:DLPRegistryImplementation",
            "label": "iconUrl",
            "offset": 0,
            "slot": "6",
            "type": "t_string_storage"
          },
          {
            "astId": 6938,
            "contract": "contracts/dlpRegistry/DLPRegistryImplementation.sol:DLPRegistryImplementation",
            "label": "website",
            "offset": 0,
            "slot": "7",
            "type": "t_string_storage"
          },
          {
            "astId": 6940,
            "contract": "contracts/dlpRegistry/DLPRegistryImplementation.sol:DLPRegistryImplementation",
            "label": "metadata",
            "offset": 0,
            "slot": "8",
            "type": "t_string_storage"
          },
          {
            "astId": 6942,
            "contract": "contracts/dlpRegistry/DLPRegistryImplementation.sol:DLPRegistryImplementation",
            "label": "registrationBlockNumber",
            "offset": 0,
            "slot": "9",
            "type": "t_uint256"
          },
          {
            "astId": 6944,
            "contract": "contracts/dlpRegistry/DLPRegistryImplementation.sol:DLPRegistryImplementation",
            "label": "depositAmount",
            "offset": 0,
            "slot": "10",
            "type": "t_uint256"
          },
          {
            "astId": 6947,
            "contract": "contracts/dlpRegistry/DLPRegistryImplementation.sol:DLPRegistryImplementation",
            "label": "status",
            "offset": 0,
            "slot": "11",
            "type": "t_enum(DlpStatus)6922"
          },
          {
            "astId": 6949,
            "contract": "contracts/dlpRegistry/DLPRegistryImplementation.sol:DLPRegistryImplementation",
            "label": "isVerified",
            "offset": 1,
            "slot": "11",
            "type": "t_bool"
          }
        ],
        "numberOfBytes": "384"
      },
      "t_struct(Set)4607_storage": {
        "encoding": "inplace",
        "label": "struct EnumerableSet.Set",
        "members": [
          {
            "astId": 4602,
            "contract": "contracts/dlpRegistry/DLPRegistryImplementation.sol:DLPRegistryImplementation",
            "label": "_values",
            "offset": 0,
            "slot": "0",
            "type": "t_array(t_bytes32)dyn_storage"
          },
          {
            "astId": 4606,
            "contract": "contracts/dlpRegistry/DLPRegistryImplementation.sol:DLPRegistryImplementation",
            "label": "_positions",
            "offset": 0,
            "slot": "1",
            "type": "t_mapping(t_bytes32,t_uint256)"
          }
        ],
        "numberOfBytes": "64"
      },
      "t_struct(UintSet)5079_storage": {
        "encoding": "inplace",
        "label": "struct EnumerableSet.UintSet",
        "members": [
          {
            "astId": 5078,
            "contract": "contracts/dlpRegistry/DLPRegistryImplementation.sol:DLPRegistryImplementation",
            "label": "_inner",
            "offset": 0,
            "slot": "0",
            "type": "t_struct(Set)4607_storage"
          }
        ],
        "numberOfBytes": "64"
      },
      "t_uint256": {
        "encoding": "inplace",
        "label": "uint256",
        "numberOfBytes": "32"
      }
    }
  }
}