{
  "address": "0x703fAc6C3455d6E65Dd179256387883B5ee24C47",
  "abi": [
    {
      "inputs": [],
      "stateMutability": "nonpayable",
      "type": "constructor"
    },
    {
      "inputs": [],
      "name": "AccessControlBadConfirmation",
      "type": "error"
    },
    {
      "inputs": [
        {
          "internalType": "address",
          "name": "account",
          "type": "address"
        },
        {
          "internalType": "bytes32",
          "name": "neededRole",
          "type": "bytes32"
        }
      ],
      "name": "AccessControlUnauthorizedAccount",
      "type": "error"
    },
    {
      "inputs": [
        {
          "internalType": "address",
          "name": "target",
          "type": "address"
        }
      ],
      "name": "AddressEmptyCode",
      "type": "error"
    },
    {
      "inputs": [
        {
          "internalType": "address",
          "name": "implementation",
          "type": "address"
        }
      ],
      "name": "ERC1967InvalidImplementation",
      "type": "error"
    },
    {
      "inputs": [],
      "name": "ERC1967NonPayable",
      "type": "error"
    },
    {
      "inputs": [],
      "name": "EnforcedPause",
      "type": "error"
    },
    {
      "inputs": [],
      "name": "EpochAlreadyFinalized",
      "type": "error"
    },
    {
      "inputs": [],
      "name": "EpochNotEnded",
      "type": "error"
    },
    {
      "inputs": [],
      "name": "EpochRewardExceeded",
      "type": "error"
    },
    {
      "inputs": [],
      "name": "EpochRewardNotDistributed",
      "type": "error"
    },
    {
      "inputs": [],
      "name": "ExpectedPause",
      "type": "error"
    },
    {
      "inputs": [],
      "name": "FailedInnerCall",
      "type": "error"
    },
    {
      "inputs": [],
      "name": "InvalidEpoch",
      "type": "error"
    },
    {
      "inputs": [],
      "name": "InvalidInitialization",
      "type": "error"
    },
    {
      "inputs": [],
      "name": "NotInitializing",
      "type": "error"
    },
    {
      "inputs": [],
      "name": "ReentrancyGuardReentrantCall",
      "type": "error"
    },
    {
      "inputs": [],
      "name": "UUPSUnauthorizedCallContext",
      "type": "error"
    },
    {
      "inputs": [
        {
          "internalType": "bytes32",
          "name": "slot",
          "type": "bytes32"
        }
      ],
      "name": "UUPSUnsupportedProxiableUUID",
      "type": "error"
    },
    {
      "anonymous": false,
      "inputs": [
        {
          "indexed": false,
          "internalType": "uint256",
          "name": "epochId",
          "type": "uint256"
        },
        {
          "indexed": false,
          "internalType": "uint256",
          "name": "startBlock",
          "type": "uint256"
        },
        {
          "indexed": false,
          "internalType": "uint256",
          "name": "endBlock",
          "type": "uint256"
        },
        {
          "indexed": false,
          "internalType": "uint256",
          "name": "rewardAmount",
          "type": "uint256"
        }
      ],
      "name": "EpochCreated",
      "type": "event"
    },
    {
      "anonymous": false,
      "inputs": [
        {
          "indexed": false,
          "internalType": "uint256",
          "name": "newDaySize",
          "type": "uint256"
        }
      ],
      "name": "EpochDayUpdated",
      "type": "event"
    },
    {
      "anonymous": false,
      "inputs": [
        {
          "indexed": false,
          "internalType": "uint256",
          "name": "epochId",
          "type": "uint256"
        },
        {
          "indexed": false,
          "internalType": "uint256",
          "name": "dlpId",
          "type": "uint256"
        },
        {
          "indexed": false,
          "internalType": "uint256",
          "name": "rewardAmount",
          "type": "uint256"
        }
      ],
      "name": "EpochDlpRewardAdded",
      "type": "event"
    },
    {
      "anonymous": false,
      "inputs": [
        {
          "indexed": false,
          "internalType": "uint256",
          "name": "epochId",
          "type": "uint256"
        }
      ],
      "name": "EpochFinalized",
      "type": "event"
    },
    {
      "anonymous": false,
      "inputs": [
        {
          "indexed": false,
          "internalType": "uint256",
          "name": "newEpochRewardAmount",
          "type": "uint256"
        }
      ],
      "name": "EpochRewardAmountUpdated",
      "type": "event"
    },
    {
      "anonymous": false,
      "inputs": [
        {
          "indexed": false,
          "internalType": "uint256",
          "name": "newEpochSize",
          "type": "uint256"
        }
      ],
      "name": "EpochSizeUpdated",
      "type": "event"
    },
    {
      "anonymous": false,
      "inputs": [
        {
          "indexed": false,
          "internalType": "uint256",
          "name": "epochId",
          "type": "uint256"
        },
        {
          "indexed": false,
          "internalType": "uint256",
          "name": "startBlock",
          "type": "uint256"
        },
        {
          "indexed": false,
          "internalType": "uint256",
          "name": "endBlock",
          "type": "uint256"
        },
        {
          "indexed": false,
          "internalType": "uint256",
          "name": "rewardAmount",
          "type": "uint256"
        }
      ],
      "name": "EpochUpdated",
      "type": "event"
    },
    {
      "anonymous": false,
      "inputs": [
        {
          "indexed": false,
          "internalType": "uint64",
          "name": "version",
          "type": "uint64"
        }
      ],
      "name": "Initialized",
      "type": "event"
    },
    {
      "anonymous": false,
      "inputs": [
        {
          "indexed": false,
          "internalType": "address",
          "name": "account",
          "type": "address"
        }
      ],
      "name": "Paused",
      "type": "event"
    },
    {
      "anonymous": false,
      "inputs": [
        {
          "indexed": true,
          "internalType": "bytes32",
          "name": "role",
          "type": "bytes32"
        },
        {
          "indexed": true,
          "internalType": "bytes32",
          "name": "previousAdminRole",
          "type": "bytes32"
        },
        {
          "indexed": true,
          "internalType": "bytes32",
          "name": "newAdminRole",
          "type": "bytes32"
        }
      ],
      "name": "RoleAdminChanged",
      "type": "event"
    },
    {
      "anonymous": false,
      "inputs": [
        {
          "indexed": true,
          "internalType": "bytes32",
          "name": "role",
          "type": "bytes32"
        },
        {
          "indexed": true,
          "internalType": "address",
          "name": "account",
          "type": "address"
        },
        {
          "indexed": true,
          "internalType": "address",
          "name": "sender",
          "type": "address"
        }
      ],
      "name": "RoleGranted",
      "type": "event"
    },
    {
      "anonymous": false,
      "inputs": [
        {
          "indexed": true,
          "internalType": "bytes32",
          "name": "role",
          "type": "bytes32"
        },
        {
          "indexed": true,
          "internalType": "address",
          "name": "account",
          "type": "address"
        },
        {
          "indexed": true,
          "internalType": "address",
          "name": "sender",
          "type": "address"
        }
      ],
      "name": "RoleRevoked",
      "type": "event"
    },
    {
      "anonymous": false,
      "inputs": [
        {
          "indexed": false,
          "internalType": "address",
          "name": "account",
          "type": "address"
        }
      ],
      "name": "Unpaused",
      "type": "event"
    },
    {
      "anonymous": false,
      "inputs": [
        {
          "indexed": true,
          "internalType": "address",
          "name": "implementation",
          "type": "address"
        }
      ],
      "name": "Upgraded",
      "type": "event"
    },
    {
      "inputs": [],
      "name": "DEFAULT_ADMIN_ROLE",
      "outputs": [
        {
          "internalType": "bytes32",
          "name": "",
          "type": "bytes32"
        }
      ],
      "stateMutability": "view",
      "type": "function"
    },
    {
      "inputs": [],
      "name": "DLP_PERFORMANCE_ROLE",
      "outputs": [
        {
          "internalType": "bytes32",
          "name": "",
          "type": "bytes32"
        }
      ],
      "stateMutability": "view",
      "type": "function"
    },
    {
      "inputs": [],
      "name": "MAINTAINER_ROLE",
      "outputs": [
        {
          "internalType": "bytes32",
          "name": "",
          "type": "bytes32"
        }
      ],
      "stateMutability": "view",
      "type": "function"
    },
    {
      "inputs": [],
      "name": "UPGRADE_INTERFACE_VERSION",
      "outputs": [
        {
          "internalType": "string",
          "name": "",
          "type": "string"
        }
      ],
      "stateMutability": "view",
      "type": "function"
    },
    {
      "inputs": [],
      "name": "createEpochs",
      "outputs": [],
      "stateMutability": "nonpayable",
      "type": "function"
    },
    {
      "inputs": [
        {
          "internalType": "uint256",
          "name": "blockNumber",
          "type": "uint256"
        }
      ],
      "name": "createEpochsUntilBlockNumber",
      "outputs": [],
      "stateMutability": "nonpayable",
      "type": "function"
    },
    {
      "inputs": [],
      "name": "daySize",
      "outputs": [
        {
          "internalType": "uint256",
          "name": "",
          "type": "uint256"
        }
      ],
      "stateMutability": "view",
      "type": "function"
    },
    {
      "inputs": [],
      "name": "dlpPerformance",
      "outputs": [
        {
          "internalType": "contract IDLPPerformance",
          "name": "",
          "type": "address"
        }
      ],
      "stateMutability": "view",
      "type": "function"
    },
    {
      "inputs": [],
      "name": "dlpRegistry",
      "outputs": [
        {
          "internalType": "contract IDLPRegistry",
          "name": "",
          "type": "address"
        }
      ],
      "stateMutability": "view",
      "type": "function"
    },
    {
      "inputs": [
        {
          "internalType": "uint256",
          "name": "epochId",
          "type": "uint256"
        }
      ],
      "name": "epochDlpIds",
      "outputs": [
        {
          "internalType": "uint256[]",
          "name": "",
          "type": "uint256[]"
        }
      ],
      "stateMutability": "view",
      "type": "function"
    },
    {
      "inputs": [
        {
          "internalType": "uint256",
          "name": "epochId",
          "type": "uint256"
        },
        {
          "internalType": "uint256",
          "name": "dlpId",
          "type": "uint256"
        }
      ],
      "name": "epochDlps",
      "outputs": [
        {
          "components": [
            {
              "internalType": "bool",
              "name": "isTopDlp",
              "type": "bool"
            },
            {
              "internalType": "uint256",
              "name": "rewardAmount",
              "type": "uint256"
            }
          ],
          "internalType": "struct IVanaEpoch.EpochDlpInfo",
          "name": "",
          "type": "tuple"
        }
      ],
      "stateMutability": "view",
      "type": "function"
    },
    {
      "inputs": [],
      "name": "epochRewardAmount",
      "outputs": [
        {
          "internalType": "uint256",
          "name": "",
          "type": "uint256"
        }
      ],
      "stateMutability": "view",
      "type": "function"
    },
    {
      "inputs": [],
      "name": "epochSize",
      "outputs": [
        {
          "internalType": "uint256",
          "name": "",
          "type": "uint256"
        }
      ],
      "stateMutability": "view",
      "type": "function"
    },
    {
      "inputs": [
        {
          "internalType": "uint256",
          "name": "epochId",
          "type": "uint256"
        }
      ],
      "name": "epochs",
      "outputs": [
        {
          "components": [
            {
              "internalType": "uint256",
              "name": "startBlock",
              "type": "uint256"
            },
            {
              "internalType": "uint256",
              "name": "endBlock",
              "type": "uint256"
            },
            {
              "internalType": "uint256",
              "name": "rewardAmount",
              "type": "uint256"
            },
            {
              "internalType": "bool",
              "name": "isFinalized",
              "type": "bool"
            }
          ],
          "internalType": "struct IVanaEpoch.EpochInfo",
          "name": "",
          "type": "tuple"
        }
      ],
      "stateMutability": "view",
      "type": "function"
    },
    {
      "inputs": [],
      "name": "epochsCount",
      "outputs": [
        {
          "internalType": "uint256",
          "name": "",
          "type": "uint256"
        }
      ],
      "stateMutability": "view",
      "type": "function"
    },
    {
      "inputs": [
        {
          "internalType": "uint256",
          "name": "epochId",
          "type": "uint256"
        }
      ],
      "name": "forceFinalizedEpoch",
      "outputs": [],
      "stateMutability": "nonpayable",
      "type": "function"
    },
    {
      "inputs": [
        {
          "internalType": "bytes32",
          "name": "role",
          "type": "bytes32"
        }
      ],
      "name": "getRoleAdmin",
      "outputs": [
        {
          "internalType": "bytes32",
          "name": "",
          "type": "bytes32"
        }
      ],
      "stateMutability": "view",
      "type": "function"
    },
    {
      "inputs": [
        {
          "internalType": "bytes32",
          "name": "role",
          "type": "bytes32"
        },
        {
          "internalType": "address",
          "name": "account",
          "type": "address"
        }
      ],
      "name": "grantRole",
      "outputs": [],
      "stateMutability": "nonpayable",
      "type": "function"
    },
    {
      "inputs": [
        {
          "internalType": "bytes32",
          "name": "role",
          "type": "bytes32"
        },
        {
          "internalType": "address",
          "name": "account",
          "type": "address"
        }
      ],
      "name": "hasRole",
      "outputs": [
        {
          "internalType": "bool",
          "name": "",
          "type": "bool"
        }
      ],
      "stateMutability": "view",
      "type": "function"
    },
    {
      "inputs": [
        {
          "components": [
            {
              "internalType": "address",
              "name": "ownerAddress",
              "type": "address"
            },
            {
              "internalType": "address",
              "name": "dlpRegistryAddress",
              "type": "address"
            },
            {
              "internalType": "uint256",
              "name": "daySize",
              "type": "uint256"
            },
            {
              "internalType": "uint256",
              "name": "epochSize",
              "type": "uint256"
            },
            {
              "internalType": "uint256",
              "name": "epochRewardAmount",
              "type": "uint256"
            }
          ],
          "internalType": "struct VanaEpochImplementation.InitializeParams",
          "name": "params",
          "type": "tuple"
        }
      ],
      "name": "initialize",
      "outputs": [],
      "stateMutability": "nonpayable",
      "type": "function"
    },
    {
      "inputs": [],
      "name": "pause",
      "outputs": [],
      "stateMutability": "nonpayable",
      "type": "function"
    },
    {
      "inputs": [],
      "name": "paused",
      "outputs": [
        {
          "internalType": "bool",
          "name": "",
          "type": "bool"
        }
      ],
      "stateMutability": "view",
      "type": "function"
    },
    {
      "inputs": [],
      "name": "proxiableUUID",
      "outputs": [
        {
          "internalType": "bytes32",
          "name": "",
          "type": "bytes32"
        }
      ],
      "stateMutability": "view",
      "type": "function"
    },
    {
      "inputs": [
        {
          "internalType": "bytes32",
          "name": "role",
          "type": "bytes32"
        },
        {
          "internalType": "address",
          "name": "callerConfirmation",
          "type": "address"
        }
      ],
      "name": "renounceRole",
      "outputs": [],
      "stateMutability": "nonpayable",
      "type": "function"
    },
    {
      "inputs": [
        {
          "internalType": "bytes32",
          "name": "role",
          "type": "bytes32"
        },
        {
          "internalType": "address",
          "name": "account",
          "type": "address"
        }
      ],
      "name": "revokeRole",
      "outputs": [],
      "stateMutability": "nonpayable",
      "type": "function"
    },
    {
      "inputs": [
        {
          "internalType": "uint256",
          "name": "epochId",
          "type": "uint256"
        },
        {
          "components": [
            {
              "internalType": "uint256",
              "name": "dlpId",
              "type": "uint256"
            },
            {
              "internalType": "uint256",
              "name": "rewardAmount",
              "type": "uint256"
            }
          ],
          "internalType": "struct IVanaEpoch.Rewards[]",
          "name": "dlpRewards",
          "type": "tuple[]"
        },
        {
          "internalType": "bool",
          "name": "finalScores",
          "type": "bool"
        }
      ],
      "name": "saveEpochDlpRewards",
      "outputs": [],
      "stateMutability": "nonpayable",
      "type": "function"
    },
    {
      "inputs": [
        {
          "internalType": "bytes4",
          "name": "interfaceId",
          "type": "bytes4"
        }
      ],
      "name": "supportsInterface",
      "outputs": [
        {
          "internalType": "bool",
          "name": "",
          "type": "bool"
        }
      ],
      "stateMutability": "view",
      "type": "function"
    },
    {
      "inputs": [],
      "name": "unpause",
      "outputs": [],
      "stateMutability": "nonpayable",
      "type": "function"
    },
    {
      "inputs": [
        {
          "internalType": "uint256",
          "name": "newDaySize",
          "type": "uint256"
        }
      ],
      "name": "updateDaySize",
      "outputs": [],
      "stateMutability": "nonpayable",
      "type": "function"
    },
    {
      "inputs": [
        {
          "internalType": "address",
          "name": "dlpPerformanceAddress",
          "type": "address"
        }
      ],
      "name": "updateDlpPerformance",
      "outputs": [],
      "stateMutability": "nonpayable",
      "type": "function"
    },
    {
      "inputs": [
        {
          "internalType": "address",
          "name": "dlpRegistryAddress",
          "type": "address"
        }
      ],
      "name": "updateDlpRegistry",
      "outputs": [],
      "stateMutability": "nonpayable",
      "type": "function"
    },
    {
      "inputs": [
        {
          "internalType": "uint256",
          "name": "epochId",
          "type": "uint256"
        },
        {
          "internalType": "uint256",
          "name": "startBlock",
          "type": "uint256"
        },
        {
          "internalType": "uint256",
          "name": "endBlock",
          "type": "uint256"
        },
        {
          "internalType": "uint256",
          "name": "rewardAmount",
          "type": "uint256"
        },
        {
          "components": [
            {
              "internalType": "uint256",
              "name": "dlpId",
              "type": "uint256"
            },
            {
              "internalType": "uint256",
              "name": "rewardAmount",
              "type": "uint256"
            }
          ],
          "internalType": "struct IVanaEpoch.Rewards[]",
          "name": "dlpRewards",
          "type": "tuple[]"
        },
        {
          "internalType": "bool",
          "name": "isFinalized",
          "type": "bool"
        }
      ],
      "name": "updateEpoch",
      "outputs": [],
      "stateMutability": "nonpayable",
      "type": "function"
    },
    {
      "inputs": [
        {
          "internalType": "uint256",
          "name": "newEpochRewardAmount",
          "type": "uint256"
        }
      ],
      "name": "updateEpochRewardAmount",
      "outputs": [],
      "stateMutability": "nonpayable",
      "type": "function"
    },
    {
      "inputs": [
        {
          "internalType": "uint256",
          "name": "newEpochSizeInDays",
          "type": "uint256"
        }
      ],
      "name": "updateEpochSize",
      "outputs": [],
      "stateMutability": "nonpayable",
      "type": "function"
    },
    {
      "inputs": [
        {
          "internalType": "address",
          "name": "newImplementation",
          "type": "address"
        },
        {
          "internalType": "bytes",
          "name": "data",
          "type": "bytes"
        }
      ],
      "name": "upgradeToAndCall",
      "outputs": [],
      "stateMutability": "payable",
      "type": "function"
    },
    {
      "inputs": [],
      "name": "version",
      "outputs": [
        {
          "internalType": "uint256",
          "name": "",
          "type": "uint256"
        }
      ],
      "stateMutability": "pure",
      "type": "function"
    }
  ],
  "transactionHash": "0xb0d839bc810d04bdec043994ddc8d0af500eaa01ec881b2d41311c57582b70b9",
  "args": [],
  "numDeployments": 2,
  "solcInputHash": "ea1c70a57263888101d7e476ad5f66ec",
  "bytecode": "0x60a06040523060805234801561001457600080fd5b5061001d610022565b6100d4565b7ff0c57e16840df040f15088dc2f81fe391c3923bec73e23a9662efc9c229c6a00805468010000000000000000900460ff16156100725760405163f92ee8a960e01b815260040160405180910390fd5b80546001600160401b03908116146100d15780546001600160401b0319166001600160401b0390811782556040519081527fc7f505b2f371ae2175ee4913f4499e1f2633a7b5936321eed1cdaeb6115181d29060200160405180910390a15b50565b6080516120ec6100fd600039600081816114010152818161142a015261156e01526120ec6000f3fe60806040526004361061019f5760003560e01c806301ffc9a7146101a45780630accc171146101d95780630c8d7fef146101fb578063132c58e91461021b5780631eb2454b1461023f578063248a9ca31461025f5780632f2ff15d1461027f578063354ffd991461029f57806336568abe146102cc5780633f4ba83a146102ec5780634a998a6f146103015780634f1ef2861461032357806352d1902d1461033657806354fd4d501461034b578063572d356e1461035f5780635c975abb146103755780635e84f8561461038a5780636b289f5b146103aa57806376bc9869146103ca57806377d3205a146103df5780637eb97e88146103ff578063806daf2e1461041f5780638456cb591461043f578063916e1c571461045457806391d148541461046a578063a217fddf1461048a578063ad3cb1cc1461049f578063b3a7b9da146104dd578063c6b61e4c1461051a578063d4e018721461056f578063d547741f1461058f578063d7033ca0146105af578063db8b3f3e146105c5578063eaeb2ec8146105e5578063f7e4ca1114610605578063f874225414610632575b600080fd5b3480156101b057600080fd5b506101c46101bf366004611af6565b610654565b60405190151581526020015b60405180910390f35b3480156101e557600080fd5b506101f96101f4366004611b20565b61068b565b005b34801561020757600080fd5b506101f9610216366004611b99565b610731565b34801561022757600080fd5b5061023160015481565b6040519081526020016101d0565b34801561024b57600080fd5b506101f961025a366004611c0d565b6109a9565b34801561026b57600080fd5b5061023161027a366004611b20565b6109e4565b34801561028b57600080fd5b506101f961029a366004611c28565b610a04565b3480156102ab57600080fd5b506006546102bf906001600160a01b031681565b6040516101d09190611c54565b3480156102d857600080fd5b506101f96102e7366004611c28565b610a20565b3480156102f857600080fd5b506101f9610a58565b34801561030d57600080fd5b5061023160008051602061205783398151915281565b6101f9610331366004611cae565b610a78565b34801561034257600080fd5b50610231610a97565b34801561035757600080fd5b506001610231565b34801561036b57600080fd5b5061023160035481565b34801561038157600080fd5b506101c4610ab4565b34801561039657600080fd5b506101f96103a5366004611c0d565b610ac9565b3480156103b657600080fd5b506101f96103c5366004611b20565b610b3e565b3480156103d657600080fd5b506101f9610b86565b3480156103eb57600080fd5b506101f96103fa366004611d57565b610ba9565b34801561040b57600080fd5b506000546102bf906001600160a01b031681565b34801561042b57600080fd5b506101f961043a366004611b20565b610d1f565b34801561044b57600080fd5b506101f9610d6c565b34801561046057600080fd5b5061023160045481565b34801561047657600080fd5b506101c4610485366004611c28565b610d8c565b34801561049657600080fd5b50610231600081565b3480156104ab57600080fd5b506104d0604051806040016040528060058152602001640352e302e360dc1b81525081565b6040516101d09190611dfc565b3480156104e957600080fd5b506104fd6104f8366004611e2f565b610dc2565b6040805182511515815260209283015192810192909252016101d0565b34801561052657600080fd5b5061053a610535366004611b20565b610e2b565b6040516101d0919081518152602080830151908201526040808301519082015260609182015115159181019190915260800190565b34801561057b57600080fd5b506101f961058a366004611b20565b610ea3565b34801561059b57600080fd5b506101f96105aa366004611c28565b610ee3565b3480156105bb57600080fd5b5061023160025481565b3480156105d157600080fd5b506101f96105e0366004611e51565b610eff565b3480156105f157600080fd5b506101f9610600366004611b20565b611096565b34801561061157600080fd5b50610625610620366004611b20565b6110c4565b6040516101d09190611ecb565b34801561063e57600080fd5b5061023160008051602061209783398151915281565b60006001600160e01b03198216637965db0b60e01b148061068557506301ffc9a760e01b6001600160e01b03198316145b92915050565b6106936110e1565b61069b611117565b6000805160206120978339815191526106b38161113d565b6106bc43611147565b60045482106106de5760405163756b785760e01b815260040160405180910390fd5b6000828152600560205260409081902060038101805460ff1916600117905590516000805160206120778339815191529061071c9085815260200190565b60405180910390a1505061072e61121c565b50565b6107396110e1565b610741611117565b6000805160206120578339815191526107598161113d565b60045485111561077c5760405163d5b25b6360e01b815260040160405180910390fd5b6004548514801561078a5750815b156107a85760405163756b785760e01b815260040160405180910390fd5b6000858152600560205260409020600381015460ff16156107dc57604051630cd9898f60e21b815260040160405180910390fd5b60005b848110156108b05760008686838181106107fb576107fb611f0e565b905060400201600001359050600087878481811061081b5761081b611f0e565b90506040020160200135905060008111156108435761083d600485018361122d565b50610852565b6108506004850183611240565b505b600082815260068501602090815260409182902083905581518b81529081018490529081018290527e6f116e3a415d0686b00188d9246501538369f01af1dc43bdf86fbed48c89f59060600160405180910390a150506001016107df565b506000805b6108c18360040161124c565b811015610925576006830160006108db6004860184611256565b81526020810191909152604001600020546108f69083611f3a565b9150826002015482111561091d5760405163d4f6240160e01b815260040160405180910390fd5b6001016108b5565b50831561099857633b9aca0082600201546109409190611f4d565b8110156109605760405163390a49e960e21b815260040160405180910390fd5b60038201805460ff191660011790556040516000805160206120778339815191529061098f9089815260200190565b60405180910390a15b5050506109a361121c565b50505050565b6000805160206120978339815191526109c18161113d565b50600080546001600160a01b0319166001600160a01b0392909216919091179055565b6000806109ef611262565b60009384526020525050604090206001015490565b610a0d826109e4565b610a168161113d565b6109a38383611286565b6001600160a01b0381163314610a495760405163334bd91960e11b815260040160405180910390fd5b610a538282611327565b505050565b600080516020612097833981519152610a708161113d565b61072e61139f565b610a806113f6565b610a898261149b565b610a9382826114a6565b5050565b6000610aa1611563565b50600080516020611ff783398151915290565b600080610abf6115ac565b5460ff1692915050565b600080516020612097833981519152610ae18161113d565b600654610b0690600080516020612057833981519152906001600160a01b0316611327565b50600680546001600160a01b0319166001600160a01b038416908117909155610a539060008051602061205783398151915290611286565b6000610b498161113d565b60018290556040518281527f2fe8cb48ce95af273ee232223c3a0fbda25a65208753e99801ce508751f2b7fb906020015b60405180910390a15050565b610b8e6110e1565b610b96611117565b610b9f43611147565b610ba761121c565b565b6000610bb36115d0565b805490915060ff600160401b82041615906001600160401b0316600081158015610bda5750825b90506000826001600160401b03166001148015610bf65750303b155b905081158015610c04575080155b15610c225760405163f92ee8a960e01b815260040160405180910390fd5b84546001600160401b03191660011785558315610c4b57845460ff60401b1916600160401b1785555b610c536115f4565b610c5b6115f4565b610c636115fc565b610c6b61160c565b6020860151600080546001600160a01b0319166001600160a01b039092169190911781556040870151600255606087015160035560808701516001558651610cb39190611286565b50610cd06000805160206120978339815191528760000151611286565b508315610d1757845460ff60401b19168555604051600181527fc7f505b2f371ae2175ee4913f4499e1f2633a7b5936321eed1cdaeb6115181d29060200160405180910390a15b505050505050565b600080516020612097833981519152610d378161113d565b60028290556040518281527f63792737c309757efad02dff578bab5f702acaba5d648620b286dd83beccb59990602001610b7a565b600080516020612097833981519152610d848161113d565b61072e61161c565b600080610d97611262565b6000948552602090815260408086206001600160a01b03959095168652939052505090205460ff1690565b604080518082019091526000808252602082015260008381526005602090815260408083208584526006810183529281902081519283018252548252805180820190915280610e146004850187611663565b151581529151602090920191909152949350505050565b610e5860405180608001604052806000815260200160008152602001600081526020016000151581525090565b506040805160808101825260008381526005602081815284832080548552600181015482860152600281015495850195909552949091529092526003015460ff161515606082015290565b6000610eae8161113d565b60038290556040518281527f3cd59cf395448ba3bfd2541dcb31ccd800b9e303281df0888a62ae5d5f673f5890602001610b7a565b610eec826109e4565b610ef58161113d565b6109a38383611327565b600080516020612097833981519152610f178161113d565b60008881526005602052604081208054909190151580610f3a5750600182015415155b80610f485750600282015415155b898355600183018990556002830188905560038301805460ff1916861515179055905060005b85811015610fe1576000878783818110610f8a57610f8a611f0e565b60400291909101359150610fa39050600485018261122d565b50878783818110610fb657610fb6611f0e565b6000938452600687016020908152604094859020919094029290920190920135905550600101610f6e565b5080611017576000805160206120178339815191528a8a8a8a60405161100a9493929190611f60565b60405180910390a1611053565b8960045410156110275760048a90555b6000805160206120378339815191528a8a8a8a60405161104a9493929190611f60565b60405180910390a15b6000805160206120178339815191528a8360000154846001015485600201546040516110829493929190611f60565b60405180910390a150505050505050505050565b61109e6110e1565b6110a6611117565b6110bc4382106110b65743611147565b81611147565b61072e61121c565b60008181526005602052604090206060906106859060040161166f565b60006110eb61167c565b80549091506001190161111157604051633ee5aeb560e01b815260040160405180910390fd5b60029055565b61111f610ab4565b15610ba75760405163d93c066560e01b815260040160405180910390fd5b61072e81336116a0565b60045460009081526005602052604090206001810154431015611168575050565b8181600101541015610a935760006005600060046000815461118990611f7b565b91905081905581526020019081526020016000209050816001015460016111b09190611f3a565b81556002546003546001916111c491611f94565b82546111d09190611f3a565b6111da9190611f4d565b6001808301829055546002830181905560045483546040516000805160206120378339815191529461120d949091611f60565b60405180910390a19050611168565b600061122661167c565b6001905550565b600061123983836116d9565b9392505050565b60006112398383611723565b6000610685825490565b6000611239838361180c565b7f02dd7bc7dec4dceedda775e58dd541e08a116c6c53815c0bd028192f7b62680090565b600080611291611262565b905061129d8484610d8c565b61131d576000848152602082815260408083206001600160a01b03871684529091529020805460ff191660011790556112d33390565b6001600160a01b0316836001600160a01b0316857f2f8788117e7eff1d82e926ec794901d17c78024a50270940304540a733656f0d60405160405180910390a46001915050610685565b6000915050610685565b600080611332611262565b905061133e8484610d8c565b1561131d576000848152602082815260408083206001600160a01b0387168085529252808320805460ff1916905551339287917ff6391f5c32d9c69d2a47ea670b442974b53935d1edc7fd64eb21e047a839171b9190a46001915050610685565b6113a7611836565b60006113b16115ac565b805460ff1916815590507f5db9ee0a495bf2e6ff9c91a7834c1ba4fdd244a5e8aa4e537bd38aeae4b073aa335b6040516113eb9190611c54565b60405180910390a150565b306001600160a01b037f000000000000000000000000000000000000000000000000000000000000000016148061147d57507f00000000000000000000000000000000000000000000000000000000000000006001600160a01b0316611471600080516020611ff7833981519152546001600160a01b031690565b6001600160a01b031614155b15610ba75760405163703e46dd60e11b815260040160405180910390fd5b6000610a938161113d565b816001600160a01b03166352d1902d6040518163ffffffff1660e01b8152600401602060405180830381865afa925050508015611500575060408051601f3d908101601f191682019092526114fd91810190611fab565b60015b6115285781604051634c9c8ce360e01b815260040161151f9190611c54565b60405180910390fd5b600080516020611ff7833981519152811461155957604051632a87526960e21b81526004810182905260240161151f565b610a53838361185b565b306001600160a01b037f00000000000000000000000000000000000000000000000000000000000000001614610ba75760405163703e46dd60e11b815260040160405180910390fd5b7fcd5ed15c6e187e77e9aee88184c21f4f2182ab5827cb3b7e07fbedcd63f0330090565b7ff0c57e16840df040f15088dc2f81fe391c3923bec73e23a9662efc9c229c6a0090565b610ba76118b1565b6116046118b1565b610ba76118d6565b6116146118b1565b610ba76118de565b611624611117565b600061162e6115ac565b805460ff1916600117815590507f62e78cea01bee320cd4e420270b5ea74000d11b0c9f74754ebdbfc544b05a2586113de3390565b600061123983836118fb565b6060600061123983611913565b7f9b779b17422d0df92223018b32b4d1fa46e071723d6817e2486d003becc55f0090565b6116aa8282610d8c565b610a935760405163e2517d3f60e01b81526001600160a01b03821660048201526024810183905260440161151f565b60006116e583836118fb565b61171b57508154600181810184556000848152602080822090930184905584548482528286019093526040902091909155610685565b506000610685565b6000818152600183016020526040812054801561131d576000611747600183611f4d565b855490915060009061175b90600190611f4d565b90508082146117c057600086600001828154811061177b5761177b611f0e565b906000526020600020015490508087600001848154811061179e5761179e611f0e565b6000918252602080832090910192909255918252600188019052604090208390555b85548690806117d1576117d1611fc4565b600190038181906000526020600020016000905590558560010160008681526020019081526020016000206000905560019350505050610685565b600082600001828154811061182357611823611f0e565b9060005260206000200154905092915050565b61183e610ab4565b610ba757604051638dfc202b60e01b815260040160405180910390fd5b6118648261196f565b6040516001600160a01b038316907fbc7cd75a20ee27fd9adebab32041f755214dbc6bffa90cc0225b39da2e5c2d3b90600090a28051156118a957610a5382826119cb565b610a93611a41565b6118b9611a60565b610ba757604051631afcd79f60e31b815260040160405180910390fd5b61121c6118b1565b6118e66118b1565b60006118f06115ac565b805460ff1916905550565b60009081526001919091016020526040902054151590565b60608160000180548060200260200160405190810160405280929190818152602001828054801561196357602002820191906000526020600020905b81548152602001906001019080831161194f575b50505050509050919050565b806001600160a01b03163b60000361199c5780604051634c9c8ce360e01b815260040161151f9190611c54565b600080516020611ff783398151915280546001600160a01b0319166001600160a01b0392909216919091179055565b6060600080846001600160a01b0316846040516119e89190611fda565b600060405180830381855af49150503d8060008114611a23576040519150601f19603f3d011682016040523d82523d6000602084013e611a28565b606091505b5091509150611a38858383611a7a565b95945050505050565b3415610ba75760405163b398979f60e01b815260040160405180910390fd5b6000611a6a6115d0565b54600160401b900460ff16919050565b606082611a8f57611a8a82611acd565b611239565b8151158015611aa657506001600160a01b0384163b155b15611ac65783604051639996b31560e01b815260040161151f9190611c54565b5092915050565b805115611add5780518082602001fd5b604051630a12f52160e11b815260040160405180910390fd5b600060208284031215611b0857600080fd5b81356001600160e01b03198116811461123957600080fd5b600060208284031215611b3257600080fd5b5035919050565b60008083601f840112611b4b57600080fd5b5081356001600160401b03811115611b6257600080fd5b6020830191508360208260061b8501011115611b7d57600080fd5b9250929050565b80358015158114611b9457600080fd5b919050565b60008060008060608587031215611baf57600080fd5b8435935060208501356001600160401b03811115611bcc57600080fd5b611bd887828801611b39565b9094509250611beb905060408601611b84565b905092959194509250565b80356001600160a01b0381168114611b9457600080fd5b600060208284031215611c1f57600080fd5b61123982611bf6565b60008060408385031215611c3b57600080fd5b82359150611c4b60208401611bf6565b90509250929050565b6001600160a01b0391909116815260200190565b634e487b7160e01b600052604160045260246000fd5b604051601f8201601f191681016001600160401b0381118282101715611ca657611ca6611c68565b604052919050565b60008060408385031215611cc157600080fd5b611cca83611bf6565b915060208301356001600160401b03811115611ce557600080fd5b8301601f81018513611cf657600080fd5b80356001600160401b03811115611d0f57611d0f611c68565b611d22601f8201601f1916602001611c7e565b818152866020838501011115611d3757600080fd5b816020840160208301376000602083830101528093505050509250929050565b600060a0828403128015611d6a57600080fd5b5060405160009060a081016001600160401b0381118282101715611d9057611d90611c68565b604052611d9c84611bf6565b8152611daa60208501611bf6565b6020820152604084810135908201526060808501359082015260809384013593810193909352509092915050565b60005b83811015611df3578181015183820152602001611ddb565b50506000910152565b6020815260008251806020840152611e1b816040850160208701611dd8565b601f01601f19169190910160400192915050565b60008060408385031215611e4257600080fd5b50508035926020909101359150565b600080600080600080600060c0888a031215611e6c57600080fd5b8735965060208801359550604088013594506060880135935060808801356001600160401b03811115611e9e57600080fd5b611eaa8a828b01611b39565b9094509250611ebd905060a08901611b84565b905092959891949750929550565b602080825282518282018190526000918401906040840190835b81811015611f03578351835260209384019390920191600101611ee5565b509095945050505050565b634e487b7160e01b600052603260045260246000fd5b634e487b7160e01b600052601160045260246000fd5b8082018082111561068557610685611f24565b8181038181111561068557610685611f24565b93845260208401929092526040830152606082015260800190565b600060018201611f8d57611f8d611f24565b5060010190565b808202811582820484141761068557610685611f24565b600060208284031215611fbd57600080fd5b5051919050565b634e487b7160e01b600052603160045260246000fd5b60008251611fec818460208701611dd8565b919091019291505056fe360894a13ba1a3210667c828492db98dca3e2076cc3735a920a3ca505d382bbcad1edd3d37e0441e7e8ecebd40bf47260c0d005f2bbb99692ccfcb2fa37b3883017b1c583db0d753e82f5a7f7b94f64603f7e401eb2c40271a8edce1431cf09e0e4b5abdbacc88ea82f7039d0cc2b0185da78d8fe1d85531edfebd57d65707d58fc0db93d562284b2140b5ba84181e6d8649504e729013e6a8c704ffb08d04b9339759585899103d2ace64958e37e18ccb0504652c81d4a1b8aa80fe2126ab95a2646970667358221220c9c89c3265f44d22a247a2874f40de95f51dada99f6abd077f72b6bf343daca164736f6c634300081c0033",
  "devdoc": {
    "errors": {
      "AccessControlBadConfirmation()": [
        {
          "details": "The caller of a function is not the expected one. NOTE: Don't confuse with {AccessControlUnauthorizedAccount}."
        }
      ],
      "AccessControlUnauthorizedAccount(address,bytes32)": [
        {
          "details": "The `account` is missing a role."
        }
      ],
      "AddressEmptyCode(address)": [
        {
          "details": "There's no code at `target` (it is not a contract)."
        }
      ],
      "ERC1967InvalidImplementation(address)": [
        {
          "details": "The `implementation` of the proxy is invalid."
        }
      ],
      "ERC1967NonPayable()": [
        {
          "details": "An upgrade function sees `msg.value > 0` that may be lost."
        }
      ],
      "EnforcedPause()": [
        {
          "details": "The operation failed because the contract is paused."
        }
      ],
      "ExpectedPause()": [
        {
          "details": "The operation failed because the contract is not paused."
        }
      ],
      "FailedInnerCall()": [
        {
          "details": "A call to an address target failed. The target may have reverted."
        }
      ],
      "InvalidInitialization()": [
        {
          "details": "The contract is already initialized."
        }
      ],
      "NotInitializing()": [
        {
          "details": "The contract is not initializing."
        }
      ],
      "ReentrancyGuardReentrantCall()": [
        {
          "details": "Unauthorized reentrant call."
        }
      ],
      "UUPSUnauthorizedCallContext()": [
        {
          "details": "The call is from an unauthorized context."
        }
      ],
      "UUPSUnsupportedProxiableUUID(bytes32)": [
        {
          "details": "The storage `slot` is unsupported as a UUID."
        }
      ]
    },
    "events": {
      "Initialized(uint64)": {
        "details": "Triggered when the contract has been initialized or reinitialized."
      },
      "Paused(address)": {
        "details": "Emitted when the pause is triggered by `account`."
      },
      "RoleAdminChanged(bytes32,bytes32,bytes32)": {
        "details": "Emitted when `newAdminRole` is set as ``role``'s admin role, replacing `previousAdminRole` `DEFAULT_ADMIN_ROLE` is the starting admin for all roles, despite {RoleAdminChanged} not being emitted signaling this."
      },
      "RoleGranted(bytes32,address,address)": {
        "details": "Emitted when `account` is granted `role`. `sender` is the account that originated the contract call, an admin role bearer except when using {AccessControl-_setupRole}."
      },
      "RoleRevoked(bytes32,address,address)": {
        "details": "Emitted when `account` is revoked `role`. `sender` is the account that originated the contract call:   - if using `revokeRole`, it is the admin role bearer   - if using `renounceRole`, it is the role bearer (i.e. `account`)"
      },
      "Unpaused(address)": {
        "details": "Emitted when the pause is lifted by `account`."
      },
      "Upgraded(address)": {
        "details": "Emitted when the implementation is upgraded."
      }
    },
    "kind": "dev",
    "methods": {
      "constructor": {
        "custom:oz-upgrades-unsafe-allow": "constructor"
      },
      "getRoleAdmin(bytes32)": {
        "details": "Returns the admin role that controls `role`. See {grantRole} and {revokeRole}. To change a role's admin, use {_setRoleAdmin}."
      },
      "grantRole(bytes32,address)": {
        "details": "Grants `role` to `account`. If `account` had not been already granted `role`, emits a {RoleGranted} event. Requirements: - the caller must have ``role``'s admin role. May emit a {RoleGranted} event."
      },
      "hasRole(bytes32,address)": {
        "details": "Returns `true` if `account` has been granted `role`."
      },
      "paused()": {
        "details": "Returns true if the contract is paused, and false otherwise."
      },
      "proxiableUUID()": {
        "details": "Implementation of the ERC1822 {proxiableUUID} function. This returns the storage slot used by the implementation. It is used to validate the implementation's compatibility when performing an upgrade. IMPORTANT: A proxy pointing at a proxiable contract should not be considered proxiable itself, because this risks bricking a proxy that upgrades to it, by delegating to itself until out of gas. Thus it is critical that this function revert if invoked through a proxy. This is guaranteed by the `notDelegated` modifier."
      },
      "renounceRole(bytes32,address)": {
        "details": "Revokes `role` from the calling account. Roles are often managed via {grantRole} and {revokeRole}: this function's purpose is to provide a mechanism for accounts to lose their privileges if they are compromised (such as when a trusted device is misplaced). If the calling account had been revoked `role`, emits a {RoleRevoked} event. Requirements: - the caller must be `callerConfirmation`. May emit a {RoleRevoked} event."
      },
      "revokeRole(bytes32,address)": {
        "details": "Revokes `role` from `account`. If `account` had been granted `role`, emits a {RoleRevoked} event. Requirements: - the caller must have ``role``'s admin role. May emit a {RoleRevoked} event."
      },
      "supportsInterface(bytes4)": {
        "details": "See {IERC165-supportsInterface}."
      },
      "upgradeToAndCall(address,bytes)": {
        "custom:oz-upgrades-unsafe-allow-reachable": "delegatecall",
        "details": "Upgrade the implementation of the proxy to `newImplementation`, and subsequently execute the function call encoded in `data`. Calls {_authorizeUpgrade}. Emits an {Upgraded} event."
      }
    },
    "version": 1
  },
  "userdoc": {
    "kind": "user",
    "methods": {
      "createEpochs()": {
        "notice": "Creates epochs up to current block"
      },
      "createEpochsUntilBlockNumber(uint256)": {
        "notice": "Creates epochs up to specified block"
      }
    },
    "version": 1
  },
  "storageLayout": {
    "storage": [
      {
        "astId": 19944,
        "contract": "contracts/vanaEpoch/VanaEpochImplementation.sol:VanaEpochImplementation",
        "label": "dlpRegistry",
        "offset": 0,
        "slot": "0",
        "type": "t_contract(IDLPRegistry)14501"
      },
      {
        "astId": 19947,
        "contract": "contracts/vanaEpoch/VanaEpochImplementation.sol:VanaEpochImplementation",
        "label": "epochRewardAmount",
        "offset": 0,
        "slot": "1",
        "type": "t_uint256"
      },
      {
        "astId": 19950,
        "contract": "contracts/vanaEpoch/VanaEpochImplementation.sol:VanaEpochImplementation",
        "label": "daySize",
        "offset": 0,
        "slot": "2",
        "type": "t_uint256"
      },
      {
        "astId": 19953,
        "contract": "contracts/vanaEpoch/VanaEpochImplementation.sol:VanaEpochImplementation",
        "label": "epochSize",
        "offset": 0,
        "slot": "3",
        "type": "t_uint256"
      },
      {
        "astId": 19956,
        "contract": "contracts/vanaEpoch/VanaEpochImplementation.sol:VanaEpochImplementation",
        "label": "epochsCount",
        "offset": 0,
        "slot": "4",
        "type": "t_uint256"
      },
      {
        "astId": 19961,
        "contract": "contracts/vanaEpoch/VanaEpochImplementation.sol:VanaEpochImplementation",
        "label": "_epochs",
        "offset": 0,
        "slot": "5",
        "type": "t_mapping(t_uint256,t_struct(Epoch)19780_storage)"
      },
      {
        "astId": 19965,
        "contract": "contracts/vanaEpoch/VanaEpochImplementation.sol:VanaEpochImplementation",
        "label": "dlpPerformance",
        "offset": 0,
        "slot": "6",
        "type": "t_contract(IDLPPerformance)12853"
      }
    ],
    "types": {
      "t_array(t_bytes32)dyn_storage": {
        "base": "t_bytes32",
        "encoding": "dynamic_array",
        "label": "bytes32[]",
        "numberOfBytes": "32"
      },
      "t_bool": {
        "encoding": "inplace",
        "label": "bool",
        "numberOfBytes": "1"
      },
      "t_bytes32": {
        "encoding": "inplace",
        "label": "bytes32",
        "numberOfBytes": "32"
      },
      "t_contract(IDLPPerformance)12853": {
        "encoding": "inplace",
        "label": "contract IDLPPerformance",
        "numberOfBytes": "20"
      },
      "t_contract(IDLPRegistry)14501": {
        "encoding": "inplace",
        "label": "contract IDLPRegistry",
        "numberOfBytes": "20"
      },
      "t_mapping(t_bytes32,t_uint256)": {
        "encoding": "mapping",
        "key": "t_bytes32",
        "label": "mapping(bytes32 => uint256)",
        "numberOfBytes": "32",
        "value": "t_uint256"
      },
      "t_mapping(t_uint256,t_struct(Epoch)19780_storage)": {
        "encoding": "mapping",
        "key": "t_uint256",
        "label": "mapping(uint256 => struct IVanaEpoch.Epoch)",
        "numberOfBytes": "32",
        "value": "t_struct(Epoch)19780_storage"
      },
      "t_mapping(t_uint256,t_struct(EpochDlp)19763_storage)": {
        "encoding": "mapping",
        "key": "t_uint256",
        "label": "mapping(uint256 => struct IVanaEpoch.EpochDlp)",
        "numberOfBytes": "32",
        "value": "t_struct(EpochDlp)19763_storage"
      },
      "t_struct(Epoch)19780_storage": {
        "encoding": "inplace",
        "label": "struct IVanaEpoch.Epoch",
        "members": [
          {
            "astId": 19765,
            "contract": "contracts/vanaEpoch/VanaEpochImplementation.sol:VanaEpochImplementation",
            "label": "startBlock",
            "offset": 0,
            "slot": "0",
            "type": "t_uint256"
          },
          {
            "astId": 19767,
            "contract": "contracts/vanaEpoch/VanaEpochImplementation.sol:VanaEpochImplementation",
            "label": "endBlock",
            "offset": 0,
            "slot": "1",
            "type": "t_uint256"
          },
          {
            "astId": 19769,
            "contract": "contracts/vanaEpoch/VanaEpochImplementation.sol:VanaEpochImplementation",
            "label": "rewardAmount",
            "offset": 0,
            "slot": "2",
            "type": "t_uint256"
          },
          {
            "astId": 19771,
            "contract": "contracts/vanaEpoch/VanaEpochImplementation.sol:VanaEpochImplementation",
            "label": "isFinalized",
            "offset": 0,
            "slot": "3",
            "type": "t_bool"
          },
          {
            "astId": 19774,
            "contract": "contracts/vanaEpoch/VanaEpochImplementation.sol:VanaEpochImplementation",
            "label": "dlpIds",
            "offset": 0,
            "slot": "4",
            "type": "t_struct(UintSet)10692_storage"
          },
          {
            "astId": 19779,
            "contract": "contracts/vanaEpoch/VanaEpochImplementation.sol:VanaEpochImplementation",
            "label": "dlps",
            "offset": 0,
            "slot": "6",
            "type": "t_mapping(t_uint256,t_struct(EpochDlp)19763_storage)"
          }
        ],
        "numberOfBytes": "224"
      },
      "t_struct(EpochDlp)19763_storage": {
        "encoding": "inplace",
        "label": "struct IVanaEpoch.EpochDlp",
        "members": [
          {
            "astId": 19762,
            "contract": "contracts/vanaEpoch/VanaEpochImplementation.sol:VanaEpochImplementation",
            "label": "rewardAmount",
            "offset": 0,
            "slot": "0",
            "type": "t_uint256"
          }
        ],
        "numberOfBytes": "32"
      },
      "t_struct(Set)10220_storage": {
        "encoding": "inplace",
        "label": "struct EnumerableSet.Set",
        "members": [
          {
            "astId": 10215,
            "contract": "contracts/vanaEpoch/VanaEpochImplementation.sol:VanaEpochImplementation",
            "label": "_values",
            "offset": 0,
            "slot": "0",
            "type": "t_array(t_bytes32)dyn_storage"
          },
          {
            "astId": 10219,
            "contract": "contracts/vanaEpoch/VanaEpochImplementation.sol:VanaEpochImplementation",
            "label": "_positions",
            "offset": 0,
            "slot": "1",
            "type": "t_mapping(t_bytes32,t_uint256)"
          }
        ],
        "numberOfBytes": "64"
      },
      "t_struct(UintSet)10692_storage": {
        "encoding": "inplace",
        "label": "struct EnumerableSet.UintSet",
        "members": [
          {
            "astId": 10691,
            "contract": "contracts/vanaEpoch/VanaEpochImplementation.sol:VanaEpochImplementation",
            "label": "_inner",
            "offset": 0,
            "slot": "0",
            "type": "t_struct(Set)10220_storage"
          }
        ],
        "numberOfBytes": "64"
      },
      "t_uint256": {
        "encoding": "inplace",
        "label": "uint256",
        "numberOfBytes": "32"
      }
    }
  }
}