{
  "address": "0x3056A76D1dEf8A8D0B8dfd0aA052365DdB7552c1",
  "abi": [
    {
      "inputs": [],
      "stateMutability": "nonpayable",
      "type": "constructor"
    },
    {
      "inputs": [],
      "name": "AccessControlBadConfirmation",
      "type": "error"
    },
    {
      "inputs": [
        {
          "internalType": "address",
          "name": "account",
          "type": "address"
        },
        {
          "internalType": "bytes32",
          "name": "neededRole",
          "type": "bytes32"
        }
      ],
      "name": "AccessControlUnauthorizedAccount",
      "type": "error"
    },
    {
      "inputs": [
        {
          "internalType": "address",
          "name": "target",
          "type": "address"
        }
      ],
      "name": "AddressEmptyCode",
      "type": "error"
    },
    {
      "inputs": [],
      "name": "DlpAddressCannotBeChanged",
      "type": "error"
    },
    {
      "inputs": [],
      "name": "DlpAlreadyVerified",
      "type": "error"
    },
    {
      "inputs": [],
      "name": "DlpLpTokenIdNotSet",
      "type": "error"
    },
    {
      "inputs": [],
      "name": "DlpTokenNotSet",
      "type": "error"
    },
    {
      "inputs": [
        {
          "internalType": "address",
          "name": "implementation",
          "type": "address"
        }
      ],
      "name": "ERC1967InvalidImplementation",
      "type": "error"
    },
    {
      "inputs": [],
      "name": "ERC1967NonPayable",
      "type": "error"
    },
    {
      "inputs": [],
      "name": "EnforcedPause",
      "type": "error"
    },
    {
      "inputs": [],
      "name": "ExpectedPause",
      "type": "error"
    },
    {
      "inputs": [],
      "name": "FailedInnerCall",
      "type": "error"
    },
    {
      "inputs": [],
      "name": "InvalidAddress",
      "type": "error"
    },
    {
      "inputs": [],
      "name": "InvalidDepositAmount",
      "type": "error"
    },
    {
      "inputs": [],
      "name": "InvalidDlpStatus",
      "type": "error"
    },
    {
      "inputs": [],
      "name": "InvalidInitialization",
      "type": "error"
    },
    {
      "inputs": [],
      "name": "InvalidName",
      "type": "error"
    },
    {
      "inputs": [],
      "name": "LastEpochMustBeFinalized",
      "type": "error"
    },
    {
      "inputs": [],
      "name": "NotDlpOwner",
      "type": "error"
    },
    {
      "inputs": [],
      "name": "NotInitializing",
      "type": "error"
    },
    {
      "inputs": [],
      "name": "ReentrancyGuardReentrantCall",
      "type": "error"
    },
    {
      "inputs": [],
      "name": "TransferFailed",
      "type": "error"
    },
    {
      "inputs": [],
      "name": "UUPSUnauthorizedCallContext",
      "type": "error"
    },
    {
      "inputs": [
        {
          "internalType": "bytes32",
          "name": "slot",
          "type": "bytes32"
        }
      ],
      "name": "UUPSUnsupportedProxiableUUID",
      "type": "error"
    },
    {
      "anonymous": false,
      "inputs": [
        {
          "indexed": true,
          "internalType": "uint256",
          "name": "dlpId",
          "type": "uint256"
        },
        {
          "indexed": false,
          "internalType": "uint256",
          "name": "lpTokenId",
          "type": "uint256"
        }
      ],
      "name": "DlpLpTokenAddressUpdated",
      "type": "event"
    },
    {
      "anonymous": false,
      "inputs": [
        {
          "indexed": true,
          "internalType": "uint256",
          "name": "dlpId",
          "type": "uint256"
        },
        {
          "indexed": true,
          "internalType": "address",
          "name": "dlpAddress",
          "type": "address"
        },
        {
          "indexed": false,
          "internalType": "address",
          "name": "ownerAddress",
          "type": "address"
        },
        {
          "indexed": false,
          "internalType": "address",
          "name": "treasuryAddress",
          "type": "address"
        },
        {
          "indexed": false,
          "internalType": "string",
          "name": "name",
          "type": "string"
        },
        {
          "indexed": false,
          "internalType": "string",
          "name": "iconUrl",
          "type": "string"
        },
        {
          "indexed": false,
          "internalType": "string",
          "name": "website",
          "type": "string"
        },
        {
          "indexed": false,
          "internalType": "string",
          "name": "metadata",
          "type": "string"
        }
      ],
      "name": "DlpRegistered",
      "type": "event"
    },
    {
      "anonymous": false,
      "inputs": [
        {
          "indexed": false,
          "internalType": "uint256",
          "name": "newDlpRegistrationDepositAmount",
          "type": "uint256"
        }
      ],
      "name": "DlpRegistrationDepositAmountUpdated",
      "type": "event"
    },
    {
      "anonymous": false,
      "inputs": [
        {
          "indexed": true,
          "internalType": "uint256",
          "name": "dlpId",
          "type": "uint256"
        },
        {
          "indexed": false,
          "internalType": "enum IDLPRegistry.DlpStatus",
          "name": "newStatus",
          "type": "uint8"
        }
      ],
      "name": "DlpStatusUpdated",
      "type": "event"
    },
    {
      "anonymous": false,
      "inputs": [
        {
          "indexed": true,
          "internalType": "uint256",
          "name": "dlpId",
          "type": "uint256"
        },
        {
          "indexed": false,
          "internalType": "address",
          "name": "tokenAddress",
          "type": "address"
        }
      ],
      "name": "DlpTokenUpdated",
      "type": "event"
    },
    {
      "anonymous": false,
      "inputs": [
        {
          "indexed": true,
          "internalType": "uint256",
          "name": "dlpId",
          "type": "uint256"
        },
        {
          "indexed": true,
          "internalType": "address",
          "name": "dlpAddress",
          "type": "address"
        },
        {
          "indexed": false,
          "internalType": "address",
          "name": "ownerAddress",
          "type": "address"
        },
        {
          "indexed": false,
          "internalType": "address",
          "name": "treasuryAddress",
          "type": "address"
        },
        {
          "indexed": false,
          "internalType": "string",
          "name": "name",
          "type": "string"
        },
        {
          "indexed": false,
          "internalType": "string",
          "name": "iconUrl",
          "type": "string"
        },
        {
          "indexed": false,
          "internalType": "string",
          "name": "website",
          "type": "string"
        },
        {
          "indexed": false,
          "internalType": "string",
          "name": "metadata",
          "type": "string"
        }
      ],
      "name": "DlpUpdated",
      "type": "event"
    },
    {
      "anonymous": false,
      "inputs": [
        {
          "indexed": true,
          "internalType": "uint256",
          "name": "dlpId",
          "type": "uint256"
        },
        {
          "indexed": false,
          "internalType": "bool",
          "name": "verified",
          "type": "bool"
        }
      ],
      "name": "DlpVerificationUpdated",
      "type": "event"
    },
    {
      "anonymous": false,
      "inputs": [
        {
          "indexed": false,
          "internalType": "uint64",
          "name": "version",
          "type": "uint64"
        }
      ],
      "name": "Initialized",
      "type": "event"
    },
    {
      "anonymous": false,
      "inputs": [
        {
          "indexed": false,
          "internalType": "address",
          "name": "account",
          "type": "address"
        }
      ],
      "name": "Paused",
      "type": "event"
    },
    {
      "anonymous": false,
      "inputs": [
        {
          "indexed": true,
          "internalType": "bytes32",
          "name": "role",
          "type": "bytes32"
        },
        {
          "indexed": true,
          "internalType": "bytes32",
          "name": "previousAdminRole",
          "type": "bytes32"
        },
        {
          "indexed": true,
          "internalType": "bytes32",
          "name": "newAdminRole",
          "type": "bytes32"
        }
      ],
      "name": "RoleAdminChanged",
      "type": "event"
    },
    {
      "anonymous": false,
      "inputs": [
        {
          "indexed": true,
          "internalType": "bytes32",
          "name": "role",
          "type": "bytes32"
        },
        {
          "indexed": true,
          "internalType": "address",
          "name": "account",
          "type": "address"
        },
        {
          "indexed": true,
          "internalType": "address",
          "name": "sender",
          "type": "address"
        }
      ],
      "name": "RoleGranted",
      "type": "event"
    },
    {
      "anonymous": false,
      "inputs": [
        {
          "indexed": true,
          "internalType": "bytes32",
          "name": "role",
          "type": "bytes32"
        },
        {
          "indexed": true,
          "internalType": "address",
          "name": "account",
          "type": "address"
        },
        {
          "indexed": true,
          "internalType": "address",
          "name": "sender",
          "type": "address"
        }
      ],
      "name": "RoleRevoked",
      "type": "event"
    },
    {
      "anonymous": false,
      "inputs": [
        {
          "indexed": false,
          "internalType": "address",
          "name": "account",
          "type": "address"
        }
      ],
      "name": "Unpaused",
      "type": "event"
    },
    {
      "anonymous": false,
      "inputs": [
        {
          "indexed": true,
          "internalType": "address",
          "name": "implementation",
          "type": "address"
        }
      ],
      "name": "Upgraded",
      "type": "event"
    },
    {
      "inputs": [],
      "name": "DEFAULT_ADMIN_ROLE",
      "outputs": [
        {
          "internalType": "bytes32",
          "name": "",
          "type": "bytes32"
        }
      ],
      "stateMutability": "view",
      "type": "function"
    },
    {
      "inputs": [],
      "name": "MAINTAINER_ROLE",
      "outputs": [
        {
          "internalType": "bytes32",
          "name": "",
          "type": "bytes32"
        }
      ],
      "stateMutability": "view",
      "type": "function"
    },
    {
      "inputs": [],
      "name": "UPGRADE_INTERFACE_VERSION",
      "outputs": [
        {
          "internalType": "string",
          "name": "",
          "type": "string"
        }
      ],
      "stateMutability": "view",
      "type": "function"
    },
    {
      "inputs": [
        {
          "internalType": "uint256",
          "name": "dlpId",
          "type": "uint256"
        }
      ],
      "name": "deregisterDlp",
      "outputs": [],
      "stateMutability": "nonpayable",
      "type": "function"
    },
    {
      "inputs": [
        {
          "internalType": "address",
          "name": "dlpAddress",
          "type": "address"
        }
      ],
      "name": "dlpIds",
      "outputs": [
        {
          "internalType": "uint256",
          "name": "dlpId",
          "type": "uint256"
        }
      ],
      "stateMutability": "view",
      "type": "function"
    },
    {
      "inputs": [
        {
          "internalType": "string",
          "name": "dlpName",
          "type": "string"
        }
      ],
      "name": "dlpNameToId",
      "outputs": [
        {
          "internalType": "uint256",
          "name": "dlpId",
          "type": "uint256"
        }
      ],
      "stateMutability": "view",
      "type": "function"
    },
    {
      "inputs": [],
      "name": "dlpRegistrationDepositAmount",
      "outputs": [
        {
          "internalType": "uint256",
          "name": "",
          "type": "uint256"
        }
      ],
      "stateMutability": "view",
      "type": "function"
    },
    {
      "inputs": [
        {
          "internalType": "uint256",
          "name": "dlpId",
          "type": "uint256"
        }
      ],
      "name": "dlps",
      "outputs": [
        {
          "components": [
            {
              "internalType": "uint256",
              "name": "id",
              "type": "uint256"
            },
            {
              "internalType": "address",
              "name": "dlpAddress",
              "type": "address"
            },
            {
              "internalType": "address",
              "name": "ownerAddress",
              "type": "address"
            },
            {
              "internalType": "address",
              "name": "tokenAddress",
              "type": "address"
            },
            {
              "internalType": "address",
              "name": "treasuryAddress",
              "type": "address"
            },
            {
              "internalType": "string",
              "name": "name",
              "type": "string"
            },
            {
              "internalType": "string",
              "name": "iconUrl",
              "type": "string"
            },
            {
              "internalType": "string",
              "name": "website",
              "type": "string"
            },
            {
              "internalType": "string",
              "name": "metadata",
              "type": "string"
            },
            {
              "internalType": "uint256",
              "name": "registrationBlockNumber",
              "type": "uint256"
            },
            {
              "internalType": "uint256",
              "name": "depositAmount",
              "type": "uint256"
            },
            {
              "internalType": "enum IDLPRegistry.DlpStatus",
              "name": "status",
              "type": "uint8"
            },
            {
              "internalType": "uint256",
              "name": "lpTokenId",
              "type": "uint256"
            },
            {
              "internalType": "bool",
              "name": "isVerified",
              "type": "bool"
            }
          ],
          "internalType": "struct IDLPRegistry.DlpInfo",
          "name": "",
          "type": "tuple"
        }
      ],
      "stateMutability": "view",
      "type": "function"
    },
    {
      "inputs": [
        {
          "internalType": "address",
          "name": "dlpAddress",
          "type": "address"
        }
      ],
      "name": "dlpsByAddress",
      "outputs": [
        {
          "components": [
            {
              "internalType": "uint256",
              "name": "id",
              "type": "uint256"
            },
            {
              "internalType": "address",
              "name": "dlpAddress",
              "type": "address"
            },
            {
              "internalType": "address",
              "name": "ownerAddress",
              "type": "address"
            },
            {
              "internalType": "address",
              "name": "tokenAddress",
              "type": "address"
            },
            {
              "internalType": "address",
              "name": "treasuryAddress",
              "type": "address"
            },
            {
              "internalType": "string",
              "name": "name",
              "type": "string"
            },
            {
              "internalType": "string",
              "name": "iconUrl",
              "type": "string"
            },
            {
              "internalType": "string",
              "name": "website",
              "type": "string"
            },
            {
              "internalType": "string",
              "name": "metadata",
              "type": "string"
            },
            {
              "internalType": "uint256",
              "name": "registrationBlockNumber",
              "type": "uint256"
            },
            {
              "internalType": "uint256",
              "name": "depositAmount",
              "type": "uint256"
            },
            {
              "internalType": "enum IDLPRegistry.DlpStatus",
              "name": "status",
              "type": "uint8"
            },
            {
              "internalType": "uint256",
              "name": "lpTokenId",
              "type": "uint256"
            },
            {
              "internalType": "bool",
              "name": "isVerified",
              "type": "bool"
            }
          ],
          "internalType": "struct IDLPRegistry.DlpInfo",
          "name": "",
          "type": "tuple"
        }
      ],
      "stateMutability": "view",
      "type": "function"
    },
    {
      "inputs": [
        {
          "internalType": "string",
          "name": "dlpName",
          "type": "string"
        }
      ],
      "name": "dlpsByName",
      "outputs": [
        {
          "components": [
            {
              "internalType": "uint256",
              "name": "id",
              "type": "uint256"
            },
            {
              "internalType": "address",
              "name": "dlpAddress",
              "type": "address"
            },
            {
              "internalType": "address",
              "name": "ownerAddress",
              "type": "address"
            },
            {
              "internalType": "address",
              "name": "tokenAddress",
              "type": "address"
            },
            {
              "internalType": "address",
              "name": "treasuryAddress",
              "type": "address"
            },
            {
              "internalType": "string",
              "name": "name",
              "type": "string"
            },
            {
              "internalType": "string",
              "name": "iconUrl",
              "type": "string"
            },
            {
              "internalType": "string",
              "name": "website",
              "type": "string"
            },
            {
              "internalType": "string",
              "name": "metadata",
              "type": "string"
            },
            {
              "internalType": "uint256",
              "name": "registrationBlockNumber",
              "type": "uint256"
            },
            {
              "internalType": "uint256",
              "name": "depositAmount",
              "type": "uint256"
            },
            {
              "internalType": "enum IDLPRegistry.DlpStatus",
              "name": "status",
              "type": "uint8"
            },
            {
              "internalType": "uint256",
              "name": "lpTokenId",
              "type": "uint256"
            },
            {
              "internalType": "bool",
              "name": "isVerified",
              "type": "bool"
            }
          ],
          "internalType": "struct IDLPRegistry.DlpInfo",
          "name": "",
          "type": "tuple"
        }
      ],
      "stateMutability": "view",
      "type": "function"
    },
    {
      "inputs": [],
      "name": "dlpsCount",
      "outputs": [
        {
          "internalType": "uint256",
          "name": "",
          "type": "uint256"
        }
      ],
      "stateMutability": "view",
      "type": "function"
    },
    {
      "inputs": [],
      "name": "eligibleDlpsLimit",
      "outputs": [
        {
          "internalType": "uint256",
          "name": "",
          "type": "uint256"
        }
      ],
      "stateMutability": "view",
      "type": "function"
    },
    {
      "inputs": [
        {
          "internalType": "uint256",
          "name": "index",
          "type": "uint256"
        }
      ],
      "name": "eligibleDlpsListAt",
      "outputs": [
        {
          "internalType": "uint256",
          "name": "",
          "type": "uint256"
        }
      ],
      "stateMutability": "view",
      "type": "function"
    },
    {
      "inputs": [],
      "name": "eligibleDlpsListCount",
      "outputs": [
        {
          "internalType": "uint256",
          "name": "",
          "type": "uint256"
        }
      ],
      "stateMutability": "view",
      "type": "function"
    },
    {
      "inputs": [],
      "name": "eligibleDlpsListValues",
      "outputs": [
        {
          "internalType": "uint256[]",
          "name": "",
          "type": "uint256[]"
        }
      ],
      "stateMutability": "view",
      "type": "function"
    },
    {
      "inputs": [
        {
          "internalType": "bytes32",
          "name": "role",
          "type": "bytes32"
        }
      ],
      "name": "getRoleAdmin",
      "outputs": [
        {
          "internalType": "bytes32",
          "name": "",
          "type": "bytes32"
        }
      ],
      "stateMutability": "view",
      "type": "function"
    },
    {
      "inputs": [
        {
          "internalType": "bytes32",
          "name": "role",
          "type": "bytes32"
        },
        {
          "internalType": "address",
          "name": "account",
          "type": "address"
        }
      ],
      "name": "grantRole",
      "outputs": [],
      "stateMutability": "nonpayable",
      "type": "function"
    },
    {
      "inputs": [
        {
          "internalType": "bytes32",
          "name": "role",
          "type": "bytes32"
        },
        {
          "internalType": "address",
          "name": "account",
          "type": "address"
        }
      ],
      "name": "hasRole",
      "outputs": [
        {
          "internalType": "bool",
          "name": "",
          "type": "bool"
        }
      ],
      "stateMutability": "view",
      "type": "function"
    },
    {
      "inputs": [
        {
          "internalType": "address",
          "name": "ownerAddress",
          "type": "address"
        }
      ],
      "name": "initialize",
      "outputs": [],
      "stateMutability": "nonpayable",
      "type": "function"
    },
    {
      "inputs": [
        {
          "internalType": "address",
          "name": "dlpRootCoreAddress",
          "type": "address"
        },
        {
          "internalType": "uint256",
          "name": "startDlpId",
          "type": "uint256"
        },
        {
          "internalType": "uint256",
          "name": "endDlpId",
          "type": "uint256"
        }
      ],
      "name": "migrateDlpData",
      "outputs": [],
      "stateMutability": "nonpayable",
      "type": "function"
    },
    {
      "inputs": [],
      "name": "pause",
      "outputs": [],
      "stateMutability": "nonpayable",
      "type": "function"
    },
    {
      "inputs": [],
      "name": "paused",
      "outputs": [
        {
          "internalType": "bool",
          "name": "",
          "type": "bool"
        }
      ],
      "stateMutability": "view",
      "type": "function"
    },
    {
      "inputs": [],
      "name": "proxiableUUID",
      "outputs": [
        {
          "internalType": "bytes32",
          "name": "",
          "type": "bytes32"
        }
      ],
      "stateMutability": "view",
      "type": "function"
    },
    {
      "inputs": [
        {
          "components": [
            {
              "internalType": "address",
              "name": "dlpAddress",
              "type": "address"
            },
            {
              "internalType": "address",
              "name": "ownerAddress",
              "type": "address"
            },
            {
              "internalType": "address payable",
              "name": "treasuryAddress",
              "type": "address"
            },
            {
              "internalType": "string",
              "name": "name",
              "type": "string"
            },
            {
              "internalType": "string",
              "name": "iconUrl",
              "type": "string"
            },
            {
              "internalType": "string",
              "name": "website",
              "type": "string"
            },
            {
              "internalType": "string",
              "name": "metadata",
              "type": "string"
            }
          ],
          "internalType": "struct IDLPRegistry.DlpRegistration",
          "name": "registrationInfo",
          "type": "tuple"
        }
      ],
      "name": "registerDlp",
      "outputs": [],
      "stateMutability": "payable",
      "type": "function"
    },
    {
      "inputs": [
        {
          "internalType": "bytes32",
          "name": "role",
          "type": "bytes32"
        },
        {
          "internalType": "address",
          "name": "callerConfirmation",
          "type": "address"
        }
      ],
      "name": "renounceRole",
      "outputs": [],
      "stateMutability": "nonpayable",
      "type": "function"
    },
    {
      "inputs": [
        {
          "internalType": "bytes32",
          "name": "role",
          "type": "bytes32"
        },
        {
          "internalType": "address",
          "name": "account",
          "type": "address"
        }
      ],
      "name": "revokeRole",
      "outputs": [],
      "stateMutability": "nonpayable",
      "type": "function"
    },
    {
      "inputs": [
        {
          "internalType": "bytes4",
          "name": "interfaceId",
          "type": "bytes4"
        }
      ],
      "name": "supportsInterface",
      "outputs": [
        {
          "internalType": "bool",
          "name": "",
          "type": "bool"
        }
      ],
      "stateMutability": "view",
      "type": "function"
    },
    {
      "inputs": [],
      "name": "treasury",
      "outputs": [
        {
          "internalType": "contract ITreasury",
          "name": "",
          "type": "address"
        }
      ],
      "stateMutability": "view",
      "type": "function"
    },
    {
      "inputs": [],
      "name": "unpause",
      "outputs": [],
      "stateMutability": "nonpayable",
      "type": "function"
    },
    {
      "inputs": [
        {
          "internalType": "uint256",
          "name": "dlpId",
          "type": "uint256"
        },
        {
          "components": [
            {
              "internalType": "address",
              "name": "dlpAddress",
              "type": "address"
            },
            {
              "internalType": "address",
              "name": "ownerAddress",
              "type": "address"
            },
            {
              "internalType": "address payable",
              "name": "treasuryAddress",
              "type": "address"
            },
            {
              "internalType": "string",
              "name": "name",
              "type": "string"
            },
            {
              "internalType": "string",
              "name": "iconUrl",
              "type": "string"
            },
            {
              "internalType": "string",
              "name": "website",
              "type": "string"
            },
            {
              "internalType": "string",
              "name": "metadata",
              "type": "string"
            }
          ],
          "internalType": "struct IDLPRegistry.DlpRegistration",
          "name": "dlpUpdateInfo",
          "type": "tuple"
        }
      ],
      "name": "updateDlp",
      "outputs": [],
      "stateMutability": "nonpayable",
      "type": "function"
    },
    {
      "inputs": [
        {
          "internalType": "uint256",
          "name": "dlpId",
          "type": "uint256"
        },
        {
          "internalType": "uint256",
          "name": "lpTokenId",
          "type": "uint256"
        }
      ],
      "name": "updateDlpLpTokenId",
      "outputs": [],
      "stateMutability": "nonpayable",
      "type": "function"
    },
    {
      "inputs": [
        {
          "internalType": "uint256",
          "name": "newDlpRegistrationDepositAmount",
          "type": "uint256"
        }
      ],
      "name": "updateDlpRegistrationDepositAmount",
      "outputs": [],
      "stateMutability": "nonpayable",
      "type": "function"
    },
    {
      "inputs": [
        {
          "internalType": "uint256",
          "name": "dlpId",
          "type": "uint256"
        },
        {
          "internalType": "address",
          "name": "tokenAddress",
          "type": "address"
        }
      ],
      "name": "updateDlpToken",
      "outputs": [],
      "stateMutability": "nonpayable",
      "type": "function"
    },
    {
      "inputs": [
        {
          "internalType": "uint256",
          "name": "dlpId",
          "type": "uint256"
        },
        {
          "internalType": "bool",
          "name": "isVerified",
          "type": "bool"
        }
      ],
      "name": "updateDlpVerification",
      "outputs": [],
      "stateMutability": "nonpayable",
      "type": "function"
    },
    {
      "inputs": [
        {
          "internalType": "address",
          "name": "treasuryAddress",
          "type": "address"
        }
      ],
      "name": "updateTreasury",
      "outputs": [],
      "stateMutability": "nonpayable",
      "type": "function"
    },
    {
      "inputs": [
        {
          "internalType": "address",
          "name": "vanaEpochAddress",
          "type": "address"
        }
      ],
      "name": "updateVanaEpoch",
      "outputs": [],
      "stateMutability": "nonpayable",
      "type": "function"
    },
    {
      "inputs": [
        {
          "internalType": "address",
          "name": "newImplementation",
          "type": "address"
        },
        {
          "internalType": "bytes",
          "name": "data",
          "type": "bytes"
        }
      ],
      "name": "upgradeToAndCall",
      "outputs": [],
      "stateMutability": "payable",
      "type": "function"
    },
    {
      "inputs": [],
      "name": "vanaEpoch",
      "outputs": [
        {
          "internalType": "contract IVanaEpoch",
          "name": "",
          "type": "address"
        }
      ],
      "stateMutability": "view",
      "type": "function"
    },
    {
      "inputs": [],
      "name": "version",
      "outputs": [
        {
          "internalType": "uint256",
          "name": "",
          "type": "uint256"
        }
      ],
      "stateMutability": "pure",
      "type": "function"
    }
  ],
  "transactionHash": "0x71d3ef51af839a61249979e3b810e1a901760e1d3f59806551d0bc97f64f4d87",
  "args": [],
  "numDeployments": 1,
  "solcInputHash": "5a48a35de5c6778bf907d9f78e6840d3",
  "bytecode": "0x60a06040523060805234801561001457600080fd5b5061001d610022565b6100d4565b7ff0c57e16840df040f15088dc2f81fe391c3923bec73e23a9662efc9c229c6a00805468010000000000000000900460ff16156100725760405163f92ee8a960e01b815260040160405180910390fd5b80546001600160401b03908116146100d15780546001600160401b0319166001600160401b0390811782556040519081527fc7f505b2f371ae2175ee4913f4499e1f2633a7b5936321eed1cdaeb6115181d29060200160405180910390a15b50565b60805161386f6100fd60003960008181611bc101528181611bea0152611d30015261386f6000f3fe6080604052600436106101c05760003560e01c806301610230146101c557806301ffc9a7146101fb57806303a229f61461022b5780632393526f1461024d578063248a9ca31461027b5780632963d5c51461029b5780632f2ff15d146102b157806336568abe146102d35780633f4ba83a146102f3578063439b375614610308578063467bb545146103355780634f1ef2861461035557806352d1902d1461036857806354fd4d501461037d5780635c975abb146103915780635ef04331146103a657806361d027b3146103c657806368ed41ed146103e65780636d352711146103fc57806373801a8814610411578063776ddebc146104315780637f51bb1f146104695780638456cb5914610489578063858d9d541461049e5780638825c8a1146104be57806391d14854146104de5780639d4def70146104fe5780639dc6fe5a146105115780639e8e671714610531578063a217fddf14610547578063ad3cb1cc1461055c578063b4fcea1d1461059a578063b89ac73b146105ba578063c06020b0146105da578063c40e30b214610607578063c4d66de814610627578063d547741f14610647578063ea83e47b14610667578063f874225414610687575b600080fd5b3480156101d157600080fd5b506000546101e5906001600160a01b031681565b6040516101f29190612ad9565b60405180910390f35b34801561020757600080fd5b5061021b610216366004612aed565b6106a9565b60405190151581526020016101f2565b34801561023757600080fd5b506102406106e0565b6040516101f29190612b17565b34801561025957600080fd5b5061026d610268366004612b5a565b6106f1565b6040519081526020016101f2565b34801561028757600080fd5b5061026d610296366004612b5a565b6106fe565b3480156102a757600080fd5b5061026d60025481565b3480156102bd57600080fd5b506102d16102cc366004612b88565b61071e565b005b3480156102df57600080fd5b506102d16102ee366004612b88565b610740565b3480156102ff57600080fd5b506102d1610778565b34801561031457600080fd5b50610328610323366004612bb8565b61079b565b6040516101f29190612c6a565b34801561034157600080fd5b506102d1610350366004612bb8565b6107c5565b6102d1610363366004612e67565b610800565b34801561037457600080fd5b5061026d61081f565b34801561038957600080fd5b50600161026d565b34801561039d57600080fd5b5061021b61083c565b3480156103b257600080fd5b506102d16103c1366004612eca565b610851565b3480156103d257600080fd5b506001546101e5906001600160a01b031681565b3480156103f257600080fd5b5061026d60035481565b34801561040857600080fd5b5061026d610a84565b34801561041d57600080fd5b506102d161042c366004612f0d565b610a90565b34801561043d57600080fd5b5061026d61044c366004612f32565b805160208183018101805160068252928201919093012091525481565b34801561047557600080fd5b506102d1610484366004612bb8565b610bf5565b34801561049557600080fd5b506102d1610c30565b3480156104aa57600080fd5b506102d16104b9366004612b88565b610c50565b3480156104ca57600080fd5b506102d16104d9366004612f82565b610cd4565b3480156104ea57600080fd5b5061021b6104f9366004612b88565b610d34565b6102d161050c366004612fbc565b610d6a565b34801561051d57600080fd5b5061032861052c366004612ff0565b610de4565b34801561053d57600080fd5b5061026d60075481565b34801561055357600080fd5b5061026d600081565b34801561056857600080fd5b5061058d604051806040016040528060058152602001640352e302e360dc1b81525081565b6040516101f29190613062565b3480156105a657600080fd5b506102d16105b5366004612b5a565b610e1c565b3480156105c657600080fd5b506102d16105d5366004612b5a565b61109c565b3480156105e657600080fd5b5061026d6105f5366004612bb8565b60056020526000908152604090205481565b34801561061357600080fd5b506102d1610622366004613075565b6110f0565b34801561063357600080fd5b506102d1610642366004612bb8565b611537565b34801561065357600080fd5b506102d1610662366004612b88565b61166b565b34801561067357600080fd5b50610328610682366004612b5a565b611687565b34801561069357600080fd5b5061026d6000805160206137fa83398151915281565b60006001600160e01b03198216637965db0b60e01b14806106da57506301ffc9a760e01b6001600160e01b03198316145b92915050565b60606106ec60086119ff565b905090565b60006106da600883611a0c565b600080610709611a18565b60009384526020525050604090206001015490565b610727826106fe565b61073081611a3c565b61073a8383611a46565b50505050565b6001600160a01b03811633146107695760405163334bd91960e11b815260040160405180910390fd5b6107738282611ae7565b505050565b6000805160206137fa83398151915261079081611a3c565b610798611b5f565b50565b6107a3612a35565b6001600160a01b0382166000908152600560205260409020546106da90611687565b6000805160206137fa8339815191526107dd81611a3c565b50600080546001600160a01b0319166001600160a01b0392909216919091179055565b610808611bb6565b61081182611c5d565b61081b8282611c68565b5050565b6000610829611d25565b506000805160206137ba83398151915290565b600080610847611d6e565b5460ff1692915050565b6000805160206137fa83398151915261086981611a3c565b83835b838111610a7c5760405163ea83e47b60e01b8152600481018290526000906001600160a01b0384169063ea83e47b90602401600060405180830381865afa1580156108bb573d6000803e3d6000fd5b505050506040513d6000823e601f3d908101601f191682016040526108e39190810190613120565b60008381526004602081815260409283902084518155908401516001820180546001600160a01b03199081166001600160a01b03938416179091559385015160028301805486169183169190911790556060850151928201805490941692169190911790915560c08201519192509060058201906109619082613332565b5060e082015160068201906109769082613332565b50610100820151600782019061098c9082613332565b5061012082015160088201906109a29082613332565b50600b8101805460ff1916600117905561016082015160098201556020808301516001600160a01b03166000908152600590915260409081902084905560c0830151905184916006916109f591906133ea565b90815260200160405180910390208190555081602001516001600160a01b03168360008051602061381a833981519152846040015185606001518660c001518760e00151886101000151896101200151604051610a5796959493929190613406565b60405180910390a3600360008154610a6e9061348f565b90915550505060010161086c565b505050505050565b60006106ec6008611d92565b6000805160206137fa833981519152610aa881611a3c565b600083815260046020526040812090600b82015460ff166003811115610ad057610ad0612c32565b03610aee57604051636e1ed6c560e11b815260040160405180910390fd5b6003600b82015460ff166003811115610b0957610b09612c32565b03610b2757604051636e1ed6c560e11b815260040160405180910390fd5b600d81015483151560ff909116151503610b5457604051630a24f34360e41b815260040160405180910390fd5b60038101546001600160a01b0316610b7f576040516336c7e4e760e21b815260040160405180910390fd5b80600c0154600003610ba457604051632e8912bb60e11b815260040160405180910390fd5b600d8101805460ff191684151590811790915560405190815284907fe11c4b38855d86735092f8c7e790a86765bacd0fe47618b41eb0c5142aea69c89060200160405180910390a261073a81611d9c565b6000805160206137fa833981519152610c0d81611a3c565b50600180546001600160a01b0319166001600160a01b0392909216919091179055565b6000805160206137fa833981519152610c4881611a3c565b610798611fd3565b6000805160206137fa833981519152610c6881611a3c565b600083815260046020526040908190206003810180546001600160a01b0319166001600160a01b038616179055905184907f3f2c2e74f8183acb3a3ecca3d7993216d3026a732399784c4143f5f4b631e56a90610cc6908690612ad9565b60405180910390a250505050565b6000805160206137fa833981519152610cec81611a3c565b600083815260046020908152604091829020600c8101859055915184815285917fd094a34d3e6e94518fad82ddf95aa09b6038a7d1430842d19989a4297be8b1e39101610cc6565b600080610d3f611a18565b6000948552602090815260408086206001600160a01b03959095168652939052505090205460ff1690565b610d7261201a565b610d7a612040565b60008054604080516376bc986960e01b815290516001600160a01b03909216926376bc98699260048084019382900301818387803b158015610dbb57600080fd5b505af1158015610dcf573d6000803e3d6000fd5b50505050610ddc81612076565b6107986124fd565b610dec612a35565b610e1560068484604051610e019291906134a8565b908152602001604051809103902054611687565b9392505050565b610e2461201a565b610e2c612040565b60008181526004602052604090206002015481906001600160a01b03163314610e6857604051633387d70760e01b815260040160405180910390fd5b60008054604080516376bc986960e01b815290516001600160a01b03909216926376bc98699260048084019382900301818387803b158015610ea957600080fd5b505af1158015610ebd573d6000803e3d6000fd5b5050505060008060009054906101000a90046001600160a01b03166001600160a01b031663916e1c576040518163ffffffff1660e01b8152600401602060405180830381865afa158015610f15573d6000803e3d6000fd5b505050506040513d601f19601f82011682018060405250810190610f3991906134b8565b9050600181118015610fc757506000546001600160a01b031663c6b61e4c610f626001846134d1565b6040518263ffffffff1660e01b8152600401610f8091815260200190565b608060405180830381865afa158015610f9d573d6000803e3d6000fd5b505050506040513d601f19601f82011682018060405250810190610fc191906134e4565b60600151155b15610fe5576040516319f9228360e01b815260040160405180910390fd5b600083815260046020526040812090600b82015460ff16600381111561100d5761100d612c32565b148061103157506003600b82015460ff16600381111561102f5761102f612c32565b145b1561104f57604051636e1ed6c560e11b815260040160405180910390fd5b600b8101805460ff1916600317905561106960088561250e565b50836000805160206137da83398151915260036040516110899190613557565b60405180910390a25050506107986124fd565b6000805160206137fa8339815191526110b481611a3c565b60028290556040518281527fe082917d1df24c089c98cea7cf69a4e75e16c9832994eae12359ac6dc8f050cd9060200160405180910390a15050565b6110f861201a565b611100612040565b60008281526004602052604090206002015482906001600160a01b0316331461113c57604051633387d70760e01b815260040160405180910390fd5b60008054604080516376bc986960e01b815290516001600160a01b03909216926376bc98699260048084019382900301818387803b15801561117d57600080fd5b505af1158015611191573d6000803e3d6000fd5b50600092506111a99150506040840160208501612bb8565b6001600160a01b031614806111d6575060006111cb6060840160408501612bb8565b6001600160a01b0316145b156111f45760405163e6c4247b60e01b815260040160405180910390fd5b60008381526004602090815260409091209061121290840184612bb8565b60018201546001600160a01b0390811691161461124257604051630cd0dd4360e11b815260040160405180910390fd5b6112526040840160208501612bb8565b6002820180546001600160a01b0319166001600160a01b03929092169190911790556112846060840160408501612bb8565b6004820180546001600160a01b0319166001600160a01b03929092169190911790556040516112b79060058301906135d7565b6040519081900390206112cd60608501856135e3565b6040516112db9291906134a8565b6040518091039020146113dc5760066112f760608501856135e3565b6040516113059291906134a8565b908152602001604051809103902054600014158061136a575061136861132e60608501856135e3565b8080601f01602080910402602001604051908101604052809392919081815260200183838082843760009201919091525061251a92505050565b155b156113885760405163430f13b360e01b815260040160405180910390fd5b600060068260050160405161139d91906135d7565b908152604051908190036020019020558360066113bd60608601866135e3565b6040516113cb9291906134a8565b908152604051908190036020019020555b6113e960608401846135e3565b60058301916113f9919083613630565b5061140760808401846135e3565b6006830191611417919083613630565b5061142560a08401846135e3565b6007830191611435919083613630565b5061144360c08401846135e3565b6008830191611453919083613630565b5083600560006114666020870187612bb8565b6001600160a01b031681526020808201929092526040016000209190915561149090840184612bb8565b6001600160a01b0316847f722508f612f32b765b27ca15934c5c89806cdecd1ecd4b83631a9d12d15ddac36114cb6040870160208801612bb8565b6114db6060880160408901612bb8565b6114e860608901896135e3565b6114f560808b018b6135e3565b61150260a08d018d6135e3565b61150f60c08f018f6135e3565b6040516115259a99989796959493929190613712565b60405180910390a3505061081b6124fd565b6000611541612576565b805490915060ff600160401b82041615906001600160401b03166000811580156115685750825b90506000826001600160401b031660011480156115845750303b155b905081158015611592575080155b156115b05760405163f92ee8a960e01b815260040160405180910390fd5b84546001600160401b031916600117855583156115d957845460ff60401b1916600160401b1785555b6115e161259a565b6115e961259a565b6115f16125a2565b6115f96125b2565b611604600087611a46565b5061161d6000805160206137fa83398151915287611a46565b508315610a7c57845460ff60401b19168555604051600181527fc7f505b2f371ae2175ee4913f4499e1f2633a7b5936321eed1cdaeb6115181d29060200160405180910390a1505050505050565b611674826106fe565b61167d81611a3c565b61073a8383611ae7565b61168f612a35565b60008281526004602081815260408084208454825163916e1c5760e01b815292519195946001600160a01b039091169363916e1c5793808301939192908290030181865afa1580156116e5573d6000803e3d6000fd5b505050506040513d601f19601f8201168201806040525081019061170991906134b8565b604080516101c0810182528454815260018501546001600160a01b039081166020830152600286015481169282019290925260038501548216606082015260048501549091166080820152600584018054929350909160a08301919061176e906132a2565b80601f016020809104026020016040519081016040528092919081815260200182805461179a906132a2565b80156117e75780601f106117bc576101008083540402835291602001916117e7565b820191906000526020600020905b8154815290600101906020018083116117ca57829003601f168201915b50505050508152602001836006018054611800906132a2565b80601f016020809104026020016040519081016040528092919081815260200182805461182c906132a2565b80156118795780601f1061184e57610100808354040283529160200191611879565b820191906000526020600020905b81548152906001019060200180831161185c57829003601f168201915b50505050508152602001836007018054611892906132a2565b80601f01602080910402602001604051908101604052809291908181526020018280546118be906132a2565b801561190b5780601f106118e05761010080835404028352916020019161190b565b820191906000526020600020905b8154815290600101906020018083116118ee57829003601f168201915b50505050508152602001836008018054611924906132a2565b80601f0160208091040260200160405190810160405280929190818152602001828054611950906132a2565b801561199d5780601f106119725761010080835404028352916020019161199d565b820191906000526020600020905b81548152906001019060200180831161198057829003601f168201915b505050918352505060098401546020820152600a8401546040820152600b84015460609091019060ff1660038111156119d8576119d8612c32565b8152600c8401546020820152600d9093015460ff1615156040909301929092525092915050565b60606000610e15836125c2565b6000610e15838361261e565b7f02dd7bc7dec4dceedda775e58dd541e08a116c6c53815c0bd028192f7b62680090565b6107988133612648565b600080611a51611a18565b9050611a5d8484610d34565b611add576000848152602082815260408083206001600160a01b03871684529091529020805460ff19166001179055611a933390565b6001600160a01b0316836001600160a01b0316857f2f8788117e7eff1d82e926ec794901d17c78024a50270940304540a733656f0d60405160405180910390a460019150506106da565b60009150506106da565b600080611af2611a18565b9050611afe8484610d34565b15611add576000848152602082815260408083206001600160a01b0387168085529252808320805460ff1916905551339287917ff6391f5c32d9c69d2a47ea670b442974b53935d1edc7fd64eb21e047a839171b9190a460019150506106da565b611b67612681565b6000611b71611d6e565b805460ff1916815590507f5db9ee0a495bf2e6ff9c91a7834c1ba4fdd244a5e8aa4e537bd38aeae4b073aa335b604051611bab9190612ad9565b60405180910390a150565b306001600160a01b037f0000000000000000000000000000000000000000000000000000000000000000161480611c3d57507f00000000000000000000000000000000000000000000000000000000000000006001600160a01b0316611c316000805160206137ba833981519152546001600160a01b031690565b6001600160a01b031614155b15611c5b5760405163703e46dd60e11b815260040160405180910390fd5b565b600061081b81611a3c565b816001600160a01b03166352d1902d6040518163ffffffff1660e01b8152600401602060405180830381865afa925050508015611cc2575060408051601f3d908101601f19168201909252611cbf918101906134b8565b60015b611cea5781604051634c9c8ce360e01b8152600401611ce19190612ad9565b60405180910390fd5b6000805160206137ba8339815191528114611d1b57604051632a87526960e21b815260048101829052602401611ce1565b61077383836126a6565b306001600160a01b037f00000000000000000000000000000000000000000000000000000000000000001614611c5b5760405163703e46dd60e11b815260040160405180910390fd5b7fcd5ed15c6e187e77e9aee88184c21f4f2182ab5827cb3b7e07fbedcd63f0330090565b60006106da825490565b60008060009054906101000a90046001600160a01b03166001600160a01b031663916e1c576040518163ffffffff1660e01b8152600401602060405180830381865afa158015611df0573d6000803e3d6000fd5b505050506040513d601f19601f82011682018060405250810190611e1491906134b8565b9050600181118015611ea257506000546001600160a01b031663c6b61e4c611e3d6001846134d1565b6040518263ffffffff1660e01b8152600401611e5b91815260200190565b608060405180830381865afa158015611e78573d6000803e3d6000fd5b505050506040513d601f19601f82011682018060405250810190611e9c91906134e4565b60600151155b15611ec0576040516319f9228360e01b815260040160405180910390fd5b6001600b83015460ff166003811115611edb57611edb612c32565b03611f5057600d82015460ff168015611f00575060038201546001600160a01b031615155b1561081b57600b8201805460ff191660021790558154611f22906008906126fc565b5081546040516000805160206137da83398151915290611f4490600290613557565b60405180910390a25050565b6002600b83015460ff166003811115611f6b57611f6b612c32565b0361081b57600d82015460ff161580611f8f575060038201546001600160a01b0316155b1561081b57600b8201805460ff191660011790558154611fb19060089061250e565b5081546040516000805160206137da83398151915290611f4490600190613557565b611fdb61201a565b6000611fe5611d6e565b805460ff1916600117815590507f62e78cea01bee320cd4e420270b5ea74000d11b0c9f74754ebdbfc544b05a258611b9e3390565b61202261083c565b15611c5b5760405163d93c066560e01b815260040160405180910390fd5b600061204a612708565b80549091506001190161207057604051633ee5aeb560e01b815260040160405180910390fd5b60029055565b60006120886040830160208401612bb8565b6001600160a01b031614806120b5575060006120aa6060830160408401612bb8565b6001600160a01b0316145b156120d35760405163e6c4247b60e01b815260040160405180910390fd5b600560006120e46020840184612bb8565b6001600160a01b031681526020810191909152604001600020541561211c57604051636e1ed6c560e11b815260040160405180910390fd5b600661212b60608301836135e3565b6040516121399291906134a8565b9081526020016040518091039020546000141580612164575061216261132e60608301836135e3565b155b156121825760405163430f13b360e01b815260040160405180910390fd5b6002543410156121a55760405163fe9ba5cd60e01b815260040160405180910390fd5b60006003600081546121b69061348f565b918290555060008181526004602081815260408084208454825163916e1c5760e01b8152925196975090956001600160a01b039091169363916e1c579383820193909291908290030181865afa158015612214573d6000803e3d6000fd5b505050506040513d601f19601f8201168201806040525081019061223891906134b8565b838355905061224a6020850185612bb8565b6001830180546001600160a01b0319166001600160a01b039290921691909117905561227c6040850160208601612bb8565b6002830180546001600160a01b0319166001600160a01b03929092169190911790556122ae6060850160408601612bb8565b6004830180546001600160a01b0319166001600160a01b03929092169190911790556122dd60608501856135e3565b60058401916122ed919083613630565b506122fb60808501856135e3565b600684019161230b919083613630565b5061231960a08501856135e3565b6007840191612329919083613630565b5061233760c08501856135e3565b6008840191612347919083613630565b5043600983015534600a830155600b8201805460ff1916600117905582600560006123756020880188612bb8565b6001600160a01b0316815260208101919091526040016000205582600661239f60608701876135e3565b6040516123ad9291906134a8565b90815260405160209181900382019020919091556123cd90850185612bb8565b6001600160a01b03168360008051602061381a8339815191526123f66040880160208901612bb8565b6124066060890160408a01612bb8565b61241360608a018a6135e3565b61242060808c018c6135e3565b61242d60a08e018e6135e3565b8e8060c0019061243d91906135e3565b6040516124539a99989796959493929190613712565b60405180910390a3826000805160206137da833981519152600160405161247a9190613557565b60405180910390a26001546040516000916001600160a01b03169034908381818185875af1925050503d80600081146124cf576040519150601f19603f3d011682016040523d82523d6000602084013e6124d4565b606091505b50509050806124f6576040516312171d8360e31b815260040160405180910390fd5b5050505050565b6000612507612708565b6001905550565b6000610e15838361272c565b60008181805b825181101561256b5782818151811061253b5761253b61378d565b6020910101516001600160f81b031916600160fd1b14612563578161255f8161348f565b9250505b600101612520565b506003109392505050565b7ff0c57e16840df040f15088dc2f81fe391c3923bec73e23a9662efc9c229c6a0090565b611c5b612815565b6125aa612815565b611c5b61283a565b6125ba612815565b611c5b612842565b60608160000180548060200260200160405190810160405280929190818152602001828054801561261257602002820191906000526020600020905b8154815260200190600101908083116125fe575b50505050509050919050565b60008260000182815481106126355761263561378d565b9060005260206000200154905092915050565b6126528282610d34565b61081b5760405163e2517d3f60e01b81526001600160a01b038216600482015260248101839052604401611ce1565b61268961083c565b611c5b57604051638dfc202b60e01b815260040160405180910390fd5b6126af8261285f565b6040516001600160a01b038316907fbc7cd75a20ee27fd9adebab32041f755214dbc6bffa90cc0225b39da2e5c2d3b90600090a28051156126f45761077382826128bb565b61081b612931565b6000610e158383612950565b7f9b779b17422d0df92223018b32b4d1fa46e071723d6817e2486d003becc55f0090565b60008181526001830160205260408120548015611add5760006127506001836134d1565b8554909150600090612764906001906134d1565b90508082146127c95760008660000182815481106127845761278461378d565b90600052602060002001549050808760000184815481106127a7576127a761378d565b6000918252602080832090910192909255918252600188019052604090208390555b85548690806127da576127da6137a3565b6001900381819060005260206000200160009055905585600101600086815260200190815260200160002060009055600193505050506106da565b61281d61299f565b611c5b57604051631afcd79f60e31b815260040160405180910390fd5b6124fd612815565b61284a612815565b6000612854611d6e565b805460ff1916905550565b806001600160a01b03163b60000361288c5780604051634c9c8ce360e01b8152600401611ce19190612ad9565b6000805160206137ba83398151915280546001600160a01b0319166001600160a01b0392909216919091179055565b6060600080846001600160a01b0316846040516128d891906133ea565b600060405180830381855af49150503d8060008114612913576040519150601f19603f3d011682016040523d82523d6000602084013e612918565b606091505b50915091506129288583836129b9565b95945050505050565b3415611c5b5760405163b398979f60e01b815260040160405180910390fd5b6000818152600183016020526040812054612997575081546001818101845560008481526020808220909301849055845484825282860190935260409020919091556106da565b5060006106da565b60006129a9612576565b54600160401b900460ff16919050565b6060826129ce576129c982612a0c565b610e15565b81511580156129e557506001600160a01b0384163b155b15612a055783604051639996b31560e01b8152600401611ce19190612ad9565b5092915050565b805115612a1c5780518082602001fd5b604051630a12f52160e11b815260040160405180910390fd5b604051806101c001604052806000815260200160006001600160a01b0316815260200160006001600160a01b0316815260200160006001600160a01b0316815260200160006001600160a01b0316815260200160608152602001606081526020016060815260200160608152602001600081526020016000815260200160006003811115612ac557612ac5612c32565b815260006020820181905260409091015290565b6001600160a01b0391909116815260200190565b600060208284031215612aff57600080fd5b81356001600160e01b031981168114610e1557600080fd5b602080825282518282018190526000918401906040840190835b81811015612b4f578351835260209384019390920191600101612b31565b509095945050505050565b600060208284031215612b6c57600080fd5b5035919050565b6001600160a01b038116811461079857600080fd5b60008060408385031215612b9b57600080fd5b823591506020830135612bad81612b73565b809150509250929050565b600060208284031215612bca57600080fd5b8135610e1581612b73565b6001600160a01b03169052565b60005b83811015612bfd578181015183820152602001612be5565b50506000910152565b60008151808452612c1e816020860160208601612be2565b601f01601f19169290920160200192915050565b634e487b7160e01b600052602160045260246000fd5b60048110612c6657634e487b7160e01b600052602160045260246000fd5b9052565b602081528151602082015260006020830151612c896040840182612bd5565b506040830151612c9c6060840182612bd5565b506060830151612caf6080840182612bd5565b506080830151612cc260a0840182612bd5565b5060a08301516101c060c0840152612cde6101e0840182612c06565b905060c0840151601f198483030160e0850152612cfb8282612c06565b91505060e0840151601f1984830301610100850152612d1a8282612c06565b915050610100840151601f1984830301610120850152612d3a8282612c06565b915050610120840151610140840152610140840151610160840152610160840151612d69610180850182612c48565b506101808401516101a08401526101a0840151612d8b6101c085018215159052565b509392505050565b634e487b7160e01b600052604160045260246000fd5b6040516101c081016001600160401b0381118282101715612dcc57612dcc612d93565b60405290565b604051601f8201601f191681016001600160401b0381118282101715612dfa57612dfa612d93565b604052919050565b60006001600160401b03821115612e1b57612e1b612d93565b50601f01601f191660200190565b6000612e3c612e3784612e02565b612dd2565b9050828152838383011115612e5057600080fd5b828260208301376000602084830101529392505050565b60008060408385031215612e7a57600080fd5b8235612e8581612b73565b915060208301356001600160401b03811115612ea057600080fd5b8301601f81018513612eb157600080fd5b612ec085823560208401612e29565b9150509250929050565b600080600060608486031215612edf57600080fd5b8335612eea81612b73565b95602085013595506040909401359392505050565b801515811461079857600080fd5b60008060408385031215612f2057600080fd5b823591506020830135612bad81612eff565b600060208284031215612f4457600080fd5b81356001600160401b03811115612f5a57600080fd5b8201601f81018413612f6b57600080fd5b612f7a84823560208401612e29565b949350505050565b60008060408385031215612f9557600080fd5b50508035926020909101359150565b600060e08284031215612fb657600080fd5b50919050565b600060208284031215612fce57600080fd5b81356001600160401b03811115612fe457600080fd5b612f7a84828501612fa4565b6000806020838503121561300357600080fd5b82356001600160401b0381111561301957600080fd5b8301601f8101851361302a57600080fd5b80356001600160401b0381111561304057600080fd5b85602082840101111561305257600080fd5b6020919091019590945092505050565b602081526000610e156020830184612c06565b6000806040838503121561308857600080fd5b8235915060208301356001600160401b038111156130a557600080fd5b612ec085828601612fa4565b80516130bc81612b73565b919050565b600082601f8301126130d257600080fd5b81516130e0612e3782612e02565b8181528460208386010111156130f557600080fd5b612f7a826020830160208701612be2565b8051600581106130bc57600080fd5b80516130bc81612eff565b60006020828403121561313257600080fd5b81516001600160401b0381111561314857600080fd5b82016101c0818503121561315b57600080fd5b613163612da9565b81518152613173602083016130b1565b6020820152613184604083016130b1565b6040820152613195606083016130b1565b60608201526080828101519082015260a0808301519082015260c08201516001600160401b038111156131c757600080fd5b6131d3868285016130c1565b60c08301525060e08201516001600160401b038111156131f257600080fd5b6131fe868285016130c1565b60e0830152506101008201516001600160401b0381111561321e57600080fd5b61322a868285016130c1565b610100830152506101208201516001600160401b0381111561324b57600080fd5b613257868285016130c1565b6101208301525061326b6101408301613106565b610140820152610160828101519082015261018080830151908201526132946101a08301613115565b6101a0820152949350505050565b600181811c908216806132b657607f821691505b602082108103612fb657634e487b7160e01b600052602260045260246000fd5b601f82111561077357806000526020600020601f840160051c810160208510156132fd5750805b601f840160051c820191505b818110156124f65760008155600101613309565b600019600383901b1c191660019190911b1790565b81516001600160401b0381111561334b5761334b612d93565b61335f8161335984546132a2565b846132d6565b6020601f82116001811461338d576000831561337b5750848201515b613385848261331d565b8555506124f6565b600084815260208120601f198516915b828110156133bd578785015182556020948501946001909201910161339d565b50848210156133db5786840151600019600387901b60f8161c191681555b50505050600190811b01905550565b600082516133fc818460208701612be2565b9190910192915050565b6001600160a01b0387811682528616602082015260c06040820181905260009061343290830187612c06565b82810360608401526134448187612c06565b905082810360808401526134588186612c06565b905082810360a084015261346c8185612c06565b9998505050505050505050565b634e487b7160e01b600052601160045260246000fd5b6000600182016134a1576134a1613479565b5060010190565b8183823760009101908152919050565b6000602082840312156134ca57600080fd5b5051919050565b818103818111156106da576106da613479565b600060808284031280156134f757600080fd5b50604051600090608081016001600160401b038111828210171561351d5761351d612d93565b6040908152845182526020808601519083015284810151908201526060840151915061354882612eff565b60608101919091529392505050565b602081016106da8284612c48565b60008154613572816132a2565b600182168015613589576001811461359e576135ce565b60ff19831686528115158202860193506135ce565b84600052602060002060005b838110156135c6578154888201526001909101906020016135aa565b505081860193505b50505092915050565b6000610e158284613565565b6000808335601e198436030181126135fa57600080fd5b8301803591506001600160401b0382111561361457600080fd5b60200191503681900382131561362957600080fd5b9250929050565b6001600160401b0383111561364757613647612d93565b61365b8361365583546132a2565b836132d6565b6000601f84116001811461368957600085156136775750838201355b613681868261331d565b8455506124f6565b600083815260209020601f19861690835b828110156136ba578685013582556020948501946001909201910161369a565b50868210156136d75760001960f88860031b161c19848701351681555b505060018560011b0183555050505050565b81835281816020850137506000828201602090810191909152601f909101601f19169091010190565b6001600160a01b038b811682528a16602082015260c06040820181905260009061373f9083018a8c6136e9565b828103606084015261375281898b6136e9565b905082810360808401526137678187896136e9565b905082810360a084015261377c8185876136e9565b9d9c50505050505050505050505050565b634e487b7160e01b600052603260045260246000fd5b634e487b7160e01b600052603160045260246000fdfe360894a13ba1a3210667c828492db98dca3e2076cc3735a920a3ca505d382bbc77c6570970c38bcbef0f4075021f00b93c11bf5ecdb11f0a03db50dcbf584ad8339759585899103d2ace64958e37e18ccb0504652c81d4a1b8aa80fe2126ab9581fcb2f447f377b0f52d7c0ba6265f7369561e352e3279ac76480983f81f319ca26469706673582212200cb9a89daf169abc5d4e356d12181fd4ca1c739a4fc73696692d018c8c7c276a64736f6c634300081c0033",
  "devdoc": {
    "errors": {
      "AccessControlBadConfirmation()": [
        {
          "details": "The caller of a function is not the expected one. NOTE: Don't confuse with {AccessControlUnauthorizedAccount}."
        }
      ],
      "AccessControlUnauthorizedAccount(address,bytes32)": [
        {
          "details": "The `account` is missing a role."
        }
      ],
      "AddressEmptyCode(address)": [
        {
          "details": "There's no code at `target` (it is not a contract)."
        }
      ],
      "ERC1967InvalidImplementation(address)": [
        {
          "details": "The `implementation` of the proxy is invalid."
        }
      ],
      "ERC1967NonPayable()": [
        {
          "details": "An upgrade function sees `msg.value > 0` that may be lost."
        }
      ],
      "EnforcedPause()": [
        {
          "details": "The operation failed because the contract is paused."
        }
      ],
      "ExpectedPause()": [
        {
          "details": "The operation failed because the contract is not paused."
        }
      ],
      "FailedInnerCall()": [
        {
          "details": "A call to an address target failed. The target may have reverted."
        }
      ],
      "InvalidInitialization()": [
        {
          "details": "The contract is already initialized."
        }
      ],
      "NotInitializing()": [
        {
          "details": "The contract is not initializing."
        }
      ],
      "ReentrancyGuardReentrantCall()": [
        {
          "details": "Unauthorized reentrant call."
        }
      ],
      "UUPSUnauthorizedCallContext()": [
        {
          "details": "The call is from an unauthorized context."
        }
      ],
      "UUPSUnsupportedProxiableUUID(bytes32)": [
        {
          "details": "The storage `slot` is unsupported as a UUID."
        }
      ]
    },
    "events": {
      "Initialized(uint64)": {
        "details": "Triggered when the contract has been initialized or reinitialized."
      },
      "Paused(address)": {
        "details": "Emitted when the pause is triggered by `account`."
      },
      "RoleAdminChanged(bytes32,bytes32,bytes32)": {
        "details": "Emitted when `newAdminRole` is set as ``role``'s admin role, replacing `previousAdminRole` `DEFAULT_ADMIN_ROLE` is the starting admin for all roles, despite {RoleAdminChanged} not being emitted signaling this."
      },
      "RoleGranted(bytes32,address,address)": {
        "details": "Emitted when `account` is granted `role`. `sender` is the account that originated the contract call, an admin role bearer except when using {AccessControl-_setupRole}."
      },
      "RoleRevoked(bytes32,address,address)": {
        "details": "Emitted when `account` is revoked `role`. `sender` is the account that originated the contract call:   - if using `revokeRole`, it is the admin role bearer   - if using `renounceRole`, it is the role bearer (i.e. `account`)"
      },
      "Unpaused(address)": {
        "details": "Emitted when the pause is lifted by `account`."
      },
      "Upgraded(address)": {
        "details": "Emitted when the implementation is upgraded."
      }
    },
    "kind": "dev",
    "methods": {
      "constructor": {
        "custom:oz-upgrades-unsafe-allow": "constructor"
      },
      "getRoleAdmin(bytes32)": {
        "details": "Returns the admin role that controls `role`. See {grantRole} and {revokeRole}. To change a role's admin, use {_setRoleAdmin}."
      },
      "grantRole(bytes32,address)": {
        "details": "Grants `role` to `account`. If `account` had not been already granted `role`, emits a {RoleGranted} event. Requirements: - the caller must have ``role``'s admin role. May emit a {RoleGranted} event."
      },
      "hasRole(bytes32,address)": {
        "details": "Returns `true` if `account` has been granted `role`."
      },
      "paused()": {
        "details": "Returns true if the contract is paused, and false otherwise."
      },
      "proxiableUUID()": {
        "details": "Implementation of the ERC1822 {proxiableUUID} function. This returns the storage slot used by the implementation. It is used to validate the implementation's compatibility when performing an upgrade. IMPORTANT: A proxy pointing at a proxiable contract should not be considered proxiable itself, because this risks bricking a proxy that upgrades to it, by delegating to itself until out of gas. Thus it is critical that this function revert if invoked through a proxy. This is guaranteed by the `notDelegated` modifier."
      },
      "renounceRole(bytes32,address)": {
        "details": "Revokes `role` from the calling account. Roles are often managed via {grantRole} and {revokeRole}: this function's purpose is to provide a mechanism for accounts to lose their privileges if they are compromised (such as when a trusted device is misplaced). If the calling account had been revoked `role`, emits a {RoleRevoked} event. Requirements: - the caller must be `callerConfirmation`. May emit a {RoleRevoked} event."
      },
      "revokeRole(bytes32,address)": {
        "details": "Revokes `role` from `account`. If `account` had been granted `role`, emits a {RoleRevoked} event. Requirements: - the caller must have ``role``'s admin role. May emit a {RoleRevoked} event."
      },
      "supportsInterface(bytes4)": {
        "details": "See {IERC165-supportsInterface}."
      },
      "updateDlp(uint256,(address,address,address,string,string,string,string))": {
        "details": "Only DLP owner can update"
      },
      "upgradeToAndCall(address,bytes)": {
        "custom:oz-upgrades-unsafe-allow-reachable": "delegatecall",
        "details": "Upgrade the implementation of the proxy to `newImplementation`, and subsequently execute the function call encoded in `data`. Calls {_authorizeUpgrade}. Emits an {Upgraded} event."
      }
    },
    "version": 1
  },
  "userdoc": {
    "kind": "user",
    "methods": {
      "updateDlp(uint256,(address,address,address,string,string,string,string))": {
        "notice": "Updates DLP information"
      }
    },
    "version": 1
  },
  "storageLayout": {
    "storage": [
      {
        "astId": 14238,
        "contract": "contracts/dlpRegistry/DLPRegistryImplementation.sol:DLPRegistryImplementation",
        "label": "vanaEpoch",
        "offset": 0,
        "slot": "0",
        "type": "t_contract(IVanaEpoch)19847"
      },
      {
        "astId": 14242,
        "contract": "contracts/dlpRegistry/DLPRegistryImplementation.sol:DLPRegistryImplementation",
        "label": "treasury",
        "offset": 0,
        "slot": "1",
        "type": "t_contract(ITreasury)18856"
      },
      {
        "astId": 14245,
        "contract": "contracts/dlpRegistry/DLPRegistryImplementation.sol:DLPRegistryImplementation",
        "label": "dlpRegistrationDepositAmount",
        "offset": 0,
        "slot": "2",
        "type": "t_uint256"
      },
      {
        "astId": 14248,
        "contract": "contracts/dlpRegistry/DLPRegistryImplementation.sol:DLPRegistryImplementation",
        "label": "dlpsCount",
        "offset": 0,
        "slot": "3",
        "type": "t_uint256"
      },
      {
        "astId": 14253,
        "contract": "contracts/dlpRegistry/DLPRegistryImplementation.sol:DLPRegistryImplementation",
        "label": "_dlps",
        "offset": 0,
        "slot": "4",
        "type": "t_mapping(t_uint256,t_struct(Dlp)14313_storage)"
      },
      {
        "astId": 14258,
        "contract": "contracts/dlpRegistry/DLPRegistryImplementation.sol:DLPRegistryImplementation",
        "label": "dlpIds",
        "offset": 0,
        "slot": "5",
        "type": "t_mapping(t_address,t_uint256)"
      },
      {
        "astId": 14263,
        "contract": "contracts/dlpRegistry/DLPRegistryImplementation.sol:DLPRegistryImplementation",
        "label": "dlpNameToId",
        "offset": 0,
        "slot": "6",
        "type": "t_mapping(t_string_memory_ptr,t_uint256)"
      },
      {
        "astId": 14266,
        "contract": "contracts/dlpRegistry/DLPRegistryImplementation.sol:DLPRegistryImplementation",
        "label": "eligibleDlpsLimit",
        "offset": 0,
        "slot": "7",
        "type": "t_uint256"
      },
      {
        "astId": 14269,
        "contract": "contracts/dlpRegistry/DLPRegistryImplementation.sol:DLPRegistryImplementation",
        "label": "_eligibleDlpsList",
        "offset": 0,
        "slot": "8",
        "type": "t_struct(UintSet)10692_storage"
      }
    ],
    "types": {
      "t_address": {
        "encoding": "inplace",
        "label": "address",
        "numberOfBytes": "20"
      },
      "t_address_payable": {
        "encoding": "inplace",
        "label": "address payable",
        "numberOfBytes": "20"
      },
      "t_array(t_bytes32)dyn_storage": {
        "base": "t_bytes32",
        "encoding": "dynamic_array",
        "label": "bytes32[]",
        "numberOfBytes": "32"
      },
      "t_bool": {
        "encoding": "inplace",
        "label": "bool",
        "numberOfBytes": "1"
      },
      "t_bytes32": {
        "encoding": "inplace",
        "label": "bytes32",
        "numberOfBytes": "32"
      },
      "t_contract(ITreasury)18856": {
        "encoding": "inplace",
        "label": "contract ITreasury",
        "numberOfBytes": "20"
      },
      "t_contract(IVanaEpoch)19847": {
        "encoding": "inplace",
        "label": "contract IVanaEpoch",
        "numberOfBytes": "20"
      },
      "t_enum(DlpStatus)14283": {
        "encoding": "inplace",
        "label": "enum IDLPRegistry.DlpStatus",
        "numberOfBytes": "1"
      },
      "t_mapping(t_address,t_uint256)": {
        "encoding": "mapping",
        "key": "t_address",
        "label": "mapping(address => uint256)",
        "numberOfBytes": "32",
        "value": "t_uint256"
      },
      "t_mapping(t_bytes32,t_uint256)": {
        "encoding": "mapping",
        "key": "t_bytes32",
        "label": "mapping(bytes32 => uint256)",
        "numberOfBytes": "32",
        "value": "t_uint256"
      },
      "t_mapping(t_string_memory_ptr,t_uint256)": {
        "encoding": "mapping",
        "key": "t_string_memory_ptr",
        "label": "mapping(string => uint256)",
        "numberOfBytes": "32",
        "value": "t_uint256"
      },
      "t_mapping(t_uint256,t_struct(Dlp)14313_storage)": {
        "encoding": "mapping",
        "key": "t_uint256",
        "label": "mapping(uint256 => struct IDLPRegistry.Dlp)",
        "numberOfBytes": "32",
        "value": "t_struct(Dlp)14313_storage"
      },
      "t_string_memory_ptr": {
        "encoding": "bytes",
        "label": "string",
        "numberOfBytes": "32"
      },
      "t_string_storage": {
        "encoding": "bytes",
        "label": "string",
        "numberOfBytes": "32"
      },
      "t_struct(Dlp)14313_storage": {
        "encoding": "inplace",
        "label": "struct IDLPRegistry.Dlp",
        "members": [
          {
            "astId": 14285,
            "contract": "contracts/dlpRegistry/DLPRegistryImplementation.sol:DLPRegistryImplementation",
            "label": "id",
            "offset": 0,
            "slot": "0",
            "type": "t_uint256"
          },
          {
            "astId": 14287,
            "contract": "contracts/dlpRegistry/DLPRegistryImplementation.sol:DLPRegistryImplementation",
            "label": "dlpAddress",
            "offset": 0,
            "slot": "1",
            "type": "t_address"
          },
          {
            "astId": 14289,
            "contract": "contracts/dlpRegistry/DLPRegistryImplementation.sol:DLPRegistryImplementation",
            "label": "ownerAddress",
            "offset": 0,
            "slot": "2",
            "type": "t_address"
          },
          {
            "astId": 14291,
            "contract": "contracts/dlpRegistry/DLPRegistryImplementation.sol:DLPRegistryImplementation",
            "label": "tokenAddress",
            "offset": 0,
            "slot": "3",
            "type": "t_address"
          },
          {
            "astId": 14293,
            "contract": "contracts/dlpRegistry/DLPRegistryImplementation.sol:DLPRegistryImplementation",
            "label": "treasuryAddress",
            "offset": 0,
            "slot": "4",
            "type": "t_address_payable"
          },
          {
            "astId": 14295,
            "contract": "contracts/dlpRegistry/DLPRegistryImplementation.sol:DLPRegistryImplementation",
            "label": "name",
            "offset": 0,
            "slot": "5",
            "type": "t_string_storage"
          },
          {
            "astId": 14297,
            "contract": "contracts/dlpRegistry/DLPRegistryImplementation.sol:DLPRegistryImplementation",
            "label": "iconUrl",
            "offset": 0,
            "slot": "6",
            "type": "t_string_storage"
          },
          {
            "astId": 14299,
            "contract": "contracts/dlpRegistry/DLPRegistryImplementation.sol:DLPRegistryImplementation",
            "label": "website",
            "offset": 0,
            "slot": "7",
            "type": "t_string_storage"
          },
          {
            "astId": 14301,
            "contract": "contracts/dlpRegistry/DLPRegistryImplementation.sol:DLPRegistryImplementation",
            "label": "metadata",
            "offset": 0,
            "slot": "8",
            "type": "t_string_storage"
          },
          {
            "astId": 14303,
            "contract": "contracts/dlpRegistry/DLPRegistryImplementation.sol:DLPRegistryImplementation",
            "label": "registrationBlockNumber",
            "offset": 0,
            "slot": "9",
            "type": "t_uint256"
          },
          {
            "astId": 14305,
            "contract": "contracts/dlpRegistry/DLPRegistryImplementation.sol:DLPRegistryImplementation",
            "label": "depositAmount",
            "offset": 0,
            "slot": "10",
            "type": "t_uint256"
          },
          {
            "astId": 14308,
            "contract": "contracts/dlpRegistry/DLPRegistryImplementation.sol:DLPRegistryImplementation",
            "label": "status",
            "offset": 0,
            "slot": "11",
            "type": "t_enum(DlpStatus)14283"
          },
          {
            "astId": 14310,
            "contract": "contracts/dlpRegistry/DLPRegistryImplementation.sol:DLPRegistryImplementation",
            "label": "lpTokenId",
            "offset": 0,
            "slot": "12",
            "type": "t_uint256"
          },
          {
            "astId": 14312,
            "contract": "contracts/dlpRegistry/DLPRegistryImplementation.sol:DLPRegistryImplementation",
            "label": "isVerified",
            "offset": 0,
            "slot": "13",
            "type": "t_bool"
          }
        ],
        "numberOfBytes": "448"
      },
      "t_struct(Set)10220_storage": {
        "encoding": "inplace",
        "label": "struct EnumerableSet.Set",
        "members": [
          {
            "astId": 10215,
            "contract": "contracts/dlpRegistry/DLPRegistryImplementation.sol:DLPRegistryImplementation",
            "label": "_values",
            "offset": 0,
            "slot": "0",
            "type": "t_array(t_bytes32)dyn_storage"
          },
          {
            "astId": 10219,
            "contract": "contracts/dlpRegistry/DLPRegistryImplementation.sol:DLPRegistryImplementation",
            "label": "_positions",
            "offset": 0,
            "slot": "1",
            "type": "t_mapping(t_bytes32,t_uint256)"
          }
        ],
        "numberOfBytes": "64"
      },
      "t_struct(UintSet)10692_storage": {
        "encoding": "inplace",
        "label": "struct EnumerableSet.UintSet",
        "members": [
          {
            "astId": 10691,
            "contract": "contracts/dlpRegistry/DLPRegistryImplementation.sol:DLPRegistryImplementation",
            "label": "_inner",
            "offset": 0,
            "slot": "0",
            "type": "t_struct(Set)10220_storage"
          }
        ],
        "numberOfBytes": "64"
      },
      "t_uint256": {
        "encoding": "inplace",
        "label": "uint256",
        "numberOfBytes": "32"
      }
    }
  }
}