{
  "address": "0x5c68f5f04e70489e19298b07B1d534681eC00f4a",
  "abi": [
    {
      "inputs": [],
      "stateMutability": "nonpayable",
      "type": "constructor"
    },
    {
      "inputs": [],
      "name": "AccessControlBadConfirmation",
      "type": "error"
    },
    {
      "inputs": [
        {
          "internalType": "address",
          "name": "account",
          "type": "address"
        },
        {
          "internalType": "bytes32",
          "name": "neededRole",
          "type": "bytes32"
        }
      ],
      "name": "AccessControlUnauthorizedAccount",
      "type": "error"
    },
    {
      "inputs": [
        {
          "internalType": "address",
          "name": "target",
          "type": "address"
        }
      ],
      "name": "AddressEmptyCode",
      "type": "error"
    },
    {
      "inputs": [
        {
          "internalType": "address",
          "name": "implementation",
          "type": "address"
        }
      ],
      "name": "ERC1967InvalidImplementation",
      "type": "error"
    },
    {
      "inputs": [],
      "name": "ERC1967NonPayable",
      "type": "error"
    },
    {
      "inputs": [],
      "name": "EnforcedPause",
      "type": "error"
    },
    {
      "inputs": [],
      "name": "EpochAlreadyFinalized",
      "type": "error"
    },
    {
      "inputs": [],
      "name": "EpochNotEnded",
      "type": "error"
    },
    {
      "inputs": [],
      "name": "EpochRewardExceeded",
      "type": "error"
    },
    {
      "inputs": [],
      "name": "EpochRewardNotDistributed",
      "type": "error"
    },
    {
      "inputs": [],
      "name": "ExpectedPause",
      "type": "error"
    },
    {
      "inputs": [],
      "name": "FailedInnerCall",
      "type": "error"
    },
    {
      "inputs": [],
      "name": "InvalidEpoch",
      "type": "error"
    },
    {
      "inputs": [],
      "name": "InvalidInitialization",
      "type": "error"
    },
    {
      "inputs": [],
      "name": "NotInitializing",
      "type": "error"
    },
    {
      "inputs": [],
      "name": "ReentrancyGuardReentrantCall",
      "type": "error"
    },
    {
      "inputs": [],
      "name": "UUPSUnauthorizedCallContext",
      "type": "error"
    },
    {
      "inputs": [
        {
          "internalType": "bytes32",
          "name": "slot",
          "type": "bytes32"
        }
      ],
      "name": "UUPSUnsupportedProxiableUUID",
      "type": "error"
    },
    {
      "anonymous": false,
      "inputs": [
        {
          "indexed": false,
          "internalType": "uint256",
          "name": "epochId",
          "type": "uint256"
        },
        {
          "indexed": false,
          "internalType": "uint256",
          "name": "startBlock",
          "type": "uint256"
        },
        {
          "indexed": false,
          "internalType": "uint256",
          "name": "endBlock",
          "type": "uint256"
        },
        {
          "indexed": false,
          "internalType": "uint256",
          "name": "rewardAmount",
          "type": "uint256"
        }
      ],
      "name": "EpochCreated",
      "type": "event"
    },
    {
      "anonymous": false,
      "inputs": [
        {
          "indexed": false,
          "internalType": "uint256",
          "name": "epochId",
          "type": "uint256"
        },
        {
          "indexed": false,
          "internalType": "uint256",
          "name": "dlpId",
          "type": "uint256"
        },
        {
          "indexed": false,
          "internalType": "uint256",
          "name": "rewardAmount",
          "type": "uint256"
        }
      ],
      "name": "EpochDlpRewardAdded",
      "type": "event"
    },
    {
      "anonymous": false,
      "inputs": [
        {
          "indexed": false,
          "internalType": "uint256",
          "name": "epochId",
          "type": "uint256"
        }
      ],
      "name": "EpochFinalized",
      "type": "event"
    },
    {
      "anonymous": false,
      "inputs": [
        {
          "indexed": false,
          "internalType": "uint256",
          "name": "newEpochRewardAmount",
          "type": "uint256"
        }
      ],
      "name": "EpochRewardAmountUpdated",
      "type": "event"
    },
    {
      "anonymous": false,
      "inputs": [
        {
          "indexed": false,
          "internalType": "uint256",
          "name": "newEpochSize",
          "type": "uint256"
        }
      ],
      "name": "EpochSizeUpdated",
      "type": "event"
    },
    {
      "anonymous": false,
      "inputs": [
        {
          "indexed": false,
          "internalType": "uint64",
          "name": "version",
          "type": "uint64"
        }
      ],
      "name": "Initialized",
      "type": "event"
    },
    {
      "anonymous": false,
      "inputs": [
        {
          "indexed": false,
          "internalType": "address",
          "name": "account",
          "type": "address"
        }
      ],
      "name": "Paused",
      "type": "event"
    },
    {
      "anonymous": false,
      "inputs": [
        {
          "indexed": true,
          "internalType": "bytes32",
          "name": "role",
          "type": "bytes32"
        },
        {
          "indexed": true,
          "internalType": "bytes32",
          "name": "previousAdminRole",
          "type": "bytes32"
        },
        {
          "indexed": true,
          "internalType": "bytes32",
          "name": "newAdminRole",
          "type": "bytes32"
        }
      ],
      "name": "RoleAdminChanged",
      "type": "event"
    },
    {
      "anonymous": false,
      "inputs": [
        {
          "indexed": true,
          "internalType": "bytes32",
          "name": "role",
          "type": "bytes32"
        },
        {
          "indexed": true,
          "internalType": "address",
          "name": "account",
          "type": "address"
        },
        {
          "indexed": true,
          "internalType": "address",
          "name": "sender",
          "type": "address"
        }
      ],
      "name": "RoleGranted",
      "type": "event"
    },
    {
      "anonymous": false,
      "inputs": [
        {
          "indexed": true,
          "internalType": "bytes32",
          "name": "role",
          "type": "bytes32"
        },
        {
          "indexed": true,
          "internalType": "address",
          "name": "account",
          "type": "address"
        },
        {
          "indexed": true,
          "internalType": "address",
          "name": "sender",
          "type": "address"
        }
      ],
      "name": "RoleRevoked",
      "type": "event"
    },
    {
      "anonymous": false,
      "inputs": [
        {
          "indexed": false,
          "internalType": "address",
          "name": "account",
          "type": "address"
        }
      ],
      "name": "Unpaused",
      "type": "event"
    },
    {
      "anonymous": false,
      "inputs": [
        {
          "indexed": true,
          "internalType": "address",
          "name": "implementation",
          "type": "address"
        }
      ],
      "name": "Upgraded",
      "type": "event"
    },
    {
      "inputs": [],
      "name": "DEFAULT_ADMIN_ROLE",
      "outputs": [
        {
          "internalType": "bytes32",
          "name": "",
          "type": "bytes32"
        }
      ],
      "stateMutability": "view",
      "type": "function"
    },
    {
      "inputs": [],
      "name": "DLP_PERFORMANCE_ROLE",
      "outputs": [
        {
          "internalType": "bytes32",
          "name": "",
          "type": "bytes32"
        }
      ],
      "stateMutability": "view",
      "type": "function"
    },
    {
      "inputs": [],
      "name": "MAINTAINER_ROLE",
      "outputs": [
        {
          "internalType": "bytes32",
          "name": "",
          "type": "bytes32"
        }
      ],
      "stateMutability": "view",
      "type": "function"
    },
    {
      "inputs": [],
      "name": "UPGRADE_INTERFACE_VERSION",
      "outputs": [
        {
          "internalType": "string",
          "name": "",
          "type": "string"
        }
      ],
      "stateMutability": "view",
      "type": "function"
    },
    {
      "inputs": [],
      "name": "createEpochs",
      "outputs": [],
      "stateMutability": "nonpayable",
      "type": "function"
    },
    {
      "inputs": [
        {
          "internalType": "uint256",
          "name": "blockNumber",
          "type": "uint256"
        }
      ],
      "name": "createEpochsUntilBlockNumber",
      "outputs": [],
      "stateMutability": "nonpayable",
      "type": "function"
    },
    {
      "inputs": [],
      "name": "daySize",
      "outputs": [
        {
          "internalType": "uint256",
          "name": "",
          "type": "uint256"
        }
      ],
      "stateMutability": "view",
      "type": "function"
    },
    {
      "inputs": [],
      "name": "dlpPerformance",
      "outputs": [
        {
          "internalType": "contract IDLPPerformance",
          "name": "",
          "type": "address"
        }
      ],
      "stateMutability": "view",
      "type": "function"
    },
    {
      "inputs": [],
      "name": "dlpRegistry",
      "outputs": [
        {
          "internalType": "contract IDLPRegistry",
          "name": "",
          "type": "address"
        }
      ],
      "stateMutability": "view",
      "type": "function"
    },
    {
      "inputs": [
        {
          "internalType": "uint256",
          "name": "epochId",
          "type": "uint256"
        }
      ],
      "name": "epochDlpIds",
      "outputs": [
        {
          "internalType": "uint256[]",
          "name": "",
          "type": "uint256[]"
        }
      ],
      "stateMutability": "view",
      "type": "function"
    },
    {
      "inputs": [
        {
          "internalType": "uint256",
          "name": "epochId",
          "type": "uint256"
        },
        {
          "internalType": "uint256",
          "name": "dlpId",
          "type": "uint256"
        }
      ],
      "name": "epochDlps",
      "outputs": [
        {
          "components": [
            {
              "internalType": "bool",
              "name": "isTopDlp",
              "type": "bool"
            },
            {
              "internalType": "uint256",
              "name": "rewardAmount",
              "type": "uint256"
            }
          ],
          "internalType": "struct IVanaEpoch.EpochDlpInfo",
          "name": "",
          "type": "tuple"
        }
      ],
      "stateMutability": "view",
      "type": "function"
    },
    {
      "inputs": [],
      "name": "epochRewardAmount",
      "outputs": [
        {
          "internalType": "uint256",
          "name": "",
          "type": "uint256"
        }
      ],
      "stateMutability": "view",
      "type": "function"
    },
    {
      "inputs": [],
      "name": "epochSize",
      "outputs": [
        {
          "internalType": "uint256",
          "name": "",
          "type": "uint256"
        }
      ],
      "stateMutability": "view",
      "type": "function"
    },
    {
      "inputs": [
        {
          "internalType": "uint256",
          "name": "epochId",
          "type": "uint256"
        }
      ],
      "name": "epochs",
      "outputs": [
        {
          "components": [
            {
              "internalType": "uint256",
              "name": "startBlock",
              "type": "uint256"
            },
            {
              "internalType": "uint256",
              "name": "endBlock",
              "type": "uint256"
            },
            {
              "internalType": "uint256",
              "name": "rewardAmount",
              "type": "uint256"
            },
            {
              "internalType": "bool",
              "name": "isFinalized",
              "type": "bool"
            }
          ],
          "internalType": "struct IVanaEpoch.EpochInfo",
          "name": "",
          "type": "tuple"
        }
      ],
      "stateMutability": "view",
      "type": "function"
    },
    {
      "inputs": [],
      "name": "epochsCount",
      "outputs": [
        {
          "internalType": "uint256",
          "name": "",
          "type": "uint256"
        }
      ],
      "stateMutability": "view",
      "type": "function"
    },
    {
      "inputs": [
        {
          "internalType": "uint256",
          "name": "epochId",
          "type": "uint256"
        }
      ],
      "name": "forceFinalizedEpoch",
      "outputs": [],
      "stateMutability": "nonpayable",
      "type": "function"
    },
    {
      "inputs": [
        {
          "internalType": "bytes32",
          "name": "role",
          "type": "bytes32"
        }
      ],
      "name": "getRoleAdmin",
      "outputs": [
        {
          "internalType": "bytes32",
          "name": "",
          "type": "bytes32"
        }
      ],
      "stateMutability": "view",
      "type": "function"
    },
    {
      "inputs": [
        {
          "internalType": "bytes32",
          "name": "role",
          "type": "bytes32"
        },
        {
          "internalType": "address",
          "name": "account",
          "type": "address"
        }
      ],
      "name": "grantRole",
      "outputs": [],
      "stateMutability": "nonpayable",
      "type": "function"
    },
    {
      "inputs": [
        {
          "internalType": "bytes32",
          "name": "role",
          "type": "bytes32"
        },
        {
          "internalType": "address",
          "name": "account",
          "type": "address"
        }
      ],
      "name": "hasRole",
      "outputs": [
        {
          "internalType": "bool",
          "name": "",
          "type": "bool"
        }
      ],
      "stateMutability": "view",
      "type": "function"
    },
    {
      "inputs": [
        {
          "components": [
            {
              "internalType": "address",
              "name": "ownerAddress",
              "type": "address"
            },
            {
              "internalType": "address",
              "name": "dlpRegistryAddress",
              "type": "address"
            },
            {
              "internalType": "uint256",
              "name": "daySize",
              "type": "uint256"
            },
            {
              "internalType": "uint256",
              "name": "epochSize",
              "type": "uint256"
            },
            {
              "internalType": "uint256",
              "name": "epochRewardAmount",
              "type": "uint256"
            }
          ],
          "internalType": "struct VanaEpochImplementation.InitializeParams",
          "name": "params",
          "type": "tuple"
        }
      ],
      "name": "initialize",
      "outputs": [],
      "stateMutability": "nonpayable",
      "type": "function"
    },
    {
      "inputs": [
        {
          "internalType": "uint256",
          "name": "epochId",
          "type": "uint256"
        },
        {
          "internalType": "uint256",
          "name": "startBlock",
          "type": "uint256"
        },
        {
          "internalType": "uint256",
          "name": "endBlock",
          "type": "uint256"
        },
        {
          "internalType": "uint256",
          "name": "rewardAmount",
          "type": "uint256"
        },
        {
          "components": [
            {
              "internalType": "uint256",
              "name": "dlpId",
              "type": "uint256"
            },
            {
              "internalType": "uint256",
              "name": "rewardAmount",
              "type": "uint256"
            }
          ],
          "internalType": "struct IVanaEpoch.Rewards[]",
          "name": "dlpRewards",
          "type": "tuple[]"
        },
        {
          "internalType": "bool",
          "name": "isFinalized",
          "type": "bool"
        }
      ],
      "name": "initializeEpoch",
      "outputs": [],
      "stateMutability": "nonpayable",
      "type": "function"
    },
    {
      "inputs": [],
      "name": "pause",
      "outputs": [],
      "stateMutability": "nonpayable",
      "type": "function"
    },
    {
      "inputs": [],
      "name": "paused",
      "outputs": [
        {
          "internalType": "bool",
          "name": "",
          "type": "bool"
        }
      ],
      "stateMutability": "view",
      "type": "function"
    },
    {
      "inputs": [],
      "name": "proxiableUUID",
      "outputs": [
        {
          "internalType": "bytes32",
          "name": "",
          "type": "bytes32"
        }
      ],
      "stateMutability": "view",
      "type": "function"
    },
    {
      "inputs": [
        {
          "internalType": "bytes32",
          "name": "role",
          "type": "bytes32"
        },
        {
          "internalType": "address",
          "name": "callerConfirmation",
          "type": "address"
        }
      ],
      "name": "renounceRole",
      "outputs": [],
      "stateMutability": "nonpayable",
      "type": "function"
    },
    {
      "inputs": [
        {
          "internalType": "bytes32",
          "name": "role",
          "type": "bytes32"
        },
        {
          "internalType": "address",
          "name": "account",
          "type": "address"
        }
      ],
      "name": "revokeRole",
      "outputs": [],
      "stateMutability": "nonpayable",
      "type": "function"
    },
    {
      "inputs": [
        {
          "internalType": "uint256",
          "name": "epochId",
          "type": "uint256"
        },
        {
          "components": [
            {
              "internalType": "uint256",
              "name": "dlpId",
              "type": "uint256"
            },
            {
              "internalType": "uint256",
              "name": "rewardAmount",
              "type": "uint256"
            }
          ],
          "internalType": "struct IVanaEpoch.Rewards[]",
          "name": "dlpRewards",
          "type": "tuple[]"
        },
        {
          "internalType": "bool",
          "name": "finalScores",
          "type": "bool"
        }
      ],
      "name": "saveEpochDlpRewards",
      "outputs": [],
      "stateMutability": "nonpayable",
      "type": "function"
    },
    {
      "inputs": [
        {
          "internalType": "bytes4",
          "name": "interfaceId",
          "type": "bytes4"
        }
      ],
      "name": "supportsInterface",
      "outputs": [
        {
          "internalType": "bool",
          "name": "",
          "type": "bool"
        }
      ],
      "stateMutability": "view",
      "type": "function"
    },
    {
      "inputs": [],
      "name": "unpause",
      "outputs": [],
      "stateMutability": "nonpayable",
      "type": "function"
    },
    {
      "inputs": [
        {
          "internalType": "uint256",
          "name": "newDaySize",
          "type": "uint256"
        }
      ],
      "name": "updateDaySize",
      "outputs": [],
      "stateMutability": "nonpayable",
      "type": "function"
    },
    {
      "inputs": [
        {
          "internalType": "address",
          "name": "dlpPerformanceAddress",
          "type": "address"
        }
      ],
      "name": "updateDlpPerformance",
      "outputs": [],
      "stateMutability": "nonpayable",
      "type": "function"
    },
    {
      "inputs": [
        {
          "internalType": "address",
          "name": "dlpRegistryAddress",
          "type": "address"
        }
      ],
      "name": "updateDlpRegistry",
      "outputs": [],
      "stateMutability": "nonpayable",
      "type": "function"
    },
    {
      "inputs": [
        {
          "internalType": "uint256",
          "name": "newEpochRewardAmount",
          "type": "uint256"
        }
      ],
      "name": "updateEpochRewardAmount",
      "outputs": [],
      "stateMutability": "nonpayable",
      "type": "function"
    },
    {
      "inputs": [
        {
          "internalType": "uint256",
          "name": "newEpochSizeInDays",
          "type": "uint256"
        }
      ],
      "name": "updateEpochSize",
      "outputs": [],
      "stateMutability": "nonpayable",
      "type": "function"
    },
    {
      "inputs": [
        {
          "internalType": "address",
          "name": "newImplementation",
          "type": "address"
        },
        {
          "internalType": "bytes",
          "name": "data",
          "type": "bytes"
        }
      ],
      "name": "upgradeToAndCall",
      "outputs": [],
      "stateMutability": "payable",
      "type": "function"
    },
    {
      "inputs": [],
      "name": "version",
      "outputs": [
        {
          "internalType": "uint256",
          "name": "",
          "type": "uint256"
        }
      ],
      "stateMutability": "pure",
      "type": "function"
    }
  ],
  "transactionHash": "0x3c9d1ed8a0395a2b41afa610fe9c94684652209e7f331902d6fd49a00b66218f",
  "args": [],
  "numDeployments": 1,
  "solcInputHash": "5a48a35de5c6778bf907d9f78e6840d3",
  "bytecode": "0x60a06040523060805234801561001457600080fd5b5061001d610022565b6100d4565b7ff0c57e16840df040f15088dc2f81fe391c3923bec73e23a9662efc9c229c6a00805468010000000000000000900460ff16156100725760405163f92ee8a960e01b815260040160405180910390fd5b80546001600160401b03908116146100d15780546001600160401b0319166001600160401b0390811782556040519081527fc7f505b2f371ae2175ee4913f4499e1f2633a7b5936321eed1cdaeb6115181d29060200160405180910390a15b50565b608051611fb66100fd600039600081816113260152818161134f01526114930152611fb66000f3fe60806040526004361061019f5760003560e01c806301ffc9a7146101a45780630accc171146101d95780630c8d7fef146101fb578063132c58e91461021b5780631eb2454b1461023f578063248a9ca31461025f5780632f2ff15d1461027f578063354ffd991461029f57806336568abe146102cc5780633f4ba83a146102ec5780634a998a6f146103015780634f1ef2861461032357806352d1902d1461033657806354fd4d501461034b578063572d356e1461035f5780635c975abb146103755780635e84f8561461038a57806363667414146103aa5780636b289f5b146103ca57806376bc9869146103ea57806377d3205a146103ff5780637eb97e881461041f578063806daf2e1461043f5780638456cb591461045f578063916e1c571461047457806391d148541461048a578063a217fddf146104aa578063ad3cb1cc146104bf578063b3a7b9da146104fd578063c6b61e4c1461053a578063d4e018721461058f578063d547741f146105af578063d7033ca0146105cf578063eaeb2ec8146105e5578063f7e4ca1114610605578063f874225414610632575b600080fd5b3480156101b057600080fd5b506101c46101bf366004611a1b565b610654565b60405190151581526020015b60405180910390f35b3480156101e557600080fd5b506101f96101f4366004611a45565b61068b565b005b34801561020757600080fd5b506101f9610216366004611abe565b610731565b34801561022757600080fd5b5061023160025481565b6040519081526020016101d0565b34801561024b57600080fd5b506101f961025a366004611b32565b6109a9565b34801561026b57600080fd5b5061023161027a366004611a45565b6109e4565b34801561028b57600080fd5b506101f961029a366004611b4d565b610a04565b3480156102ab57600080fd5b506001546102bf906001600160a01b031681565b6040516101d09190611b79565b3480156102d857600080fd5b506101f96102e7366004611b4d565b610a20565b3480156102f857600080fd5b506101f9610a58565b34801561030d57600080fd5b50610231600080516020611f2183398151915281565b6101f9610331366004611bd3565b610a78565b34801561034257600080fd5b50610231610a97565b34801561035757600080fd5b506001610231565b34801561036b57600080fd5b5061023160045481565b34801561038157600080fd5b506101c4610ab4565b34801561039657600080fd5b506101f96103a5366004611b32565b610ac9565b3480156103b657600080fd5b506101f96103c5366004611c7c565b610b3e565b3480156103d657600080fd5b506101f96103e5366004611a45565b610c06565b3480156103f657600080fd5b506101f9610c4e565b34801561040b57600080fd5b506101f961041a366004611cf6565b610c71565b34801561042b57600080fd5b506000546102bf906001600160a01b031681565b34801561044b57600080fd5b506101f961045a366004611a45565b610de7565b34801561046b57600080fd5b506101f9610e05565b34801561048057600080fd5b5061023160055481565b34801561049657600080fd5b506101c46104a5366004611b4d565b610e25565b3480156104b657600080fd5b50610231600081565b3480156104cb57600080fd5b506104f0604051806040016040528060058152602001640352e302e360dc1b81525081565b6040516101d09190611d9b565b34801561050957600080fd5b5061051d610518366004611dce565b610e5b565b6040805182511515815260209283015192810192909252016101d0565b34801561054657600080fd5b5061055a610555366004611a45565b610ec5565b6040516101d0919081518152602080830151908201526040808301519082015260609182015115159181019190915260800190565b34801561059b57600080fd5b506101f96105aa366004611a45565b610f3d565b3480156105bb57600080fd5b506101f96105ca366004611b4d565b610f7d565b3480156105db57600080fd5b5061023160035481565b3480156105f157600080fd5b506101f9610600366004611a45565b610f99565b34801561061157600080fd5b50610625610620366004611a45565b610fc7565b6040516101d09190611df0565b34801561063e57600080fd5b50610231600080516020611f6183398151915281565b60006001600160e01b03198216637965db0b60e01b148061068557506301ffc9a760e01b6001600160e01b03198316145b92915050565b610693610fe4565b61069b61101a565b600080516020611f618339815191526106b381611040565b6106bc4361104a565b60055482106106de5760405163756b785760e01b815260040160405180910390fd5b6000828152600660205260409081902060038101805460ff191660011790559051600080516020611f418339815191529061071c9085815260200190565b60405180910390a1505061072e611141565b50565b610739610fe4565b61074161101a565b600080516020611f2183398151915261075981611040565b60055485111561077c5760405163d5b25b6360e01b815260040160405180910390fd5b6005548514801561078a5750815b156107a85760405163756b785760e01b815260040160405180910390fd5b6000858152600660205260409020600381015460ff16156107dc57604051630cd9898f60e21b815260040160405180910390fd5b60005b848110156108b05760008686838181106107fb576107fb611e33565b905060400201600001359050600087878481811061081b5761081b611e33565b90506040020160200135905060008111156108435761083d6004850183611152565b50610852565b6108506004850183611165565b505b600082815260068501602090815260409182902083905581518b81529081018490529081018290527e6f116e3a415d0686b00188d9246501538369f01af1dc43bdf86fbed48c89f59060600160405180910390a150506001016107df565b506000805b6108c183600401611171565b811015610925576006830160006108db600486018461117b565b81526020810191909152604001600020546108f69083611e5f565b9150826002015482111561091d5760405163d4f6240160e01b815260040160405180910390fd5b6001016108b5565b50831561099857633b9aca0082600201546109409190611e72565b8110156109605760405163390a49e960e21b815260040160405180910390fd5b60038201805460ff19166001179055604051600080516020611f418339815191529061098f9089815260200190565b60405180910390a15b5050506109a3611141565b50505050565b600080516020611f618339815191526109c181611040565b50600080546001600160a01b0319166001600160a01b0392909216919091179055565b6000806109ef611187565b60009384526020525050604090206001015490565b610a0d826109e4565b610a1681611040565b6109a383836111ab565b6001600160a01b0381163314610a495760405163334bd91960e11b815260040160405180910390fd5b610a53828261124c565b505050565b600080516020611f61833981519152610a7081611040565b61072e6112c4565b610a8061131b565b610a89826113c0565b610a9382826113cb565b5050565b6000610aa1611488565b50600080516020611f0183398151915290565b600080610abf6114d1565b5460ff1692915050565b600080516020611f61833981519152610ae181611040565b600154610b0690600080516020611f21833981519152906001600160a01b031661124c565b50600180546001600160a01b0319166001600160a01b038416908117909155610a5390600080516020611f21833981519152906111ab565b600080516020611f61833981519152610b5681611040565b6000888152600660205260408120888155600181018890556002810187905560038101805460ff1916851515179055905b84811015610bfa576000868683818110610ba357610ba3611e33565b60400291909101359150610bbc90506004840182611152565b50868683818110610bcf57610bcf611e33565b6000938452600686016020908152604094859020919094029290920190920135905550600101610b87565b50505050505050505050565b6000610c1181611040565b60028290556040518281527f2fe8cb48ce95af273ee232223c3a0fbda25a65208753e99801ce508751f2b7fb906020015b60405180910390a15050565b610c56610fe4565b610c5e61101a565b610c674361104a565b610c6f611141565b565b6000610c7b6114f5565b805490915060ff600160401b82041615906001600160401b0316600081158015610ca25750825b90506000826001600160401b03166001148015610cbe5750303b155b905081158015610ccc575080155b15610cea5760405163f92ee8a960e01b815260040160405180910390fd5b84546001600160401b03191660011785558315610d1357845460ff60401b1916600160401b1785555b610d1b611519565b610d23611519565b610d2b611521565b610d33611531565b6020860151600080546001600160a01b0319166001600160a01b039092169190911781556040870151600355606087015160045560808701516002558651610d7b91906111ab565b50610d98600080516020611f6183398151915287600001516111ab565b508315610ddf57845460ff60401b19168555604051600181527fc7f505b2f371ae2175ee4913f4499e1f2633a7b5936321eed1cdaeb6115181d29060200160405180910390a15b505050505050565b600080516020611f61833981519152610dff81611040565b50600355565b600080516020611f61833981519152610e1d81611040565b61072e611541565b600080610e30611187565b6000948552602090815260408086206001600160a01b03959095168652939052505090205460ff1690565b60408051808201909152600080825260208201526000838152600660208181526040808420868552928301825292839020835191820184525481528251808401909352909180610eae6004850187611588565b151581529151602090920191909152949350505050565b610ef260405180608001604052806000815260200160008152602001600081526020016000151581525090565b506040805160808101825260008381526006602081815284832080548552600181015482860152600281015495850195909552949091529092526003015460ff161515606082015290565b6000610f4881611040565b60048290556040518281527f3cd59cf395448ba3bfd2541dcb31ccd800b9e303281df0888a62ae5d5f673f5890602001610c42565b610f86826109e4565b610f8f81611040565b6109a3838361124c565b610fa1610fe4565b610fa961101a565b610fbf438210610fb9574361104a565b8161104a565b61072e611141565b600081815260066020526040902060609061068590600401611594565b6000610fee6115a1565b80549091506001190161101457604051633ee5aeb560e01b815260040160405180910390fd5b60029055565b611022610ab4565b15610c6f5760405163d93c066560e01b815260040160405180910390fd5b61072e81336115c5565b6005546000908152600660205260409020600181015443101561106b575050565b8181600101541015610a935760006006600060056000815461108c90611e85565b91905081905581526020019081526020016000209050816001015460016110b39190611e5f565b81556003546004546001916110c791611e9e565b82546110d39190611e5f565b6110dd9190611e72565b6001820181905560028054908301819055600554835460408051928352602083019190915281019290925260608201527f017b1c583db0d753e82f5a7f7b94f64603f7e401eb2c40271a8edce1431cf09e9060800160405180910390a1905061106b565b600061114b6115a1565b6001905550565b600061115e83836115fe565b9392505050565b600061115e8383611648565b6000610685825490565b600061115e8383611731565b7f02dd7bc7dec4dceedda775e58dd541e08a116c6c53815c0bd028192f7b62680090565b6000806111b6611187565b90506111c28484610e25565b611242576000848152602082815260408083206001600160a01b03871684529091529020805460ff191660011790556111f83390565b6001600160a01b0316836001600160a01b0316857f2f8788117e7eff1d82e926ec794901d17c78024a50270940304540a733656f0d60405160405180910390a46001915050610685565b6000915050610685565b600080611257611187565b90506112638484610e25565b15611242576000848152602082815260408083206001600160a01b0387168085529252808320805460ff1916905551339287917ff6391f5c32d9c69d2a47ea670b442974b53935d1edc7fd64eb21e047a839171b9190a46001915050610685565b6112cc61175b565b60006112d66114d1565b805460ff1916815590507f5db9ee0a495bf2e6ff9c91a7834c1ba4fdd244a5e8aa4e537bd38aeae4b073aa335b6040516113109190611b79565b60405180910390a150565b306001600160a01b037f00000000000000000000000000000000000000000000000000000000000000001614806113a257507f00000000000000000000000000000000000000000000000000000000000000006001600160a01b0316611396600080516020611f01833981519152546001600160a01b031690565b6001600160a01b031614155b15610c6f5760405163703e46dd60e11b815260040160405180910390fd5b6000610a9381611040565b816001600160a01b03166352d1902d6040518163ffffffff1660e01b8152600401602060405180830381865afa925050508015611425575060408051601f3d908101601f1916820190925261142291810190611eb5565b60015b61144d5781604051634c9c8ce360e01b81526004016114449190611b79565b60405180910390fd5b600080516020611f01833981519152811461147e57604051632a87526960e21b815260048101829052602401611444565b610a538383611780565b306001600160a01b037f00000000000000000000000000000000000000000000000000000000000000001614610c6f5760405163703e46dd60e11b815260040160405180910390fd5b7fcd5ed15c6e187e77e9aee88184c21f4f2182ab5827cb3b7e07fbedcd63f0330090565b7ff0c57e16840df040f15088dc2f81fe391c3923bec73e23a9662efc9c229c6a0090565b610c6f6117d6565b6115296117d6565b610c6f6117fb565b6115396117d6565b610c6f611803565b61154961101a565b60006115536114d1565b805460ff1916600117815590507f62e78cea01bee320cd4e420270b5ea74000d11b0c9f74754ebdbfc544b05a2586113033390565b600061115e8383611820565b6060600061115e83611838565b7f9b779b17422d0df92223018b32b4d1fa46e071723d6817e2486d003becc55f0090565b6115cf8282610e25565b610a935760405163e2517d3f60e01b81526001600160a01b038216600482015260248101839052604401611444565b600061160a8383611820565b61164057508154600181810184556000848152602080822090930184905584548482528286019093526040902091909155610685565b506000610685565b6000818152600183016020526040812054801561124257600061166c600183611e72565b855490915060009061168090600190611e72565b90508082146116e55760008660000182815481106116a0576116a0611e33565b90600052602060002001549050808760000184815481106116c3576116c3611e33565b6000918252602080832090910192909255918252600188019052604090208390555b85548690806116f6576116f6611ece565b600190038181906000526020600020016000905590558560010160008681526020019081526020016000206000905560019350505050610685565b600082600001828154811061174857611748611e33565b9060005260206000200154905092915050565b611763610ab4565b610c6f57604051638dfc202b60e01b815260040160405180910390fd5b61178982611894565b6040516001600160a01b038316907fbc7cd75a20ee27fd9adebab32041f755214dbc6bffa90cc0225b39da2e5c2d3b90600090a28051156117ce57610a5382826118f0565b610a93611966565b6117de611985565b610c6f57604051631afcd79f60e31b815260040160405180910390fd5b6111416117d6565b61180b6117d6565b60006118156114d1565b805460ff1916905550565b60009081526001919091016020526040902054151590565b60608160000180548060200260200160405190810160405280929190818152602001828054801561188857602002820191906000526020600020905b815481526020019060010190808311611874575b50505050509050919050565b806001600160a01b03163b6000036118c15780604051634c9c8ce360e01b81526004016114449190611b79565b600080516020611f0183398151915280546001600160a01b0319166001600160a01b0392909216919091179055565b6060600080846001600160a01b03168460405161190d9190611ee4565b600060405180830381855af49150503d8060008114611948576040519150601f19603f3d011682016040523d82523d6000602084013e61194d565b606091505b509150915061195d85838361199f565b95945050505050565b3415610c6f5760405163b398979f60e01b815260040160405180910390fd5b600061198f6114f5565b54600160401b900460ff16919050565b6060826119b4576119af826119f2565b61115e565b81511580156119cb57506001600160a01b0384163b155b156119eb5783604051639996b31560e01b81526004016114449190611b79565b5092915050565b805115611a025780518082602001fd5b604051630a12f52160e11b815260040160405180910390fd5b600060208284031215611a2d57600080fd5b81356001600160e01b03198116811461115e57600080fd5b600060208284031215611a5757600080fd5b5035919050565b60008083601f840112611a7057600080fd5b5081356001600160401b03811115611a8757600080fd5b6020830191508360208260061b8501011115611aa257600080fd5b9250929050565b80358015158114611ab957600080fd5b919050565b60008060008060608587031215611ad457600080fd5b8435935060208501356001600160401b03811115611af157600080fd5b611afd87828801611a5e565b9094509250611b10905060408601611aa9565b905092959194509250565b80356001600160a01b0381168114611ab957600080fd5b600060208284031215611b4457600080fd5b61115e82611b1b565b60008060408385031215611b6057600080fd5b82359150611b7060208401611b1b565b90509250929050565b6001600160a01b0391909116815260200190565b634e487b7160e01b600052604160045260246000fd5b604051601f8201601f191681016001600160401b0381118282101715611bcb57611bcb611b8d565b604052919050565b60008060408385031215611be657600080fd5b611bef83611b1b565b915060208301356001600160401b03811115611c0a57600080fd5b8301601f81018513611c1b57600080fd5b80356001600160401b03811115611c3457611c34611b8d565b611c47601f8201601f1916602001611ba3565b818152866020838501011115611c5c57600080fd5b816020840160208301376000602083830101528093505050509250929050565b600080600080600080600060c0888a031215611c9757600080fd5b8735965060208801359550604088013594506060880135935060808801356001600160401b03811115611cc957600080fd5b611cd58a828b01611a5e565b9094509250611ce8905060a08901611aa9565b905092959891949750929550565b600060a0828403128015611d0957600080fd5b5060405160009060a081016001600160401b0381118282101715611d2f57611d2f611b8d565b604052611d3b84611b1b565b8152611d4960208501611b1b565b6020820152604084810135908201526060808501359082015260809384013593810193909352509092915050565b60005b83811015611d92578181015183820152602001611d7a565b50506000910152565b6020815260008251806020840152611dba816040850160208701611d77565b601f01601f19169190910160400192915050565b60008060408385031215611de157600080fd5b50508035926020909101359150565b602080825282518282018190526000918401906040840190835b81811015611e28578351835260209384019390920191600101611e0a565b509095945050505050565b634e487b7160e01b600052603260045260246000fd5b634e487b7160e01b600052601160045260246000fd5b8082018082111561068557610685611e49565b8181038181111561068557610685611e49565b600060018201611e9757611e97611e49565b5060010190565b808202811582820484141761068557610685611e49565b600060208284031215611ec757600080fd5b5051919050565b634e487b7160e01b600052603160045260246000fd5b60008251611ef6818460208701611d77565b919091019291505056fe360894a13ba1a3210667c828492db98dca3e2076cc3735a920a3ca505d382bbc0e4b5abdbacc88ea82f7039d0cc2b0185da78d8fe1d85531edfebd57d65707d58fc0db93d562284b2140b5ba84181e6d8649504e729013e6a8c704ffb08d04b9339759585899103d2ace64958e37e18ccb0504652c81d4a1b8aa80fe2126ab95a264697066735822122067acebef1f0004162f00a21132816514685acca4ce55e1148caedcb8ae52da4664736f6c634300081c0033",
  "devdoc": {
    "errors": {
      "AccessControlBadConfirmation()": [
        {
          "details": "The caller of a function is not the expected one. NOTE: Don't confuse with {AccessControlUnauthorizedAccount}."
        }
      ],
      "AccessControlUnauthorizedAccount(address,bytes32)": [
        {
          "details": "The `account` is missing a role."
        }
      ],
      "AddressEmptyCode(address)": [
        {
          "details": "There's no code at `target` (it is not a contract)."
        }
      ],
      "ERC1967InvalidImplementation(address)": [
        {
          "details": "The `implementation` of the proxy is invalid."
        }
      ],
      "ERC1967NonPayable()": [
        {
          "details": "An upgrade function sees `msg.value > 0` that may be lost."
        }
      ],
      "EnforcedPause()": [
        {
          "details": "The operation failed because the contract is paused."
        }
      ],
      "ExpectedPause()": [
        {
          "details": "The operation failed because the contract is not paused."
        }
      ],
      "FailedInnerCall()": [
        {
          "details": "A call to an address target failed. The target may have reverted."
        }
      ],
      "InvalidInitialization()": [
        {
          "details": "The contract is already initialized."
        }
      ],
      "NotInitializing()": [
        {
          "details": "The contract is not initializing."
        }
      ],
      "ReentrancyGuardReentrantCall()": [
        {
          "details": "Unauthorized reentrant call."
        }
      ],
      "UUPSUnauthorizedCallContext()": [
        {
          "details": "The call is from an unauthorized context."
        }
      ],
      "UUPSUnsupportedProxiableUUID(bytes32)": [
        {
          "details": "The storage `slot` is unsupported as a UUID."
        }
      ]
    },
    "events": {
      "Initialized(uint64)": {
        "details": "Triggered when the contract has been initialized or reinitialized."
      },
      "Paused(address)": {
        "details": "Emitted when the pause is triggered by `account`."
      },
      "RoleAdminChanged(bytes32,bytes32,bytes32)": {
        "details": "Emitted when `newAdminRole` is set as ``role``'s admin role, replacing `previousAdminRole` `DEFAULT_ADMIN_ROLE` is the starting admin for all roles, despite {RoleAdminChanged} not being emitted signaling this."
      },
      "RoleGranted(bytes32,address,address)": {
        "details": "Emitted when `account` is granted `role`. `sender` is the account that originated the contract call, an admin role bearer except when using {AccessControl-_setupRole}."
      },
      "RoleRevoked(bytes32,address,address)": {
        "details": "Emitted when `account` is revoked `role`. `sender` is the account that originated the contract call:   - if using `revokeRole`, it is the admin role bearer   - if using `renounceRole`, it is the role bearer (i.e. `account`)"
      },
      "Unpaused(address)": {
        "details": "Emitted when the pause is lifted by `account`."
      },
      "Upgraded(address)": {
        "details": "Emitted when the implementation is upgraded."
      }
    },
    "kind": "dev",
    "methods": {
      "constructor": {
        "custom:oz-upgrades-unsafe-allow": "constructor"
      },
      "getRoleAdmin(bytes32)": {
        "details": "Returns the admin role that controls `role`. See {grantRole} and {revokeRole}. To change a role's admin, use {_setRoleAdmin}."
      },
      "grantRole(bytes32,address)": {
        "details": "Grants `role` to `account`. If `account` had not been already granted `role`, emits a {RoleGranted} event. Requirements: - the caller must have ``role``'s admin role. May emit a {RoleGranted} event."
      },
      "hasRole(bytes32,address)": {
        "details": "Returns `true` if `account` has been granted `role`."
      },
      "paused()": {
        "details": "Returns true if the contract is paused, and false otherwise."
      },
      "proxiableUUID()": {
        "details": "Implementation of the ERC1822 {proxiableUUID} function. This returns the storage slot used by the implementation. It is used to validate the implementation's compatibility when performing an upgrade. IMPORTANT: A proxy pointing at a proxiable contract should not be considered proxiable itself, because this risks bricking a proxy that upgrades to it, by delegating to itself until out of gas. Thus it is critical that this function revert if invoked through a proxy. This is guaranteed by the `notDelegated` modifier."
      },
      "renounceRole(bytes32,address)": {
        "details": "Revokes `role` from the calling account. Roles are often managed via {grantRole} and {revokeRole}: this function's purpose is to provide a mechanism for accounts to lose their privileges if they are compromised (such as when a trusted device is misplaced). If the calling account had been revoked `role`, emits a {RoleRevoked} event. Requirements: - the caller must be `callerConfirmation`. May emit a {RoleRevoked} event."
      },
      "revokeRole(bytes32,address)": {
        "details": "Revokes `role` from `account`. If `account` had been granted `role`, emits a {RoleRevoked} event. Requirements: - the caller must have ``role``'s admin role. May emit a {RoleRevoked} event."
      },
      "supportsInterface(bytes4)": {
        "details": "See {IERC165-supportsInterface}."
      },
      "upgradeToAndCall(address,bytes)": {
        "custom:oz-upgrades-unsafe-allow-reachable": "delegatecall",
        "details": "Upgrade the implementation of the proxy to `newImplementation`, and subsequently execute the function call encoded in `data`. Calls {_authorizeUpgrade}. Emits an {Upgraded} event."
      }
    },
    "version": 1
  },
  "userdoc": {
    "kind": "user",
    "methods": {
      "createEpochs()": {
        "notice": "Creates epochs up to current block"
      },
      "createEpochsUntilBlockNumber(uint256)": {
        "notice": "Creates epochs up to specified block"
      }
    },
    "version": 1
  },
  "storageLayout": {
    "storage": [
      {
        "astId": 19856,
        "contract": "contracts/vanaEpoch/VanaEpochImplementation.sol:VanaEpochImplementation",
        "label": "dlpRegistry",
        "offset": 0,
        "slot": "0",
        "type": "t_contract(IDLPRegistry)14508"
      },
      {
        "astId": 19860,
        "contract": "contracts/vanaEpoch/VanaEpochImplementation.sol:VanaEpochImplementation",
        "label": "dlpPerformance",
        "offset": 0,
        "slot": "1",
        "type": "t_contract(IDLPPerformance)12858"
      },
      {
        "astId": 19863,
        "contract": "contracts/vanaEpoch/VanaEpochImplementation.sol:VanaEpochImplementation",
        "label": "epochRewardAmount",
        "offset": 0,
        "slot": "2",
        "type": "t_uint256"
      },
      {
        "astId": 19866,
        "contract": "contracts/vanaEpoch/VanaEpochImplementation.sol:VanaEpochImplementation",
        "label": "daySize",
        "offset": 0,
        "slot": "3",
        "type": "t_uint256"
      },
      {
        "astId": 19869,
        "contract": "contracts/vanaEpoch/VanaEpochImplementation.sol:VanaEpochImplementation",
        "label": "epochSize",
        "offset": 0,
        "slot": "4",
        "type": "t_uint256"
      },
      {
        "astId": 19872,
        "contract": "contracts/vanaEpoch/VanaEpochImplementation.sol:VanaEpochImplementation",
        "label": "epochsCount",
        "offset": 0,
        "slot": "5",
        "type": "t_uint256"
      },
      {
        "astId": 19877,
        "contract": "contracts/vanaEpoch/VanaEpochImplementation.sol:VanaEpochImplementation",
        "label": "_epochs",
        "offset": 0,
        "slot": "6",
        "type": "t_mapping(t_uint256,t_struct(Epoch)19714_storage)"
      }
    ],
    "types": {
      "t_array(t_bytes32)dyn_storage": {
        "base": "t_bytes32",
        "encoding": "dynamic_array",
        "label": "bytes32[]",
        "numberOfBytes": "32"
      },
      "t_bool": {
        "encoding": "inplace",
        "label": "bool",
        "numberOfBytes": "1"
      },
      "t_bytes32": {
        "encoding": "inplace",
        "label": "bytes32",
        "numberOfBytes": "32"
      },
      "t_contract(IDLPPerformance)12858": {
        "encoding": "inplace",
        "label": "contract IDLPPerformance",
        "numberOfBytes": "20"
      },
      "t_contract(IDLPRegistry)14508": {
        "encoding": "inplace",
        "label": "contract IDLPRegistry",
        "numberOfBytes": "20"
      },
      "t_mapping(t_bytes32,t_uint256)": {
        "encoding": "mapping",
        "key": "t_bytes32",
        "label": "mapping(bytes32 => uint256)",
        "numberOfBytes": "32",
        "value": "t_uint256"
      },
      "t_mapping(t_uint256,t_struct(Epoch)19714_storage)": {
        "encoding": "mapping",
        "key": "t_uint256",
        "label": "mapping(uint256 => struct IVanaEpoch.Epoch)",
        "numberOfBytes": "32",
        "value": "t_struct(Epoch)19714_storage"
      },
      "t_mapping(t_uint256,t_struct(EpochDlp)19697_storage)": {
        "encoding": "mapping",
        "key": "t_uint256",
        "label": "mapping(uint256 => struct IVanaEpoch.EpochDlp)",
        "numberOfBytes": "32",
        "value": "t_struct(EpochDlp)19697_storage"
      },
      "t_struct(Epoch)19714_storage": {
        "encoding": "inplace",
        "label": "struct IVanaEpoch.Epoch",
        "members": [
          {
            "astId": 19699,
            "contract": "contracts/vanaEpoch/VanaEpochImplementation.sol:VanaEpochImplementation",
            "label": "startBlock",
            "offset": 0,
            "slot": "0",
            "type": "t_uint256"
          },
          {
            "astId": 19701,
            "contract": "contracts/vanaEpoch/VanaEpochImplementation.sol:VanaEpochImplementation",
            "label": "endBlock",
            "offset": 0,
            "slot": "1",
            "type": "t_uint256"
          },
          {
            "astId": 19703,
            "contract": "contracts/vanaEpoch/VanaEpochImplementation.sol:VanaEpochImplementation",
            "label": "rewardAmount",
            "offset": 0,
            "slot": "2",
            "type": "t_uint256"
          },
          {
            "astId": 19705,
            "contract": "contracts/vanaEpoch/VanaEpochImplementation.sol:VanaEpochImplementation",
            "label": "isFinalized",
            "offset": 0,
            "slot": "3",
            "type": "t_bool"
          },
          {
            "astId": 19708,
            "contract": "contracts/vanaEpoch/VanaEpochImplementation.sol:VanaEpochImplementation",
            "label": "dlpIds",
            "offset": 0,
            "slot": "4",
            "type": "t_struct(UintSet)10692_storage"
          },
          {
            "astId": 19713,
            "contract": "contracts/vanaEpoch/VanaEpochImplementation.sol:VanaEpochImplementation",
            "label": "dlps",
            "offset": 0,
            "slot": "6",
            "type": "t_mapping(t_uint256,t_struct(EpochDlp)19697_storage)"
          }
        ],
        "numberOfBytes": "224"
      },
      "t_struct(EpochDlp)19697_storage": {
        "encoding": "inplace",
        "label": "struct IVanaEpoch.EpochDlp",
        "members": [
          {
            "astId": 19696,
            "contract": "contracts/vanaEpoch/VanaEpochImplementation.sol:VanaEpochImplementation",
            "label": "rewardAmount",
            "offset": 0,
            "slot": "0",
            "type": "t_uint256"
          }
        ],
        "numberOfBytes": "32"
      },
      "t_struct(Set)10220_storage": {
        "encoding": "inplace",
        "label": "struct EnumerableSet.Set",
        "members": [
          {
            "astId": 10215,
            "contract": "contracts/vanaEpoch/VanaEpochImplementation.sol:VanaEpochImplementation",
            "label": "_values",
            "offset": 0,
            "slot": "0",
            "type": "t_array(t_bytes32)dyn_storage"
          },
          {
            "astId": 10219,
            "contract": "contracts/vanaEpoch/VanaEpochImplementation.sol:VanaEpochImplementation",
            "label": "_positions",
            "offset": 0,
            "slot": "1",
            "type": "t_mapping(t_bytes32,t_uint256)"
          }
        ],
        "numberOfBytes": "64"
      },
      "t_struct(UintSet)10692_storage": {
        "encoding": "inplace",
        "label": "struct EnumerableSet.UintSet",
        "members": [
          {
            "astId": 10691,
            "contract": "contracts/vanaEpoch/VanaEpochImplementation.sol:VanaEpochImplementation",
            "label": "_inner",
            "offset": 0,
            "slot": "0",
            "type": "t_struct(Set)10220_storage"
          }
        ],
        "numberOfBytes": "64"
      },
      "t_uint256": {
        "encoding": "inplace",
        "label": "uint256",
        "numberOfBytes": "32"
      }
    }
  }
}